:020000040000FA
:060000000201070220636B
:03002B000224B6F6
:030033000224980C
:030053000220D6B2
:03006B00022472FA
:10008300021ECFE5C754F84401F5C77901220000E9
:100093000080FB120086B900030200F1E4792178A5
:1000A30008B800028004F709D8FCE479297802B87B
:1000B30000028004F709D8FCE490028178BB790739
:1000C3008002F0A3D8FCD9FA7A3B7B0990013778F8
:1000D3007379038015E493A3AD82AE838A828B8305
:1000E300F0A3AA82AB838D828E83D8E9D9E7758288
:1000F3005A7583987403120119758291758300747C
:100103000012011975D00075813F751881751902A8
:10011300759F00020096C09FF59FE473D09F22D085
:1001230083D082C09FE493C0E0740193C0E0740263
:1001330093F59F22FF0000B4000028002800283018
:1001430075A000A000A000A00000080008E001F0D6
:10015300001000100010001000100010005000509C
:1001630000500010001000D0070000000000000F36
:100173000001000500307507001000010081FF0039
:10018300000000FFA105BF05A705FF020202080248
:100193005000A0000000E80302A581010000818156
:1001A30002A981010000920902AF81010000B3029C
:1001B30002A981010000930902B181010000C90273
:1001C30002A981010000940902B381010000CB025E
:1001D30002A981010000950902B581080000CC0243
:1001E30002A981010000960902B781010000970965
:1001F300FF0100FF2002A581010000878102A98180
:10020300010000FB0902B981000000000002AD817A
:1002130003000019035F0B5F0B5F0B5F0B5F0B5F4B
:100223000B5F0B5F0B5F0B5F0B5F0B5F0B5F0BE1F9
:100233000DF90DDB0DFFFF020202020202020202B0
:10024300010D000000100102A5810100008481025C
:10025300A9810100003E0A029D810100005D0702A1
:10026300A9810100003F0A029B8101000015810260
:10027300A981010000400A0299810100000781025F
:10028300A981010000410A029781010000B78002A1
:10029300A981010000420A029581010000818002C8
:1002A300A981010000430A029381010000938002A7
:1002B300A981010000440A022281010000A58002F5
:1002C300A981010000450A029181010000F9800221
:1002D300A981010000460A029F81010000470A0824
:1002E3004368617261637465726973746963203111
:1002F30000020253656C662D446566696E65642071
:1003030055554944000002A5810100008A8102A9D4
:1003130081010000E60A028D81020000670702AB3B
:1003230081010000E70A02A981010000F80A028F97
:1003330081010000680702AB81010000FA0A080985
:1003430053636F6F746572051290012003020A00F4
:100353000201060302F0FF53696D706C6520424C85
:1003630045205065726970686572616C0F100000FA
:10037300151001E803053F100AFF00013075030261
:100383000106000000000000000000000000000063
:100393000000000000000000000000000000FFFF5C
:1003A3000600800CE803120122F1890312012208DE
:1003B3008A03120122398A03120122748A03120169
:1003C300229E8A03120122C88A03120122DF8A03B2
:1003D300120122F68A031201220D8B031201223627
:1003E3008B03120122498B031201225F8B0312013B
:1003F30022898B0312012216A5021201221AA602D8
:1004030012012252A60212012275A60212012280B3
:10041300A602120122A3A602120122B2A70212010E
:100423002287A80212012202A9021201228AA9022A
:10043300120122C5A902120122FCA9021201228A79
:10044300AA0212012263AB02120122C3AB02120100
:1004530022CEAB021201224DAC0212012250AC0299
:1004630012012253AC02120122E2AC02120122E574
:10047300AC0212012215AD021201223FAD0212019C
:10048300222DAE02120122DFAE02120122E3D802B4
:100493001201220BD90212012239D9021201227050
:1004A300D902120122CED90212012219DA02120153
:1004B3002264DA02120122A4DA02120122EADA0227
:1004C30012012218DB02120122D5DB02120122DF04
:1004D300DB02120122ECDB021201221FDC021201F9
:1004E30022EBDC02120122F7DC021201220FDD02F1
:1004F30012012219DD021201224294031201225039
:1005030094031201226894031201228094031201BE
:1005130022D7B40112012283B501120122FEB501D3
:100523001201221FB7011201225BB701120122043B
:10053300B801120122EBB8011201224FBA011201D4
:1005430022A6BA0112012227BB0112012217BC0104
:1005530012012264BC01120122EABC011201221C15
:10056300BD0112012230BF0112012272BF0112012B
:100573002290BF0112012213C001120122E7C00120
:10058300120122AFC10112012229C702120122FC6A
:10059300C702120122A5C802120122F8C8021201E1
:1005A30022A8C90212012234CA0212012220CB025C
:1005B3001201224FCB0212012262CC02120122AAA3
:1005C300CC021201227FCD02120122BBCD02120105
:1005D30022D7CD021201220D9703120122C0F2028B
:1005E300120122D6F202120122FCF2021201221897
:1005F300F40212012222F40212012257F50212011F
:10060300224FF602120122BCD302120122ECD402C1
:100613001201221FD50212012269D50212012230D2
:10062300D702120122D395011201223D9601120134
:10063300229C9701120122AC9701120122D9970142
:10064300120122309801120122D99801120122E0ED
:100653009901120122AA9A011201220A9C01120194
:10066300224D9C01120122F29C01120122189D01CC
:10067300120122269F011201222B9F011201223017
:10068300A1011201227DA101120122F0A101120197
:100693002223A201120122C5A2011201226EA3018B
:1006A300120122A6A301120122A9A301120122F120
:1006B300A30112012231A40112012288A401120113
:1006C300222AFD0212012242FD021201228AFD02A8
:1006D300120122A0FD02120122E7FD02120122FBF8
:1006E300FE0212012288FF02120122D3FF0212012D
:1006F30022E02400120122EC24001201222725000B
:100703001201226C25001201222C2600120122B2B2
:100713002600120122DE26001201221727001201F1
:1007230022552900120122392B001201221F2D000C
:10073300120122622E00120122B03000120122C2E5
:1007430031001201220D33001201221D3400120167
:10075300223A340012012275340012012297340028
:10076300120122FA3400120122BB39001201225075
:100773003A00120122A13A00120122C83A001201E2
:10078300221A3B00120122383B00120122923B0045
:10079300120122913C00120122153D00120122A0F8
:1007A300DD02120122AADD02120122EDDD02120195
:1007B3002208DE0212012298DE02120122C0DE02AA
:1007C300120122FDDE0212012234DF021201225D38
:1007D300DF02120122D2DF02120122E7DF0212013D
:1007E30022FCDF021201222DE00212012241E0026B
:1007F30012012266E002120122A0E002120122CCC1
:10080300E00212012204E10212012283E102120139
:1008130022CCE102120122F6E10212012221E202BC
:10082300120122559003120122158D021201224357
:100833008D02120122918E02120122718F02120186
:1008430022908F021201220D900212012250900277
:10085300120122A69102120122679202120122EED4
:1008630094021201228F950212012285960212012F
:1008730022829702120122DC980212012267990256
:10088300120122907E00120122F97E001201224DF4
:100893007F00120122747F00120122A57F00120142
:1008A3002249E202120122B6E202120122FDE20211
:1008B30012012215E40212012211E502120122F4AF
:1008C300E50212012250AF0212012292AF0212017D
:1008D3002264B0021201223DB10212012237B20298
:1008E30012012219B30212012282B3021201223829
:1008F300B402120122ACB40212012218B502120191
:100903002241B502120122BBB50212012254B602E2
:10091300120122B9B602120122CEB602120122142A
:10092300B7021201222DB70212012292B70212015D
:100933002295B702120122008003120122288003AC
:100943001201226680031201222481031201228BE9
:100953008103120122A78103120122CF8103120115
:1009630022FF81031201220E82031201228B8203D2
:10097300120122B1820312012275A5011201225331
:10098300A70112012285A901120122C1A9011201A5
:1009930022EEA901120122D8AA0112012223AB01DE
:1009A3001201226EAB0112012280AB01120122C09F
:1009B300AB01120122F5AB0112012243AC0112017A
:1009C3002272AC0112012295AC01120122E2AC01A8
:1009D30012012267AD0112012281AF01120122C06F
:1009E300B10112012201B201120122A3B3011201CA
:1009F30022E4B30112012257B401120122ADB40162
:100A0300120122008002120122FE800212012297AB
:100A13008702120122B88902120122838B0212017A
:100A230022EB8C021201227C3D001201222B3E009C
:100A3300120122713E00120122B13F00120122472E
:100A43004100120122C14100120122DC41001201C6
:100A530022574200120122B1430012012211450024
:100A63001201221746001201227847001201229137
:100A73004700120122EF4700120122DD4800120154
:100A830022104900120122804900120122FA490072
:100A9300120122444A001201220E4B00120122E3EA
:100AA3004B00120122C24C001201224D4D001201D3
:100AB30022BB4D001201222F4E001201225A4E007A
:100AC300120122194F001201227E50001201229BB3
:100AD3005000120122BA5000120122AB5100120140
:100AE30022D05100120122FA510012012275520044
:100AF300120122CF5200120122385400120122E6C1
:100B0300540012012227550012012263E001120151
:100B130022B1E001120122BDE0011201229BE10199
:100B2300120122CCE101120122FDE1011201227D19
:100B3300E201120122B5E20112012207E3011201CF
:100B43002244E30112012261E50112012287E70138
:100B530012012272E9011201225CEB01120122FC53
:100B63007F00120122C08101120122F081011201D2
:100B730022C988011201224E8A011201224B9001DF
:100B83001201223391011201227091011201229369
:100B93009101120122C49101120122CD910112018E
:100BA30022D79101120122C59201120122BB9301A6
:100BB3001201225755001201225659001201225CDC
:100BC3005900120122976000120122B06500120140
:100BD30022E3F902120122DDFA0212012251FB0281
:100BE3001201228FFB0212012203FC021201227C5A
:100BF300FC0212012285FC0212012291FC02120165
:100C030022A6FC02120122E4FC02120122FAFC02D7
:100C1300120122B6E602120122C3E602120122DD0C
:100C2300E6021201221CE7021201225AE702120114
:100C330022BFE702120122D4E702120122DFE702F8
:100C4300120122ECE70212012203E802120122112F
:100C5300E8021201221CE80212012228E802120112
:100C63002237E80212012242E80212012265E80259
:100C73001201220CE9021201221CE902120122369E
:100C8300E90212012253E9021201226FE902120161
:100C93002294E9021201229FE902120122B4E9021D
:100CA300120122C8E90212012229EA021201222FAB
:100CB300EA0212012235EA021201223BEA02120180
:100CC3002253EA0212012286EA0212012239D201D8
:100CD300120122BDD2011201226CD301120122CBD7
:100CE300D401120122ECD601120122D8D70112013C
:100CF300220DD8011201222FD801120122DED801C0
:100D0300120122D6DA01120122FFDA011201229125
:100D1300DB01120122C3DB01120122D0DB0112012C
:100D23002227DC011201224DDC01120122BADE016D
:100D3300120122BDDF0112012215E001120122C8B6
:100D4300C301120122D2C401120122B9C501120149
:100D530022C3C501120122E5C501120122F1C50119
:100D63001201228AC701120122B9C701120122D539
:100D7300C8011201222EC90112012294CA011201D3
:100D83002273CB01120122CFCB011201223CCC01F1
:100D930012012277CC01120122B6CC011201226F7B
:100DA300CF0112012289CF0112012215D0011201B4
:100DB3002223D0011201227CD0011201228AD00108
:100DC300120122FDD00112012261D101120122ABD5
:100DD300D101120122E899021201220A9A02120198
:100DE30022309C02120122459F021201225DA002C1
:100DF30012012210A102120122F2A1021201229B6E
:100E03008B03120122C08B03120122328C031201C5
:100E130022AFBF02120122B8BF02120122C1BF02D8
:100E230012012298C00212012249C2021201227F3A
:100E3300C202120122B9C202120122EFC20212013E
:100E43002229C3021201225DC30212012289C302B5
:100E5300120122D2C3021201220CC4021201225532
:100E6300C402120122ADC402120122E2C402120121
:100E7300223DC50212012277C502120122C8C50212
:100E8300120122FEC50212012238C6021201226695
:100E9300C60212012289C602120122CF9503120152
:100EA30022FB950312012256960312012260960338
:100EB3001201227096031201224CCE021201225615
:100EC300CE0212012294CE02120122DDCE021201C1
:100ED3002217CF021201226DCF021201228ECF02FE
:100EE30012012297CF02120122E2CF021201220B3A
:100EF300D00212012215D00212012281D002120166
:100F03002217D10212012261D10212012291D102D0
:100F13001201221AD2021201225AD2021201229281
:100F2300D202120122A4D202120122C3D20212015E
:100F330022CCD20212012292D30212012272920314
:100F43001201220288031201223888031201226E41
:100F53008803120122B78903120122919703120118
:100F630022A79703120122B19703120122FB9703D1
:100F730012012203EB0212012218EB02120122CB0F
:100F8300EB021201220BEC0212012224EC021201E9
:100F93002258EC02120122A5EC02120122D9EC0222
:100FA3001201221BED0212012217EF021201226924
:100FB3009303120122929303120122BB93031201A2
:100FC30022FD9303120122F982031201221E8303DD
:100FD30012012248830312012259F6021201229EB2
:100FE300F602120122BBF6021201223DF7021201A0
:100FF3002290F70212012273F802120122AAF902C7
:1010030012012206FC0112012231FE01120122D03B
:10101300FE0112012270FF01120122FE9803120148
:1010230022666A00120122CA6C001201227B6E0042
:101033001201227D6F001201220670001201228A22
:101043007000120122AF7000120122E87300120136
:10105300225C74001201224D750012012287750073
:10106300120122C775001201227A7700120122CDE4
:1010730077001201221678001201228478001201EF
:1010830022B67800120122CE7800120122E3790001
:10109300120122F379001201220E7B001201223089
:1010A3007B00120122667B001201220A7D001201DD
:1010B30022497D001201226B7E0012012219950341
:1010C3001201222A9503120122B1FF01120122F01B
:1010D300FF01120122EB7F001201227A9603120113
:1010E300228A9603120122A296031201220A97036F
:1010F3001201226E9103120122F39103120122596C
:101103009203120122AD9803120122C59803120122
:1011130022E09803120122DD8E03120122068F03BF
:10112300120122718F03120122C28F031201221BAB
:10113300900312012224EF021201223BEF0212015B
:1011430022B4EF0212012289F0021201225BF202A1
:10115300120122408D03120122908D0312012219E4
:101163008E031201227F8E03120122C58503120111
:1011730022EF8503120122B5860312012290870311
:10118300120122B9B70212012276B802120122B16A
:10119300B802120122D9B8021201223BB90212018C
:1011A3002287B902120122E7B9021201227ABA0296
:1011B30012012279BB0212012208BD021201228B05
:1011C300BD02120122F2BD0212012209BE02120166
:1011D3002213BF0212012251BF0212012237EE0174
:1011E30012012297F1011201221FF301120122764B
:1011F300F30112012295F30112012213F4011201EA
:1012030022A3F50112012287F60112012293FA01AA
:1012130012012263FB01120122459903120122717B
:101223009903E066701008A3E066700A08A3E066FD
:10123300700408A3E06622C3E7960809E796080945
:10124300E7960809E79622C3E09608A3E09608A369
:10125300E09608A3E09622C008C3E096F50808A329
:10126300E096420808A3E096420808A3E0964508E2
:101273007001D3D00822080808EAC0E0EBC0E0867A
:10128300F0E7A4FA180986F0E7A42AFA180986F009
:10129300E7A42AFA180986F0E7A42AFA1986F0E7E0
:1012A300A4FBE5F02AFA190886F0E7A42BFBE5F086
:1012B3003AFA190886F0E7A42BFBE5F03AFA181876
:1012C3000986F0E7A4C5F02BFBE43AFA1908E7C551
:1012D300F0C6A426F6E5F03BFBE43AFA1886F0E7FD
:1012E300A4F6E5F00826F6E43B08F6E43A08F6D05F
:1012F300E0FBD0E0FA22E4CFC0E0E4CEC0E0E4CDEE
:10130300C0E0E4CCC0E075F020E626F608E633F64C
:1013130008E633F608E633F6181818EC33FCED3319
:10132300FDEE33FEEF33FFC3EC9709ED9709EE971C
:1013330009EF97191919400FFFEC97FC09ED97FD79
:1013430009EE97FE191906D5F0BFECF709EDF70979
:10135300EEF709EFF7191919D0E0FCD0E0FDD0E062
:10136300FED0E0FF226016080808C6C313C618C6DD
:1013730013C618C613C618C613C6D5E0EA227009E9
:10138300080808226016181818C6C333C608C633DF
:10139300C608C633C608C633C6D5E0EA22E627F632
:1013A3000809E637F60809E637F60809E637F622AC
:1013B300E026F608A3E036F608A3E036F608A3E035
:1013C30036F622E026F008A3E036F008A3E036F074
:1013D30008A3E036F022C3E697F60809E697F60875
:1013E30009E697F60809E697F622C3E096F008A304
:1013F300E096F008A3E096F008A3E096F022E65703
:10140300F60809E657F60809E657F60809E657F617
:1014130022E056F608A3E056F608A3E056F608A322
:10142300E056F622E056F008A3E056F008A3E05693
:10143300F008A3E056F022E0F608A3E0F608A3E0E4
:10144300F608A3E0F622E6F008A3E6F008A3E6F028
:1014530008A3E6F022E0FAA3E0FBA3E0FCA3E0FD8F
:1014630022EAF0A3EBF0A3ECF0A3EDF022E0F8A363
:10147300E0F9A3E0FAA3E0FB22E8F0A3E9F0A3EA92
:10148300F0A3EBF022CAC0E0E6F0A308DAFAD0E05A
:10149300FA22CAC0E0E0A3C582CCC582C583CDC50C
:1014A30083F0A3C582CCC582C583CDC583DAE6D0DC
:1014B300E0CA22C3E498F8E499F91214F78026C32A
:1014C300E49AFAE49BFBE920E7E91214F7E498F8BD
:1014D300E499F922C3E498F8E499F91214F7E4982B
:1014E300F8E499F9C3E49AFAE49BFB22EB20E7CFF3
:1014F300E920E7E0B90010BB0008E88AF084F8AA05
:10150300F022E4FBC8FA22EB70227B10C833C8C96F
:1015130033C9335007C39AC3DBF280069A50012ABA
:10152300DBEAC833F4C8C933F4C9FA2275F008E416
:10153300C833C8C933C933C99AC99B5004C92AC916
:101543003BD5F0ECFBC833F4C8E4C9FA22600D08BC
:10155300C6A2E713C618C613C6D5E0F322600C086B
:10156300C6C313C618C613C6D5E0F422700422609E
:101573000D18C6C333C608C633C6D5E0F4182225F2
:101583001810AF08F518400C15198008F51840021B
:101593001519D2AF2200C0D0251810AF08F5185086
:1015A3000C05198008F51850020519D2AFD0D022C6
:1015B3002518F58210AF08F518400C15198008F5A9
:1015C3001840021519D2AF851983222518F582E434
:1015D3003519F583222518F8E43519F9222518FA67
:1015E300E43519FB222518FCE43519FD22E47325A3
:1015F30018C582C0E0E51934FFC583C0E0E518C310
:10160300958224F810AF0885831985821880088590
:101613008319858218D2AFCEF0A3E520F0A3780812
:10162300E608F0A3DEFAEFF0A3E58124FAF8E60872
:10163300F0A3E608F0A3E608F0A30808E608F0A381
:10164300E608F0A315811581D0E0FED0E0F81581FE
:1016530015811581E8C0E0EEC0E0222518C582C0DF
:10166300E0E51934FFC583C0E0E518C3958224F98A
:1016730010AF0885831985821880088583198582B0
:1016830018D2AFCEF0A3E520F0A37808E608F0A3C4
:10169300DEFAEFF0A3E58124FBF8E608F0A3E60801
:1016A300F0A30808E608F0A3E608F0A31581158166
:1016B300D0E0FED0E0F815811581E8C0E0EEC0E08F
:1016C30022851983851882E0A3FEE0A3F52078081C
:1016D300E0A3F608DFFAE0A3FFE0A3C0E0E0A3C0C5
:1016E300E0E0A3C0E0E0A3C0E0E0A3C0E010AF08E7
:1016F3008582188583198008858218858319D2AF5E
:10170300D083D08202011F851983851882E0A3FE4E
:10171300E0A3F5207808E0A3F608DFFAE0A3FFE0F2
:10172300A3C0E0E0A3C0E0E0A3C0E0E0A3C0E010FA
:10173300AF088582188583198008858218858319E7
:10174300D2AFD083D08222C0D02518C582C0E0E5B5
:101753001934FFC583C0E0E518C3958224F310AFA5
:10176300088583198582188008858319858218D294
:10177300AFC8F0A3E9F0A3EAF0A3EBF0A37908E77D
:1017830009F0A3D8FAECF0A3EDF0A3EEF0A3EFF089
:10179300A3D0E0F0A3D0E0F0A3D0E0F0A3E520F0E5
:1017A300A3E5F0F0A322851983851882E0C0E0A3A6
:1017B300E0F9A3E0FAA3E0FBA37808E0F608A3DFCF
:1017C300FAE0FCA3E0FDA3E0FEA3E0FFA3E0C0E09A
:1017D300A3E0C0E0A3E0F5D0A3E0F520A3E0A3F5E8
:1017E300F010AF08858319858218800885831985D1
:1017F3008218D2AFD082D083D0E0F8D0E032740424
:101803008006740280027401C0E0F4041215B3D0A0
:10181300E0121488227404800474028000CCC0E0B7
:10182300EDC0E0E518C39CCCAD1950011D10AF0607
:101833008C188D1980068C188D19D2AF121495D07F
:10184300E0FDD0E0FC22D083D082E9C0E0E493A3A2
:10185300C386F0C5F095F0F908E493A386F0C5F0CC
:1018630095F0700BE493A3C3994005E9048002A3A8
:10187300E475F002A42582F582E5F03583F583D083
:10188300E0F9E493A3C0E0E493C0E022D083D082E4
:10189300ECC0E0EDC0E0E493A3FCE493A3FDED4CC6
:1018A300600D1218DBEC24FFFCED34FFFD80EFE448
:1018B30093A3FCE493A3FDED4C600D12191AEC24E1
:1018C300FFFCED34FFFD80EFD0E0FDD0E0FCE493BE
:1018D300A3C0E0E493C0E022C0E0C3E4939608749D
:1018E30001939618400FE493667008087401936699
:1018F3001870007019A3A3C3E49396087401939618
:1019030018A3A3400DD0E0D0E0D0E00218CBA3A3EE
:10191300A3A3A3A3D0E022C0E0C0F088F0E49366C1
:1019230070080874019366187000A8F0A3A3700BE5
:10193300D0F0D0E0D0E0D0E00218CBA3A3D0F0D019
:02194300E022A0
:1019480074F512165EEAFEEBFFEE2434F8EF34006D
:10195800F988088909EE2435F582EF3400F583E02B
:10196800F8EE2437F582EF3400F583E0F50AEC85CC
:101978000AF0A4FCAAF0850AF0EDA42AFDE82CF8E8
:10198800E43DF97A257B001214F7EA850882850977
:1019980083F0F8740758F97401B900028004C3335E
:1019A800D9FCFAE8131313541FF8EE28F8EF3400A3
:1019B800F9E8245DF582E93400F583E05A6008EE21
:1019C8002434F582EF802CEE2434F582EF3400F5D0
:1019D80083E0C0E0EE2436F582EF3400F583E0F5CD
:1019E800F0D0E084A8F0EE28F8EF3400F9E82438C5
:1019F800F582E93400F583E0F97F0402170A74F5EB
:101A080012165EEAFEEBFFEE2434F582EF3400F5A1
:101A180083E0C0E0EE2435F582EF3400F583D0E0B2
:101A2800F08E828F83A3A3A3A3A3A3A3C082C083A2
:101A38008E828F83A3A3A3A3A3E0F8A3E0F9D083A6
:101A4800D082E0C398F508A3E099F509EE247FF564
:101A580082EF3400F583E064017069EE2480F5823A
:101A6800EF3400F583E0F8A3E0F98E828F83A3A317
:101A7800A3A3A3A3A3E0FCA3E0FD8E828F83A3A36B
:101A8800A3A3A3E0FAA3E0FBC3EA9CEB9D5010C319
:101A9800EC98ED99402EC3EA98EB995027800EC335
:101AA800EA98EB994007C3EC98ED9940177CDC7DE8
:101AB80004EEFAEFFB120ABDEE247FF582EF340044
:101AC800F583E4F0EE2434F8EF3400F9E8FCE9FD9E
:101AD800EE2435F582EF3400F583E0F8EE2437F58F
:101AE80082EF3400F583E0F50AE508850AF0A4F5ED
:101AF80008AAF0850AF0E509A42AF509E82508F8F6
:101B0800E43509F97A257B001214F7EA8C828D8373
:101B1800F0F8740758F97401B900028004C333D986
:101B2800FCFAE8131313541FF8EE28F8EF3400F901
:101B3800E8245DF582E93400F583E05A6008EE2474
:101B480034F582EF802CEE2434F582EF3400F583EF
:101B5800E0C0E0EE2436F582EF3400F583E0F5F0DE
:101B6800D0E084A8F0EE28F8EF3400F9E82438F53E
:101B780082E93400F583E0F912245D021A01C0827B
:101B8800C083851882851983E0F8A3E0F9C3EA9C2D
:101B9800EB9D5010C3EC98ED99401BC3EA98EB9964
:101BA8005014800EC3EA98EB994007C3EC98ED995E
:101BB8004004790180027900D083D08222EAC39C54
:101BC800FAEB9DFB2274EF12165E9003A2E0640804
:101BD8006005E06407702A9061C8E060249003D033
:101BE800E0F4601DE0F875F003A4C8AAF02AF974BF
:101BF800D228FE740339FF8E828F83A3A3A3E070DB
:101C080003021CFD906060E0C0E0EE2468F582EFFE
:101C18003400F583D0E0F0750C45750D05750800A6
:101C2800750900E5D914F50AE5D95403F50E6017CE
:101C38007403650E605CE50A6010EE2467F582EFB8
:101C48003400F583E07003021CE2900540E0640173
:101C5800602AEE2482F582EF3400F583E060047890
:101C68000480027800850A08E508C398FA95E0FB25
:101C780012098B8A088B09EA45097005120CAF8096
:101C880074EE2482F582EF3400F583E070048A0C48
:101C98008B0DE50A6012850C82850D83F50BE5D95D
:101CA800F0A3150BE50B70F6EE2482F582EF3400F5
:101CB800F583E0604474FC250AF50A780C121805CF
:101CC800AC0AA90EEEFAEFFB120B59740212159822
:101CD800E97026AA08AB09121159793D8E828F83C3
:101CE800A3A3A3A3E0FA7B0012085FEEFAEFFB12AE
:101CF8000AD5120B6B790080747403650E605685E3
:101D08000A107511007810121805AC0CAD0DAA0850
:101D1800AB09120B357402121598EE2468F582EFA0
:101D28003400F583E064807004747F8001E0F50C72
:101D3800780C121809E50EF50C780C121809A90A86
:101D4800AC08AD099003D0E0FA7B001208237402B6
:101D580012159880139003A2E06408600BAC0CADD8
:101D68000DEEFAEFFB120BC5120CBB79017F0A02CC
:101D7800170A74F512165E74FC121582EAFEEBFF60
:101D88008908A2AFE433F509C2AF806AEE2463F88C
:101D9800EF3400F97A007B00A2AFE433F50AC2AF52
:101DA80088828983E0FCA3E0FDEC4D603A88828953
:101DB80083E0FAA3E0FB8A828B83E0FCA3E0FD8842
:101DC800828983ECF0A3EDF08A828B83E4F0A3F0A0
:101DD80088828983E0FCA3E0FDEC4D700A88828943
:101DE80083A3A3E4F0A3F0E50AA2E092AF1211598D
:101DF8009004E3E004F0EE2463F582EF3400F58309
:101E0800E0F8A3E0F9E849603DEE2463F582EF3499
:101E180000F583E02402FAA3E03400FBEA2402F58B
:101E28000AEB3400F50B780A1218058A828B83E0D6
:101E3800FCA3E0F9EEFAEFFB120AF9740212159806
:101E4800E97003021D949004E3E060639004E4E009
:101E5800F89004E3E0C398500C7402650870509041
:101E680004E5E0604A8E828F83A3A3A3A3E08518CC
:101E780082851983F0A3E4F09004E3E0F874021279
:101E880015CEE8F0A3E4F09004E3E0F89004E2E073
:101E980028F074021215CEAC82AD8385188285199C
:101EA80083AA82AB83790112082F9004E3E4F0E55A
:101EB80009A2E092AF7404121598021A01000000FA
:101EC8008521878522C622C0E0C0D0E8C0E0E9C0ED
:101ED800E0EAC0E0EBC0E0ECC0E0EDC0E0EEC0E05E
:101EE800C008C009C00AC00BC082C083C0F0A2AF3E
:101EF800E433FEC2AF759B00906182E0A2E050120D
:101F0800E591A2E0500C7591FE74016521700312F1
:101F18001BCDE0A2E55051E591A2E5504B7591DF4C
:101F28009003A2E064076005E0640870237401650B
:101F380021703579019003D0E0FA75F003A4CAA89E
:101F4800F028FB74D22AFA74033BFB121D7A80181E
:101F5800E0640D70139003C4E004F064287002E498
:101F6800F07A00E0F9120CC1906182E0A2E6400329
:101F7800022016E591A2E640030220167591BF9053
:101F880003A2E064057008120BEF120BFB8003122A
:101F98000BF5752100120C4FE99003A3F07900129C
:101FA8000C43120A337A017B009003A1E0F9120F67
:101FB80013907803E064427055900544E014F07083
:101FC8004DC2AF121FCE00782AD0E0F618D0E0F646
:101FD800E59F540770057509FF800375097FC4C024
:101FE800E07829E6F50808E65509F509740B78083C
:101FF800121560D0E02508F8906270E0A2E740F87A
:10200800E8C333906272F0906270E0D2E0F09061C1
:1020180081E0A2E35009E5E9A2E3500375E9F7A3DB
:10202800E0A2E75009E591A2E7500375917FEEA27F
:10203800E092AFD0F0D083D082D00BD00AD009D0B4
:1020480008D0E0FED0E0FDD0E0FCD0E0FBD0E0FA24
:10205800D0E0F9D0E0F8D0D0D0E032C0E0C0D0C0B5
:1020680082C083906183E0A2E05009E5BFA2E050FE
:102078000375BFFEE0A2E15009E5BFA2E150037578
:10208800BFFDE0A2E25009E5BFA2E2500375BFFB25
:10209800E0A2E35009E5BFA2E3500375BFF7E0A251
:1020A800E45009E5BFA2E4500375BFEFE0A2E55094
:1020B80009E5BFA2E5500375BFDFE0A2E65009E5D8
:1020C800BFA2E6500375BFBFD083D0828088C0E02E
:1020D800C0D0E8C0E0E9C0E0EAC0E0EBC0E0ECC096
:1020E800E0EDC0E0C0F0E5A7A2E6500FE5A1A2E64A
:1020F800500953A7BF75A1BF12213BE5A7A2E55020
:102108000CE5A1A2E5500653A7DF75A1DFE5A7A25C
:10211800E15009E5A1A2E1500375A1FDE5A7A2E2FE
:10212800500CE5A1A2E2500653A7FB75A1FBD0F025
:1021380002204C74F812165E7521019003A2E06427
:10214800067015120B898A828B83A3A3A3A3A3A36A
:10215800E0FAA3E0FB120BDDA2AFE433FED2AF90AE
:1021680003A8E0640170187A207B009003A1E0F9CD
:10217800120F977A207B009003A1E0F9120F1990B3
:102188006182E0D2E6F0900541E0602185C62280B8
:10219800169003A7E064017008E5C654F84405F5F5
:1021A800C653BEFC121EC87401652160E4EEA2E0AD
:1021B80092AF7F0102170A008E238F24858228851B
:1021C8008327851882851983E0CEA3E0CF852882EE
:1021D800852783EBC9EAC8EDCBECCA75F010C3E8D4
:1021E80033C8E933C9EA33CAEB33CBC3EA9EF526D1
:1021F800EB9FF525B35004AB25AA26EC33CCED3381
:10220800CDD5F0DAAE23AF242274ED12165E8A081B
:102218008B098C0A8D0B74131215CE780C12143A94
:102228007808790C12123A7510017511C8751200E8
:1022380075130050127808790C1213D978107908A0
:1022480012123A50168010780C79081213D97810A7
:10225800790C12123A40047901800279007F0C024D
:10226800170A74ED12165E8A088B098C0A8D0B7496
:10227800131215CE780C12143A780C790812123A07
:1022880040117808790C1213D9AA08AB09AC0AAD29
:102298000B802275100075110075120075130178F6
:1022A80010790C1213D9781079081213A0AA10AB60
:1022B80011AC12AD1380A68A828B837508FF75094D
:1022C800FF750AFF750B0078081214277F040217A0
:1022D8000A74F512165E8C828D83780812143A8A75
:1022E800828B8378081213EDEA2404F8EB3400F9A2
:1022F8008C828D83A3A3A3A3E0FCA3E0FD8882893D
:1023080083C3E09CF0A3E09DF088828983C3E094B6
:1023180020A3E0944E40268A828B837508FF7509B6
:10232800FF750AFF750BFF78081213C68A828B8324
:10233800A3A3A3A3E02420F0A3E0344EF00222BF1D
:1023480074F512165EE9FE9004F7E0FAA3E0FBEEDE
:10235800C333F8E433F974C928F582748039F583F6
:10236800E02AF508A3E03BF50978081218057A4039
:102378007B427C0F7D001221C074021215988A08D6
:102388008B098C0A8D0B74107808121368AA08AB95
:10239800097F0402170A74F112165E8A0C8B0D8CE1
:1023A8000E8D0F740F1215CEE0FAA3E0FB74111214
:1023B80015CEE0F508A3E0F5097808121805EA2417
:1023C80001F508EB3400F509E4F50AF50B780C790A
:1023D80008121279750871750902780C79081212B9
:1023E80079AA0CAB0DAC0EAD0F1221C074021215F8
:1023F800988B09EA450960047A0180027A00EC2A80
:10240800FCED3400FD74131215CEE0F8A3E0F9E8F2
:10241800FEE9FFECF8EDF97A717B021214F78808EF
:1024280089098E828F837808121449ECF8EDF97ABD
:10243800717B021214F78A088B0974057808121543
:102448006F8E828F83A3A3A3A3E508F0A3E509F009
:102458007F0802170AC082C083E9906000F0D08329
:10246800D08222C2AF0200002232C0E074F21217FA
:102478004AA2AFE433FED2AFE589A2E150031211BC
:102488002F758900C2C5EEA2E092AF7F010217A99D
:10249800C0E074F212174AA2AFE433FED2AFE58B64
:1024A800A2E0500312112F758B00C2E880D8C0E05B
:1024B800C0D0E8C0E0E9C0E0E5A8D2AFC2C7A2E753
:0F24C800A2E792AFD0E0F9D0E0F8D0D0D0E03268
:1024D800FFFFFFFFFFFFFFFFC082C083E99009FAFB
:1024E800F002270A74F71215F2E99002E1F07C195C
:1024F8007D037AFF7BFF12077B9002E274FFF0A353
:10250800F0A3E4F0A3F079051207099002E1E0F9DD
:102518001206317A937B0712093D7F010216C474B3
:10252800F41215F28A088B09EB548060309002E1AE
:10253800E0F9120EFB8A0A8B0BAE0AAF0BEE4F6066
:10254800138E828F83E064B0700312071BEEFAEFDC
:10255800FB120EE9AA08E5096480FB80047A007B77
:10256800000226D974F21215F274FC121582EAFEE2
:10257800EBFFEE4F603874021215CEEEF0A3EF12A7
:10258800293EECF0A3ED12293EAA82AB8312062B5A
:10259800E9F508707374121215CE1234F2E50A4583
:1025A8000B60658E828F8312261AEE4F70057508B0
:1025B8000280557A067B00120F4F8A0C8B0DA80CEF
:1025C800A90DE8497005750813803D88828983E460
:1025D800122624A3A3EEF0A3EF12398BE50AF0A389
:1025E800E50BF09002E71226AC9002E76017E0FCDA
:1025F800A3E08003EAFCEBFD8C828D831226AC708D
:10260800F38C828D83123417A9087404121598026A
:102618003B8DA3A3A3A3E0FEA3E0FF22F0A3F088D1
:102628008289832274F21215F2890AE975F017A4D7
:10263800FEAFF09002E6E4F09002E41226AC600AE5
:10264800120F559002E4E4F0A3F0EEFAEFFB120F3C
:102658004F8A088B09EA4509602FEEFCEFFD7900E7
:10266800120ED79002E4E508F0A3E509F07B00809C
:1026780008122696E4F0A3F00BEBC3950A40F2E5A6
:102688000A9002E6F0790080027913023B8DEB751F
:10269800F017A4F8A9F09002E4E028FAA3E0398A38
:1026A80082F583221231ADEA4B2274F41215F279C5
:1026B80000EAA2E0501B75083275098178081218E3
:1026C800057C047D007AFC7B09120703740212154D
:1026D800987F040216C4C082C0839002E7122711B3
:1026E800601C88828983A3A3E06A7003A3E06B88D7
:1026F80082898370E8A3A3A3A31231A980047A0076
:102708007B00D083D08202011F123C60E84922740A
:10271800EE1215F274FC121582EAFEEBFF851882A0
:10272800851983E4F0A3F0EE24021233FBEE2405AE
:1027380012292CEE2404F50EEF122D11E024FE6070
:102748003924FC604624FE605224FE605E24FE703C
:102758000302283124FE70030228A924FE70030214
:1027680028B824FE70030228C724FC70030228D668
:1027780024FE70030228E50229229003007417F052
:10278800A3E41229461203AF02292285188285196B
:1027980083AC82AD831207210228F285188285193D
:1027A80083AC82AD831207270228F2850C08850DB9
:1027B8000974021215CEAC82AD838508828509831F
:1027C8001231A912064F8A0C8B0DAC0CAD0DEC4DD5
:1027D8006042E4F50CF50D780C121805750C0075BF
:1027E8000D03780C121805750C01750D03780C1281
:1027F800180574081215CE12181C79161231A31276
:1028080007637408121598E9F50C700B12319F12C2
:1028180003C7800F750C0185088285098312293446
:10282800123417850C080228F574021215CEAC82F2
:10283800AD83850C82850D831231A912064F8A104B
:102848008B11AC10AD11EC4D6043850C82850D8366
:10285800A3A312181C75100075110378101218051F
:10286800751001751103781012180574081215CE29
:1028780012181C79161231A31207637408121598DE
:10288800E9F509700B12319F1203CD800F7509010C
:10289800850C82850D831229341234178509088026
:1028A8004C851882851983AC82AD8312072D803A36
:1028B800851882851983AC82AD83120733802B85F6
:1028C8001882851983AC82AD83120739801C85185C
:1028D80082851983AC82AD8312073F800D851882EB
:1028E800851983AC82AD83120745E9F508E50860D0
:1028F800298E828F83A3E06414601F850E82850F62
:1029080083E090030012293E123C5C9003011234CC
:1029180017E508A31229461203A9EEFAEFFB1206DF
:10292800C7023303F50CEF3400F50D22123C608525
:10293800188285198322F085188285198322F07CF4
:10294800007D03850A82850B831231AD2274EE1255
:1029580015F274FC1215828A0A8B0B8C0E8D0FEA05
:102968002405F508EB3400F5097C157D0079007A1B
:10297800007B03120ED7E5082402F50CE50912299D
:102988002F85188285198385821085831178101206
:102998001805850882850983A3A3A3A3122E5912BB
:1029A8001805E5082405F510E5093400F511781037
:1029B800121805850C82850D831231B312064974ED
:1029C800061215988A108B11AE10AF11E50A240271
:1029D800F50AE50B1233FEEE4F7003022B1B80172E
:1029E80074021215CE1231A988828983EAF0A3EB0A
:1029F800F0900300E004F0900300E0C39405400366
:102A0800022B1BE4F510F51178101218057510E962
:102A180075110278101218057510EA7511027810F0
:102A280012180574061215CE12181C7910EEFCEF58
:102A3800FD1231A31207637408121598E9705E85B8
:102A48000882850983A3A3A3A3A3A3A3E0F8900204
:102A5800E9E0687048122E591218057CEA7D02E5F3
:102A6800082408FAE5093400FB120ED17402121585
:102A780098E960298E828F83A3A3A3A31231A9901A
:102A88000300E0F5107402781012156F7401251018
:102A9800F58274033511F583EAF0A3EBF0740212A2
:102AA80015CE8582108583117810121805740212CC
:102AB80015CE12181C850C82850D83123C711206E6
:102AC8005574041215988A108B11AE10AF1190032B
:102AD80000E0F5107511007402781012156F74007B
:102AE8002510F874033511F988828983A31226AC5E
:102AF80070030229DFE82403F8E93400F9EE4F6097
:102B0800030229E88882898374FFF0A3F090030008
:102B1800E004F0900300E0600A12319F1203BB79D1
:102B280000800B85088285098312340E790A0233E6
:102B38000374EA1215F274FE1215828C128D13EAD0
:102B48002405F50CEB123C7B12261E75080075094E
:102B580000EA2402F510EB3400F511851882851976
:102B68008385820A85830B780A121805850C82856D
:102B78000D83A3A3A3A3122D1B121805E50C24058E
:102B8800F50AE50D1233FE780A121805850C8285C0
:102B98000D83123C6F12064974061215988A0A8B27
:102BA8000BEA450B7003022CCCEA2404F50EEB1259
:102BB8002D1112261E8A828B83A3A3A3E0F9851008
:102BC800828511831231A9120637E9F509600302DB
:102BD8002CCCE4F514F51578141218057514E9755C
:102BE800150278141218057514EA7515027814126E
:102BF800180574061215CE12181C7913AC0AAD0B01
:102C08008510828511831231A91207637408121581
:102C180098E9F5096003022CCC9002E9E0F8E50890
:102C28007009E02402900301F08017900301E0FC92
:102C3800E82402FAE43400FBEA6C7001EB6003025A
:102C48002CD0850882AA82122E509414122E485035
:102C580073850E82850F83E0C0E074022A122D0866
:102C6800D0E0F00508850E82850F83A3E0C0E085DB
:102C7800080A7402250A122D08D0E0F0050890020F
:102C8800E9122D1B1218057CEA7D0285080A7402D8
:102C9800250AFA74033400FB120EBF740212159849
:102CA8009002E9E02508F50874FF6E700374FF6F61
:102CB8006012EE24010EEF3400FFE508C3941450AF
:102CC80003022B63E5086013123094851082851186
:102CD800831231A91203C179008014E509700375C4
:102CE800090A851282851383EEF0A3EFF0A909740F
:102CF800021215987F0E0216C485080C7402250C62
:102D0800F58274033400F583223400F50F850E82B2
:102D1800F5832212399E2274EE1215F274FE1215F2
:102D2800828C0E8D0FEA2405F50CEB12292F750BFA
:102D380000900300E4F0F50AEA2402F508EB3400F9
:102D4800F5098049900300E0FA9002E9E0F8122EB4
:102D5800509417122E48400D900300E0F87416C3E3
:102D6800989002E9F0122E591218057CEA7D027437
:102D7800012AFA74033400FB120EBF74021215986C
:102D88009002E9E0F8900300E028F0050AE50C2439
:102D980016F582E50D122D0CE0F8E50AC3984003FC
:102DA800022E31900300E0C39416507DE50AC33328
:102DB800F8E433F9E50C28FEE50D39FF851882851E
:102DC8001983AC82AD838E828F831231A912064F8C
:102DD8008A108B11AC10AD11EC4D7005750B01808C
:102DE80043E4F510F51178101218057510E97511FE
:102DF8000278101218057510EA7511027810121869
:102E08000574061215CE12181C79168508828509D4
:102E1800831231A91207637408121598E9F50B702B
:102E280003022D4C12340A80107C007D0385088231
:102E38008509831231A91203D3A90B740202330541
:102E4800E99400C365D03322EA28F8E43400F9E8AD
:102E580022E0F51075110078102274EA1215F27448
:102E6800FC1215828A0C8B0D8C128D13EA2405F541
:102E78000AEB1233FE750800750900E50A2402F50D
:102E880010E50B3400F51174021215CE85820E85FB
:102E9800830F780E121805850A82850B83A3A3A3D6
:102EA800A312394A121805E50A2405F50EE50B3474
:102EB80000F50F780E1218058510828511831234DB
:102EC800041231A312064974061215988A0E8B0F44
:102ED800AE0EAF0FE50C2402F50EE50D3400F50F2C
:102EE80080408882898374FFF00508122D0174FFE1
:102EF800F005089002E9E0F50C750D00780C121841
:102F0800057CEA7D0285080C7402250CFA740334EA
:102F180000FB120EBF74021215989002E9E0250812
:102F2800F508EE4F60718E828F83A3A3A3E0F98525
:102F38000E82850F831231A9120637E9F509EE24AE
:102F48000412292CE97044E4F514F51578141218C4
:102F5800057514E975150278141218057514EA75C3
:102F68001502781412180574081215CE12181C7957
:102F780011EEFCEFFD850E82850F831231A9120731
:102F8800637408121598E9F5096027850C82850D88
:102F98008312308A123417E5087003023070123039
:102FA80094850E82850F831231A91203D979000204
:102FB8003085850882AA82EA9002E97009E0240433
:102FC800900301F08022E0F8900301E0F514E82472
:102FD80004FCE43400FDEC65147001ED70C0122EA1
:102FE800509412122E4850B6850C82850D83E0C08D
:102FF800E074022A122D08D0E0F00508850C8285BD
:103008000D83A3E0C0E0122D01D0E01230A6858226
:103018000C85830D780C12180574041215CE12183D
:103028001C851082851183123C7112065574041296
:1030380015988A0C8B0DAE0CAF0D85080C74022503
:103048000CF874033400F9EE4F7003022EEA851869
:1030580082851983E0888289831230A6A3E0C0E0C4
:10306800122D01D0E0022EF8E509700375090A85D2
:103078000A82850B8312308A123417A90974040254
:103088002CF9123C6085128285138322900301E09B
:10309800F5F0E50884900300F07C007D0322F0053C
:1030A800088518828519832274EC1215F274FE12B1
:1030B80015828A088B098C0E8D0FEA2405FEEB34E5
:1030C80000FF851882851983AC82AD838E828F8339
:1030D8001231A912064F8A0A8B0BEE241812292CDA
:1030E800EA450B700302317A1232EC5032851882AD
:1030F8008519831231A91207578A108B11EA4511D5
:10310800606B7912AC0AAD0B850882850983123190
:10311800A98510828511831215F0E9F50A7058E423
:10312800F50AF50B780A1218058E828F83A3A3E09F
:10313800F50A780A121805EE24031233FB780A12EE
:1031480018058E828F831231B3120769740612151F
:1031580098E9F50A7021850C82850D83E0701F853A
:1031680008828509831231A91203DF8011750A0EBE
:103178008009750A018004E50A600312340A850C87
:1031880082850D83E0600479008002A90A74021226
:1031980015987F0C0216C47C007D03850A82850B76
:1031A800831231AD22E0FAA3E0FB22E0FCA3E0FDAC
:1031B8008508828509831231AD2274EE1215F274E6
:1031C800FE1215828A088B098C0C8D0DEA2405FEE7
:1031D800EB3400FF750E00851882851983AC82AD2B
:1031E800838E828F831231A912064F8A0A8B0BEACB
:1031F800450B70030232D81232EC5035851882859F
:1032080019831231A91207578A0E8B0FEA450F60EE
:103218005E7912AC0AAD0B8508828509831231A943
:10322800850E82850F831215F0E9F50E60030232D0
:10323800DB8508828509831234F2AA0AFB12074B40
:103248008A108B11A810A911E849701E7AFF7BFF1C
:1032580012074B8A108B11A810A911E849606C88D5
:10326800828983E50AF0A3E50BF0750A00800775EB
:103278000E0E805F050A9002E6E0FAE50AC39A504E
:103288004AE50A75F017A4FAABF088828983A3A3EC
:10329800E02AFAA3E03BFB8A828B83123404EC4DCC
:1032A80070D2750A17750B00780A121805EEFCEF34
:1032B800FD120EBF7402121598EEFCEFFD85088210
:1032C8008509831231A91203E58014750E0980035C
:1032D800750E01123C58850C82850D83123417A98E
:1032E8000E022E43E5082402F508E5093400F50925
:1032F8008A828B83A3A3A3E0A2E522740412159803
:103308007F0A0216C474EC1215F28C108D11EA248F
:1033180005F50CEB12292F750F00EA2402F50AEBCC
:103328001233FE850A82F5831231A912074B8A08E7
:103338008B09EA450970030233F0750E0080718528
:103348000C82850D83E06401704F8E828F83A3A366
:1033580012181C8E828F83A3A3A3A3E0F512751302
:10336800007812121805EE2405F512EF3400F51353
:1033780078121218051231A31207697406121598EB
:10338800E9F50F6014850C82850D83E4F0123C5832
:103398008510828511831234177C177D007900EE21
:1033A800FAEFFB120ED78E828F83E4F0A3F0050E9E
:1033B8009002E6E0F8E50EC398501EE50E75F0178A
:1033C800A4F8A9F0850882850983A3A3123C851275
:1033D8003404EC4D60030233478508828509837401
:1033E800FFF0A3F0E50F70061231A31203EBA90F4B
:1033F80002319AF50AEF3400F50B22A3E0FCA3E0B2
:10340800FD228E828F83123C60850E82850F83E8B1
:10341800F0A3E9F022C082C0839002E2E06A700360
:10342800A3E06B70067AE27B0280047A007B0002DC
:10343800270AC082C08378008C828D83E06A70037B
:10344800A3E06B7010E875F003A4F8A9F0EC28FA73
:10345800ED39FB8015088C828D83A3A3A3E06A70E5
:1034680003A3E06B60DF7A007B0002270A74F61280
:1034780015F21207158A828B83E582458370067AD6
:10348800007B008007A3A3A3A31231A9023B097400
:10349800F21215F2E9FE740E1215CE1234F27410FF
:1034A8001215CE12396A8C828D83E064027036A3BD
:1034B800123C66F50CA3E0F9A80C7402687003745A
:1034C80029697021750C02750D00780C12180578A1
:1034D80008121805780A121805EEF912078D7406F5
:1034E80012159880027901023B8DE0F50AA3E0F5F8
:1034F8000B2274E81215F274FB121582E985188202
:10350800851983F08A168B17ECFEEDFF7510007491
:103518001D1215CE123C5C741D1215CE1234178E76
:10352800828F83A3A3A3E0A2E4502D741D1215CEAD
:103538001231A91207578A828B83E582458370036B
:1035480002393B790AEEFCEFFDAA16AB171215F00B
:10355800E9F510600302393E741F1215CE12396A5C
:1035680074211215CE1234F274231215CEE0F50E22
:10357800A3E0F50F8E828F83E0640260030238E9CE
:10358800A3123C5C850882850983A3858212858302
:1035980013EE240612292C88828983E0FAA3E0F925
:1035A800EA2400F514E439F515781412188F01008F
:1035B80000280128DE3507000228A3360328103624
:1035C8000029DA37012905380229A6370329DA370D
:1035D80004298438E938E50E450F60030238E4858C
:1035E8000C82850D8312395FFAE9FB8A828B83E0AE
:1035F800850A82850B831239951218058A828B8376
:10360800A3E0FCA3E002386EE50E450F6003023824
:10361800E4850A82850B837401F012397285088269
:10362800850983F07C007D008E828F83A3A3A3A3EA
:10363800E02401FAA3E03400FB12064FEA4B604194
:103648008A828B83E02402F8850A82850B83E0282E
:10365800F0EA2404F8EB3400F988828983E08512C3
:10366800828513831239A71239951218058A828B1D
:1036780083123403E5082403FAE5093400FB023811
:1036880073850A82850B83E02404F07C047D00792D
:1036980000AA12AB13120ED702393EE50E450F6091
:1036A800030238E4123972FEA3E0FF850A82850B13
:1036B800837404F0EE850882850983F0EF85128211
:1036C800851383F074031215CEAC82AD83EEFAEF46
:1036D800FB12064F8A0C8B0DEA450D7003023787E3
:1036E8008A828B83A3A312261A74011215CE8582AF
:1036F8000E85830F780E12180574051215CE121850
:103708001C7CFF7DFF12065574041215988B0FEA76
:10371800450F7033850C82850D8312394A121805BE
:10372800850C82850D83A312181C7C027D007AA764
:103738007B811204817404121598E9700A740112CD
:1037480015CE74FFF0A3F08E828F83E06402703987
:10375800750C02750D00780C1218058E828F831275
:103768003403E5082404FAE5093400FB120EBF749B
:1037780002121598850A82850B83E0240280097459
:10378800011215CEEEF0A3EFF074011215CE123926
:103798005BF074011215CEA31239530238DEE50E20
:1037A800450F60030238E4850C82850D83123404CA
:1037B800AA16AB17120781850A82850B837402F05B
:1037C800EA850882850983F0851282851383EB02D6
:1037D80038E1E50E450F60030238E4123972F8A3A8
:1037E800E0F9850A82850B837402F0E885088285F2
:1037F8000983F0E98512828513830238E1850C82FA
:10380800850D831231A9120EB9EAFC8C82A882C3F5
:10381800950EE4950F405FE8650E7002E50F7004A1
:103828007C008022851882851983E0FAE50E2AFA41
:10383800E50F3400FBC3EA98EB94005003E08005E1
:10384800E50ECCC39CFCEC850A82850B83F08C0AC0
:10385800750B00780A121805850C82850D83E02502
:103868000EFCA3E0350FFDAA08AB09120EBF7402C7
:1038780012159802393E75100702393EE50E450FBC
:10388800705A850C82850D83123C5C850A82850BF3
:10389800837407122626123953122626A3E08512AE
:1038A80082851383F0E82402FAE93400FB8A828BCC
:1038B8008312395312398212395BA312398B1239A8
:1038C80064F0E82405F8E93400F98882898312391C
:1038D80064A31239A7A3A3A3A3F0805A75100B8081
:1038E80055741D1215CE1231A91207158A828B83C1
:1038F800E5824583603D123C5C880C890DE8450DE6
:103908006031780E121805780A121805780812180E
:103918000574061215CEE0F9EEFCEFFDAA16AB17FA
:10392800850C82850D831215F07406121598E9F539
:1039380010800375100EA91074051215987F1002D7
:1039480016C4E0F50E750F00780E22E08508828512
:103958000983221239B122123C60E8221239B1A33C
:10396800A322E0F508A3E0F50922850C82850D83E2
:10397800E0F8A3E0F5838882E022A3A3F08A828B93
:1039880083A322F088828983A3A3A3A322F08A8237
:103998008B8312399E22E0F50A750B00780A22F013
:1039A80088828983A31239B122E085088285098338
:1039B800A3A32274EE1215F274FE1215828A0A8BE2
:1039C8000BECFAEDFB74141215CEE0F510A3E0F53C
:1039D8001174161215CEE0FE74181215CEE0F50E0D
:1039E800A3E0F50F851882851983AC82AD83120692
:1039F8004F8A0C8B0DEA450D60498518828519831D
:103A08001231A91207158A828B83E5824583602FBC
:103A1800A3A312396AE50845096024780E1218052F
:103A28007810121805EEF9AC0CAD0DAA0AAB0B858F
:103A380008828509831215F0740412159880067996
:103A48000E80027901022E4374F61215F274FE12EA
:103A58001582740C1215CE12395F85188285198368
:103A6800F074011215CEE9F0E4F508F509780812AA
:103A78001805750802780812180574041215CE8501
:103A880082088583097808121805120769740612D6
:103A980015987402121598806874F71215F2EAFEE8
:103AA800EBFF89087C197D03120781EA5402600B39
:103AB800A908EEFAEFFB12064380027901022522DB
:103AC80074F61215F274FF6A700374FF6B70168C2B
:103AD800828D83123B0EE4F08C828D83A3A3A31204
:103AE8003B0EA380181207518A088B09A808A90958
:103AF800E849600D8882898374FF122624A3A3E411
:103B0800F07F020216C474FFF0A3F08C828D83A3A9
:103B1800A32274F61215F21207518A828B83E5826A
:103B280045836006A3A3E0FA80027A007B0080D177
:103B380074F21215F28A088B09ECFEEDFF740E126E
:103B480015CEE0F50A1207518A0C8B0DA80CA90DA9
:103B5800E8497026EEFCEFFD7AFF7BFF1207518AD9
:103B68000C8B0DA80CA90DE84970047911801688F2
:103B7800828983E508F0A3E509F088828983A3A3F5
:103B8800E50AF079007F060216C474EE1215F2EA0F
:103B9800FEEBFF8C088D09890C74141215CE123CAB
:103BA8005C74161215CE1231A9750D00E849600330
:103BB800023C507402650C6003023C4B74121215EF
:103BC800CE123C66FCA3E0F9EC2400F50EE439F5CE
:103BD8000FEAF4F8EBF4F9EC58F8E50F59F9E8496D
:103BE800705CE5082406F8ED3400F9880A890B882A
:103BF80082F583123C711207818A108B11E50E65DC
:103C0800107004E50F65116042780E121805850AD8
:103C180082850B83123C711207877402121598E98A
:103C2800F50D7027780E121805850882850983A37B
:103C3800A3123C6F1207997402121598800D750D26
:103C4800808008750D0D8003750D0BA90D023308D2
:103C58008E828F83123C6022E0F8A3E0F922123CA6
:103C68006088828983E022A3A3E0FCA3E0FDEEFA4A
:103C7800EFFB223400F50D850C82F58322E028FE47
:103C8800A3E039FF8E828F832274F21215F2EAFEC6
:103C9800EBFF890B7401650B600E7402650B706A8B
:103CA800790112095BE97062EEFAEFFB12074B8AA1
:103CB800088B09EA45096047750A00800B7C177D67
:103CC800007900120ED7050A9002E6E0F8E50AC36B
:103CD800985021E50A75F017A4F8A9F0850882859F
:103CE8000983A3A3E028FAA3E039FB8A828B831215
:103CF800271170C985088285098374FFF0A3F07CB9
:103D0800197D03EEFAEFFB12077B023B8D74F2126A
:103D180015F28A088B09ECFEEDFF740E1215CE120F
:103D280034F29009FAE0F4603D7A097B00120EE360
:103D3800EA4B60328A828B8374B1F0A3E41239842F
:103D4800A3123982A3E508F0A3E509123D71EEF04C
:103D5800A3EF123D71A3A3E50AF0A3E50BF09009C8
:103D6800FAE0F9120EEF023B8DF08A828B83A3A34F
:103D7800A3A3A322C082C0839061907404F0A374AB
:103D880048F0A37402F09061807440F09061BC74B4
:103D980003F09061877419F0906265741BF090626B
:103DA80049E0C3941390619C400A7409F0906066DE
:103DB80074018007740DF0906066E4F090619A7465
:103DC80033F0A37455F09061A0743AF090053FE089
:103DD80064017009C2919003A6746780059003A6D8
:103DE8007461F09024DEE493906186F09024D8E426
:103DF80093F46027E493540FF8906185E0686012AB
:103E0800E5C654804449F5C6E59E547F644970F878
:103E1800E8F053C680E59E547F70FA7905120CA32A
:103E2800023FAAC082C083E5A8F853A87E906181AA
:103E3800E4F0A3F0A3F0C2BA539AFEC289759B00BE
:103E4800C2C275E90075910075BF0075A91175B9F1
:103E580005906181F0A374C0F0A3E4F0D2BA439A4C
:103E68000174805842A8023FAAC082C08374F81225
:103E780015829003A4E0F8A3E0F9E8497003023F33
:103E88009F9003A4E054406023790885188285191F
:103E980083AA82AB83120B17851882851983AA829D
:103EA800AB8312080B9003A4E054BFF0E054806089
:103EB80010790C7A657B05120B179003A4E0547FE8
:103EC800F0E0A2E0503190619A7433F0A37455F099
:103ED8009061A0743AF090053FE064017009C291C6
:103EE8009003A6746780059003A67461F012081108
:103EF8009003A4E054FEF0E05402603190619A749B
:103F08003FF0A3745AF09061A0747FF090053FE0F1
:103F180064017009D2919003A6747180059003A67C
:103F2800746AF01208119003A4E054FDF0E0540400
:103F380060139024DCE493906186F01208179003D4
:103F4800A4E054FBF0E0540860139024DDE493905F
:103F58006186F01208179003A4E054F7F0E05410BB
:103F680060139024DEE493906186F01208179003A2
:103F7800A4E054EFF0E05420600A1208179003A45C
:103F8800E054DFF0A3E05401600D120A3F12081D4F
:103F98009003A5E054FEF07408121598023FAAF0A9
:103FA800A3F0D083D08202011F74EC1215F274F4CE
:103FB800121582851882851983AC82AD8375838139
:103FC80075827174041214959024DC93F4600302D2
:103FD800413D907808E0C39402500302411D7404E7
:103FE8001215CEAC82AD8375838175822A7408124E
:103FF8001495851882851983858212858313740424
:104008001215CEAC82AD83750EFF750FFF7FFF7E54
:1040180000750C48750D78801574086E70030240A1
:10402800B174096E70030240B1740A6E607B850C2E
:1040380082850D83780812143A8C828D83A909E54C
:104048000AC9F8881074187808121368E51045082A
:10405800F8C3E098A3E099850C82850D837808124F
:10406800143A40188C828D8374187808121368E506
:10407800104508F8E0C398F8A3E0801C7418780885
:10408800121368E5104508FAE9FB8C828D83E0F885
:10409800A3E0F9EAC398F8EB99F9C3E8950EE99516
:1040A8000F5006880E890FEEFF0EE50C2404F50C60
:1040B800E50D3400F50DEEC394135003024021744E
:1040C800FF650E700474FF650F60238F0874027813
:1040D8000812156F74482508F58274783509F58338
:1040E800780812143A851282851383E508F0EC24C7
:1040F80002FCED3400FD851282851383A3858212AC
:10410800858313740C1215CEE5826C7003E5836DFC
:10411800600302400F750801750900780812180538
:1041280074021215CEAC82AD837A377B091210F96E
:104138007402121598740C1215987F0C0216C4C0DC
:1041480082C0839061AE7468F0A3746AF09062458F
:1041580074FBF0A304F053F4FD43FE0290053F7492
:1041680001F09061A0E0643A90619A70237433F092
:10417800A37455F09061A0743AF074016401700959
:10418800C2919003A6746780289003A67461802169
:10419800743FF0A3745AF09061A0747FF0740164C6
:1041A800017009D2919003A6747180059003A674DA
:1041B8006A023FA97F080216C4C082C0839004F136
:1041C800E06401700A9004F6E06004790C800279DA
:1041D80000023FAAC082C08375E1F19004F4E06058
:1041E8005B14600914605F14605714705E120A5102
:1041F8009004EAE0F97AEB7B04120C257AD67BBEB0
:104208007C897D8E120C5B7A557B557C557D00121E
:104218000C319004F5E0F9120C3D7901120C9790DD
:1042280004E8E0F8A3E0C82416F582E83400F58332
:104238007469F0A3740AF07900023FAA120A578041
:10424800AF120A5D80AA120A6380A5791280EA7407
:10425800F01215F275D90D9004D5E0A2E0E43313FD
:1042680013F89004EAE0C4333354C0484401F5D944
:1042780078E8790488828983A3A3A3E0F5D98882A2
:104288008983A3A882A983E864EE7003E9640470B3
:10429800E378D5790488828983A3E0F5D98882896F
:1042A80083A3A882A983E864DB7003E9640470E54A
:1042B80075E1959004D5E0F97AD67B04120C2B9021
:1042C8000A1C7403F0A3740AF0A3745FF0A3740BC0
:1042D800F0A3745FF0A3740BF0A3745FF0A3740BE6
:1042E800F0A37409F0A3740AF0A3745FF0A3740B2D
:1042F800F0A37421F0A3740AF0900A2A745FF0A363
:10430800740BF0A3745FF0A3740BF0A3745FF0A3B5
:10431800740BF0A3745FF0A3740BF0A3745FF0A3A5
:10432800740BF0A3745FF0A3740BF09004F4E064D2
:10433800019004E87012E0F8A3E0F5838882A3A353
:104348007508007509088010E0F8A3E0F5838882F5
:10435800A3A3750804750900750A00750B00780891
:104368001213B3750CFF750DFF750EFF750F0078EE
:1043780008790C1214019004E8E0F8A3E0C8240EB0
:10438800F582E83400F58378081214499004E8E0CF
:10439800F8A3E0C82414F582E83400F5837413F018
:1043A8009003A27402F00241BC74F71215F2900453
:1043B800FAE02407F5D99004EAE0C4333354C0F591
:1043C800D978E8790488828983A3A3A3E0F5D988FA
:1043D800828983A3A882A983E864EE7003E9640450
:1043E80070E39004FAE0601F78E87904FAE824138F
:1043F800F582E93400F583E0F5D988828983A3A89A
:1044080082A9831AEA70E690051AE02407F5D99084
:1044180004EAE0C4333354C04404F5D978E8790495
:1044280088828983A3A3A3E0F5D988828983A3A876
:1044380082A983E864EE7003E9640470E390051AC6
:10444800E0601F78E87904FAE82433F582E934005B
:10445800F583E0F5D988828983A3A882A9831AEA1B
:1044680070E675E195900A1C740FF0A3740AF0A326
:10447800745FF0A3740BF0A3745FF0A3740BF0A344
:10448800745FF0A3740BF0A37409F0A3740AF0A38B
:10449800745FF0A3740BF0A37421F0A3740AF09076
:1044A8000A2A745FF0A3740BF0A3745FF0A3740B73
:1044B800F0A3745FF0A3740BF0A3745FF0A3740B04
:1044C800F0A3745FF0A3740BF0A3745FF0A3740BF4
:1044D800F09004E8E0F8A3E0C8240EF582E8340080
:1044E800F58374FFF0A3F0A3F0A3F09004E8E0F8DC
:1044F800A3E0C82414F582E83400F5837412F09020
:1045080003A27401F0FF0216C474F71215F29004A6
:10451800FAE02407F5D99004EAE0C4333354C044E0
:1045280002F5D978E8790488828983A3A3A3E0F502
:10453800D988828983A3A882A983E864EE7003E9F5
:10454800640470E39004FAE0601F78E87904FAE8FC
:104558002413F582E93400F583E0F5D9888289834C
:10456800A3A882A9831AEA70E675E195900A1C74DB
:104578001BF0A3740AF0A3741BF0A3740AF0A374CD
:104588001BF0A3740AF0A3741BF0A3740AF0A374BD
:104598001BF0A3740AF0A3741BF0A3740AF0A374AD
:1045A80021F0A3740AF0900A2A745FF0A3740BF048
:1045B800A3745FF0A3740BF0A3745FF0A3740BF003
:1045C800A3745FF0A3740BF0A3745FF0A3740BF0F3
:1045D800A3745FF0A3740BF09004E8E0F8A3E0C8BC
:1045E800240EF582E83400F58374FFF0A3F0A3F0FD
:1045F800A3F09004E8E0F8A3E0C82414F582E834B6
:1046080000F5837414F09003A27404F00248D8747F
:10461800F71215F29004FAE02407F5D99004EAE0BD
:10462800C4333354C04406F5D978E87904888289BC
:1046380083A3A3A3E0F5D988828983A3A882A98349
:10464800E864EE7003E9640470E39004FAE0601F24
:1046580078E87904FAE82413F582E93400F583E070
:10466800F5D988828983A3A882A9831AEA70E6907B
:10467800051AE02407F5D99004EAE0C4333354C09E
:104688004404F5D978E8790488828983A3A3A3E050
:10469800F5D988828983A3A882A983E864EE700388
:1046A800E9640470E390051AE0601F78E87904FA79
:1046B800E82433F582E93400F583E0F5D988828966
:1046C80083A3A882A9831AEA70E675E195900A1C6B
:1046D8007415F0A3740AF0A3745FF0A3740BF0A32D
:1046E800745FF0A3740BF0A3745FF0A3740BF0A3D2
:1046F800745FF0A3740BF0A3745FF0A3740BF0A3C2
:104708007421F0A3740AF0900A2A745FF0A3740B62
:10471800F0A3745FF0A3740BF0A3745FF0A3740BA1
:10472800F0A3745FF0A3740BF0A3745FF0A3740B91
:10473800F0A3745FF0A3740BF09004E8E0F8A3E032
:10474800C8240EF582E83400F58374FFF0A3F0A3C3
:10475800F0A3F09004E8E0F8A3E0C82414F582E898
:104768003400F5837415F09003A27403F00248D85E
:10477800C082C0839004E8E0F8A3E0C82406F5826C
:10478800E83400F583E4023FA774F71215F29003AA
:10479800D0E0F875F003A4C8AAF02AF974D228F872
:1047A800740339F9E82405FAE93400FB8A828B831B
:1047B800E0FCA3E0FD88828983A3A3A3A3A3A3A30A
:1047C800A3A3ECF0A3EDF088828983A3A3A3A3A3FA
:1047D800A3A3E024FFF8A3E034FFF98A828B83E8DF
:1047E800F0A3E9F00248D874F71215F2EAFEEBFFDD
:1047F8009061D0E060030248CC75D90E75D9037575
:10480800D904EE248BF582EF3400F583E582240881
:10481800F8E5833400F9E0F5D9A3E865827003E987
:10482800658370F2EE2483F582EF3400F583E58228
:104838002404F8E5833400F9E0F5D9A3E86582702B
:1048480003E9658370F275E1957908EE248BFAEF38
:104858003400FB120B0B7904EE2483FAEF3400FBCF
:10486800120B0B7C00EEF8EFF9ECFAC3E49AFA9518
:10487800E0FBEE2AFAEF3BFBEA248AF582EB3400F0
:10488800F583E0C0E0E824AAF582E93400F583D096
:10489800E0F00C88828983A3A882A983ECC39408DA
:1048A80040C7EE246FF582EF3400F583E0F8A3E00B
:1048B800F9EE2471F582EF3400F583E8F0A3E9F00E
:1048C8007901800279008008F0EEA2E092AF7900C9
:1048D8007F010216C4C082C08375D90275D90375D9
:1048E800D90575E195EA246FF582EB3400F583E08C
:1048F800F8A3E0F9EA2471F582EB3400F583E8F0D7
:10490800A3E9F07901023FAA74F61215F2EAFEEB68
:10491800FF9005457406F075084575090578081275
:1049280018057C017903120B53740212159875D976
:104938000675D903758245758305E0F5D9A3E58227
:10494800644A7004E583640570F075E1959003A2EC
:10495800E06408701EEE246FF582EF3400F583E002
:10496800F8A3E0F9EE2471F582EF3400F583E8F05E
:10497800A3E9F07901024BDE74F61215F2EAFEEBB8
:10498800FF9061D0E070667801900545740BF09057
:1049980003A2E064077019750845750905780812BF
:1049A80018057C017903120B5374021215987805C7
:1049B800740128F5D975D903758245758305E8FA18
:1049C800E0F5D9A31AEA70F875E195EE246FF5823F
:1049D800EF3400F583E0F8A3E0F9EE2471F582EFF7
:1049E8003400F583E8F0A3E9F07901800279000248
:1049F8004BDE74F71215F2EAFEEBFF75D90375D991
:104A08000375D90DEE24DDF582EF3400F583E0F56A
:104A1800D975E1957904120C61EE246FF582EF34B3
:104A280000F583E0F8A3E0F9EE2471F582EF340095
:104A3800F583E8F0A3E9F079010248D874F6121575
:104A4800F2EAFEEBFF9061D0E0F87480C398FAEECA
:104A58002482F582EF3400F583E060047804800254
:104A68007800E8240BF8EAC3985003024B097D0943
:104A7800900545EDF0EE24E2F8EF3400F97A467B34
:104A8800057C0888828983E08A828B83F088828902
:104A980083A3A882A9838A828B83A3AA82AB831C5F
:104AA800EC70E0EE2482F582EF3400F583E0601DBF
:104AB80075084575090578081218057C097903EE0B
:104AC800FAEFFB120B5374021215987D0D74012D29
:104AD800F5D975D9037582457583058D08E0F5D933
:104AE800A31508E50870F675E1957904120C61EED6
:104AF800241DF582EF3400F583E4F0A3F0790180FA
:104B0800027900024BDE74F61215F2EAFEEBFF9012
:104B180061D0E0F87480C398FAEE2482F582EF340D
:104B280000F583E06004780480027800E82408F83F
:104B3800EAC3985003024BDC7806900545740CF0E4
:104B48009003BFE0900546F09003C0E0900547F061
:104B58009003C1E0900548F09003C2E0900549F049
:104B68009003C3E090054AF0EE2482F582EF34000A
:104B7800F583E0601B750845750905780812180566
:104B88007C067903EEFA120B537402121598780A10
:104B9800740128F5D975D903758245758305880888
:104BA800E0F5D9A31508E50870F675E195790412C2
:104BB8000C61EE246FF582EF3400F583E0F8A3E092
:104BC800F9EE2471F582EF3400F583E8F0A3E9F0FB
:104BD8007901800279007F020216C474F61215F278
:104BE800EAFEEBFF9061D0E0F87480C398FAEE24F7
:104BF80082F582EF3400F583E0600478048002785F
:104C080000E82404F8EAC3985003024CBD780290E7
:104C18000545E8F0EE24F4F582EF3400F583E090E2
:104C28000546F0EE2482F582EF3400F583E0601B40
:104C380075084575090578081218057C027903EE90
:104C4800FA120B5374021215987806740128F5D9D4
:104C580075D9037582457583058808E0F5D9A315CC
:104C680008E50870F675E195EE2473F582EF3400D7
:104C7800F583E4F0EE247FF582EF3400F583E4F069
:104C8800EE241DF582EF3400F583E4F0A3F07904F7
:104C9800120C61EE240DF582EF3400F583E0F8A3E1
:104CA800E0F9EE2471F582EF3400F583E8F0A3E92A
:104CB800F0790180027900024BDE74F61215F29049
:104CC80061D0E0F87480C398FCEA2482F582EB3462
:104CD80000F583E06004780480027800E82404F892
:104CE800ECC398405B79029005457407F0EA24F517
:104CF800F582EB3400F583E0900546F0EA2482F56E
:104D080082EB3400F583E06018750845750905786D
:104D1800081218057C0209120B53740212159879AF
:104D280006740129F5D975D903758245758305E996
:104D3800F8E0F5D9A318E870F875E19579018002D3
:104D48007900024BDE74F51215F2E9FCA2AFE433E8
:104D5800F50AC2AF7D0080010DEA246EF582EB34BE
:104D680000F583E0F8EDC398501A8D08EA2508F895
:104D7800EB3400F9E8246AF582E93400F583E06C45
:104D880070D68024EA246EF8EB3400F9E0FEEA2EAF
:104D9800FAEB3400FBEA246AF582EB3400F583EC85
:104DA800F088828983E004F0E50AA2E092AF7F03ED
:104DB8000216C474F61215F2A2AFE433FDC2AFEACC
:104DC800246EF582EB3400F583E014F07C00603645
:104DD8008C08EA2508F8EB3400F9E8246BF582E939
:104DE8003400F583E0C0E0E8246AF582E93400F590
:104DF80083D0E0F00CEA246EF582EB3400F583E012
:104E0800F8ECC39840CAEA246DF582EB3400F583C8
:104E180074FFF0EA2469F582EB3400F583E4F0EDE1
:104E2800A2E092AF024BDEC082C083E5A8F8C2AF11
:104E3800EA246AF582EB3400F583E9F0EA2469F59F
:104E480082EB3400F583E4F0E8A2E7A2E792AF0230
:104E58003FAA74F31215F2EAFEEBFFECFAEDFB8AB7
:104E6800828B83A3A3A3A3E0541FF0EE2436F5821C
:104E7800EF3400F583E4F0F50AEEFCEFFD8A828B4F
:104E880083E0C0E0EC245DF582ED3400F583D0E0EA
:104E9800F0750B00E50A33333354F8F50C8A828B2E
:104EA80083E0F508750900E50B7808121550E50848
:104EB800A2E0502FEE2436F8EF3400F98882898377
:104EC800E0F508EE2508F508EF3400F509E50824B3
:104ED80038F582E5093400F583E50CF0888289838A
:104EE800E004F0050B050CE50BC3940840AF050A78
:104EF8008A828B83A3AA82AB838C828D83A3AC82A4
:104F0800AD83E50AC394055003024E857F0502165A
:104F1800C474F71215F29003CEE0640170030250D6
:104F2800777A009003D4E060030250777401F0A30D
:104F3800E4F0A3F090043404F0900439F09003D71F
:104F4800E4F0A3F0A3F0A3F09003E104F0900407C9
:104F5800E4F09003EAF0A3F0A3F0A3F0A3F0A3F029
:104F6800A3F0900451F0900445F090043A7480F056
:104F7800A3E4F0900440F09004BCF0A3F0A3F0A3E5
:104F8800F0A3F0A3F0A3F0A3F09004C5F0900454AC
:104F9800F09004A4F0A3F0A3F0A3F0A3F0A3F0A36F
:104FA800F0A3F0A3F0A3F09004B0F09004B2F09056
:104FB80004AEF09004C8F0A3F0A3F0A3F0A3F0A30C
:104FC800F0A3F0A3F078CE7903E8246EF582E934F3
:104FD80000F58374FFF00A88828983A3A882A983D5
:104FE800EAC3940440E37ACE7B0378DC79048882B0
:104FF8008983E0C0E0EA2461F582EB3400F583D0D0
:10500800E0F088828983A3A882A9838A828B83A3FC
:10501800AA82AB83E864E17003E9640470D07ACEB5
:105028007B0378B5790388828983A3E0C0E0EA240A
:10503800E6F582EB3400F583D0E0F088828983A31B
:10504800A882A9838A828B83A3AA82AB83E864BDE2
:105058007003E9640370CF9003CEE004F06401703C
:10506800089003D6E09003D0F07AD27B0380047ACC
:10507800007B000248D8C082C0839003D5E4F0903A
:1050880003D4F09003CEF0A3F0A374FFF075E1F120
:10509800023FAAC082C083780079009003D5E060FF
:1050A8000478D2790388828983A3A3A3A3E0F902B1
:1050B8003FAA74F61215F2EAFEEBFFEE2463F582BE
:1050C800EF3400F583E0F8A3E0F9E84970030251F2
:1050D8005FEE2463F8EF3400F97A007B00A2AFE4B6
:1050E80033F508C2AF88828983E0FCA3E0FDEC4D6C
:1050F800603A88828983E0FAA3E0FB8A828B83E0A6
:10510800FCA3E0FD88828983ECF0A3EDF08A828B12
:1051180083E4F0A3F088828983E0FCA3E0FDEC4DF2
:10512800700A88828983A3A3E4F0A3F0E508A2E0CB
:1051380092AF1211599004E2E004F09004E3E00405
:10514800F0EE2463F582EF3400F583E0F8A3E0F98C
:10515800E84960030250D98E828F83A3A3A3E0603D
:105168000F8E828F83A3A3A3E4F09003CFE014F003
:105178009003CEE014F070069003D074FFF08E8296
:105188008F83A3A3E4F09004E1E0700D9003CFE0D7
:10519800640170057900120C43EEFAEFFB120B83E1
:1051A800024BDE74F71215F2EAFEEBFF8E828F8354
:1051B800A3A3A3A3E0FA7B0012085FEEFAEFFB12A9
:1051C8000AD5120B6B0248D8C082C08378B5790320
:1051D80088828983A3E4F088828983A3A882A9832B
:1051E800E864BD7003E9640370E69003B6740102D5
:1051F8003FA974F61215F2EAFEEBFFEC2403F8ED72
:105208003400F988088909EC2407F8ED3400F9E836
:10521800FCE9FD8C828D83E0F8A3E0F9850882859E
:105228000983E0FAA3E0FB1214F7EE240DF582EFF0
:105238003400F583E8F0A3E9F08C828D83E0F8A3CD
:10524800E0F9850882850983E0FAA3E0FB1214F7E8
:105258008B09EA45096013EE240DF582EF3400F559
:1052680083E02401F0A3E03400F0024BDE74F61270
:1052780015F2EAFEEBFFEE242EF582EF3400F583FB
:10528800E0FCA3E0FD780079FAECFAEDFB1214F7E4
:10529800EE246FF582EF3400F583E8F0A3E9F078A7
:1052A8000079FAECFAEDFB1214F78B09EA4509606C
:1052B80013EE246FF582EF3400F583E02401F0A3A8
:1052C800E03400F0024BDE74EC1215F2EAFEEBFF5C
:1052D80074141215CE780812143A120C078A0C8B23
:1052E8000D8C0E8D0F751002751100751200751357
:1052F80000780C79101213A07510FF7511FF751244
:10530800FF780C7910121401780C1218018E828F14
:1053180083E0F8A3E0F5838882A3A312145812222D
:10532800117404121598E960030254338E828F8336
:10533800E02402F8A3E03400F9E8FAE9FB8A828B5A
:105348008378081213C68A828B837508FF7509FF54
:10535800750AFF750B007808121427EE240BF582E6
:10536800EF3400F583C082C0838E828F83A3A3A30A
:10537800A3A3E02401F8A3E03400F9D083D082E0AD
:10538800687003A3E069700579010254358E828F35
:1053980083A3A3A3A3A3A3A3E02401F0A3E0340061
:1053A800F0EE2473F582EF3400F583E06401703683
:1053B800EE2474F582EF3400F583E0F8A3E0F98E6B
:1053C800828F83A3A3A3A3A3A3A3E0687003A3E08E
:1053D800697013EE2474F582EF3400F583E024013C
:1053E800F0A3E03400F0EE247FF582EF3400F5837B
:1053F800E064017036EE2480F582EF3400F583E036
:10540800F8A3E0F98E828F83A3A3A3A3A3A3A3E0A9
:10541800687003A3E0697013EE2480F582EF34000E
:10542800F583E02401F0A3E03400F0790002414262
:1054380074F61215F2E9FEECFFEA2462F582EB3409
:1054480000F583E0640160030254E19061D0E0F567
:1054580008EA2482F582EB3400F583E060047804DE
:10546800800278007480C39508FC95E0FDEF28F869
:10547800E43400F9E82402F8E93400F9EC98ED99ED
:10548800A2D265D033404E740A1215CEE0F508A3B7
:10549800E0F509EA2482F582EB3400F583E0601533
:1054A8007808121805EFFCEEF9120B537402121566
:1054B8009874042FFF74012FF5D98ED9EF600F85EA
:1054C8000882850983F8E0F5D9A318E870F875E132
:1054D80095790080067907800279FF024BDE74F720
:1054E8001215F2A2AFE433FEC2AF8A828B83E0F8D2
:1054F800A3E0F9E8498A828B83600AA3A3E0F8A3B2
:10550800E0F5838882ECF0A3EDF08A828B83A3A375
:10551800ECF0A3EDF08C828D83E4F0A30248D07404
:10552800F71215F2E96021F88C828D83E08A828B6C
:1055380083F08C828D83A3AC82AD838A828B83A314
:10554800AA82AB8318E870E0ECFAEDFB0248D87445
:10555800F41215F2907803E064427055900544E027
:1055680014F0704DC2AF12557100782AD0E0F618C9
:10557800D0E0F6E59F540770057509FF80037509AB
:105588007FC4C0E07829E6F50808E65509F50974EE
:105598000B7808121560D0E02508F8906270E0A238
:1055A800E740F8E8C333906272F0906270E0D2E0AE
:1055B800F09003D0E0F47003025951E0F875F0035D
:1055C800A4C8AAF02AF974D228FE740339FFEE247D
:1055D80001F582EF3401F583E0F8A3E0F9E84960CA
:1055E8001EEE2401F582EF3401F583E0FAA3E0FB17
:1055F800EE2400F582EF3401F583E0F9120F138EE3
:10560800828F83A3A3A3A3A3A3A3E0F8A3E0F98EA7
:10561800828F83A3A3A3A3A3E8F0A3E9F090605427
:10562800E09003A9F0906055E09003AAF0906056CE
:10563800E09003ABF0906057E09003ACF0906058B6
:10564800E09003ADF0906059E09003AEF090605A9E
:10565800E09003AFF090605BE09003B0F090605C86
:10566800E0FC9003B1F090605DE0FB9003B2F09035
:10567800605EE0FD9003B3F090605FE0FA9003B4E1
:10568800F09003AFE08C082508F8E43400F98D08A1
:10569800E82508F8E93400F98B08E82508F8E93422
:1056A80000F98A08E82508FAE93400FBEE24F6F543
:1056B80082EF3400F583E02AF0A3E03BF08C08EE9B
:1056C80024F8F582EF3400F583E02508F0A3E034F0
:1056D80000F0EE24FAF582EF3400F583E02401F0BF
:1056E800A3E03400F0EE24FEF582EF3400F583E009
:1056F800F8A3E0F9E8496042906000E0C333FCE4B5
:1057080033FDE82CF582E93DF583E02AF0A3E03B80
:10571800F0906000E0FA9003B1E0FCEAC333FAE4E9
:1057280033FBE82AF8E93BF9E8244AF582E9340032
:10573800F583E02CF0A3E03400F09003AFE07011A3
:105748009003B2E0700BA3E07007A3E07003025867
:105758004E8E828F83A3A3A3A3A3E0F8A3E0F9EE60
:10576800240DF582EF3400F583E028F8A3E039F939
:10577800EE240BF582EF3400F583E8F0A3E9F0EEB0
:10578800240FF582EF3400F583E4F0EE241CF58253
:10579800EF3400F583E06401701EEE2420F582EFFB
:1057A8003400F583E0F8A3E0F9EE241DF582EF3428
:1057B80000F583E8F0A3E9F09003AAE06052EE2434
:1057C8001CF582EF3400F5837401F0EE2469F5824C
:1057D800EF3400F583E07038EE2473F582EF34007F
:1057E800F583E0702BEE247FF582EF3400F583E03B
:1057F800701EEE2420F582EF3400F583E0F8A3E074
:10580800F9EE241DF582EF3400F583E8F0A3E9F002
:10581800906062E070030259018E828F83E0F8A3E2
:10582800E0F9E82406FCE93400FDE82402FAE9344A
:1058380000FB120C018E828F83E0F8A3E0C82412CB
:10584800F582E80259079003B1E0603AEE240FF5BB
:1058580082EF3400F583E4F0EE241CF582EF340087
:10586800F583E064017040EE2420F582EF3400F502
:1058780083E0F8A3E0F9EE241DF582EF3400F58308
:10588800E8F0A3E98020EE24FCF582EF3400F583EC
:10589800E02401F0A3E03400F0EE241DF582EF349B
:1058A80000F583E4F0A3F0EE240BF582EF3400F565
:1058B80083E0F8A3E0F98E828F83A3A3A3A3A3E0D8
:1058C800687003A3E06960030257C0EE240FF582F5
:1058D800EF3400F583E060128E828F83A3A3A3A325
:1058E800A3E064057002A3E0600479088002793EB1
:1058F800EEFAEFFB120ADB8050EE241DF582EF343E
:1059080000F583E4F0A3F09061C8E06006121BCDB7
:10591800E970F48E828F83A3A3A3E0602C9061C802
:10592800E070069060607480F0EEFAEFFB120BCB2B
:10593800E9640160147902EEFAEFFB121D7A120B8A
:10594800BFE964016003120B6B7F040216C453BFE6
:10595800EF02011F74EC1215F29003D0E0F875F015
:1059680003A4C8AAF02AF974D228FE740339FF9058
:1059780061D0E07013EE2463F582EF3400F583E024
:10598800F8A3E0F9E849600FEE241DF582EF340032
:10599800F583E4F0A38053EE2469F582EF3400F533
:1059A80083E07047EE2473F582EF3400F583E070EE
:1059B8003AEE247FF582EF3400F583E0702DEE2473
:1059C8001CF582EF3400F583E06401701EEE24209C
:1059D800F582EF3400F583E0F8A3E0F9EE241DF535
:1059E80082EF3400F583E8F0A3E9F08E828F83A379
:1059F800A3A3A3A3E0F8A3E0F9EE241DF582EF34F6
:105A080000F583E028F8A3E039F9E8240108E9342F
:105A180000F9EE2407F50AEF3400F50B850A82F544
:105A280083E8F0A3E9F0EE240BF582EF3400F58368
:105A3800C3E098A3E09950358E828F83A3A3A3A3D4
:105A4800A3A3A3C082C083EE240BF582EF3400F534
:105A580083E0F8A3E0F9D083D082E0C398F8A3E00C
:105A680099F9C3E894AAE994105035803BEE240BC9
:105A7800F582EF3400F583C082C0838E828F83A3C2
:105A8800A3A3A3A3A3A3E0F8A3E0F9D083D082E063
:105A9800C398F8A3E099F9C3E894ABE994105008C7
:105AA8009004E7E064017030EE241DF582EF3400C5
:105AB800F583E4F0A3F08E828F83A3A3A3A3A3E0CE
:105AC8002401F8A3E03400F98E828F83A3A3A3A353
:105AD800A3A3A3E8F0A3E9F0EE2473F582EF340062
:105AE800F583E064016003025D57EE2474F582EFEC
:105AF8003400F58312181C8E828F83A3A3A3A3A35B
:105B0800A3A3E0FCA3E0FD8E828F83A3A3A3A3A39A
:105B1800E0FAA3E0FB121B867402121598E97003E1
:105B2800025D57EE2474F8EF3400F9880889098873
:105B380082F583E0F8A3E0F9850A82850B83E8F013
:105B4800A3E9F0EE2476FCEF3400FDEEFAEFFB1249
:105B58000AE7EE247BF582EF3400F583E0F8A3E052
:105B6800F9EE2420F582EF3400F583E8F0A3E9F09C
:105B7800EE241CF582EF3400F583E4F0EE241DF5E5
:105B880082EF3400F583E4F0A3F0EE240FF582EF02
:105B98003400F5837401F0850A82850B83E0F8A34D
:105BA800E0F9EE240DF582EF3400F583E028F8A340
:105BB800E039F9EE240BF582EF3400F583E8F0A321
:105BC800E9F08E828F83A3A3A3A3A3E0FCA3E0FD47
:105BD800850882850983E0FAA3E0FB121BC58A08C1
:105BE8008B09EE242EF582EF3400F583E0FAA3E06A
:105BF800FBE4F50AF50B8A0C8B0DF50EF50F78080A
:105C0800790C121279EE2477F582EF3400F583E0EF
:105C1800F50CA3E0F50D7808790C1213A0EE2479A1
:105C2800F582EF3400F583E06A7003A3E06B7044FB
:105C3800EE247DF582EF3400F583E0F8A3E0F9EE79
:105C48002432F582EF3400F583E0687003A3E0693D
:105C58007022EE247BF582EF3400F583E0F8A3E0B0
:105C6800F9EE2430F582EF3400F583E0687003A381
:105C7800E0696052EE247DF582EF3400F583E0F5AB
:105C88000CA3E0F50D7404780C121560780C12184A
:105C980005EE247BF582EF3400F58312181CEE2400
:105CA80079F582EF3400F583E0FCA3E0C313FDEC43
:105CB80013FC8E828F83A3A3A3A3E0FA7B001208B0
:105CC800657404121598EE2476F582EF3400F58396
:105CD800E0C0E0EE242BF582EF3400F583D0E0F04D
:105CE800EE2479F582EF3400F583E0F8A3E0F9EECD
:105CF800242EF582EF3400F583E8F0A3E9F0EE24D2
:105D08007BF582EF3400F583E0F8A3E0F9EE243068
:105D1800F582EF3400F583E8F0A3E9F0EE247DF591
:105D280082EF3400F583E0F8A3E0F9EE2432F5823F
:105D3800EF3400F583E8F0A3E9F0EEFAEFFB120A7E
:105D4800EDEE2473F582EF3400F583E4F08016EE6F
:105D5800242EF582EF3400F583E0F508A3E0F50979
:105D6800E4F50AF50BEE2418F582EF3400F5837894
:105D780008121225701EEE241FF582EF3400F583F9
:105D8800E0F8EE241DF582EF3400F583E068700238
:105D9800A3E06039EE2412F50CEF3400F50D780C11
:105DA800121805EE2410F582EF3400F58312181C42
:105DB800EE241DF582EF3400F58312181CAA08ABF7
:105DC80009AC0AAD0B12239E7406121598EE24181E
:105DD800F582EF3400F5837808121449EE241DF596
:105DE80082EF3400F583E0C0E0EE241FF582EF3443
:105DF80000F583D0E0F0EE2412FCEF3400FD8E8233
:105E08008F83E02402FAA3E03400FB1222D99060C9
:105E180062E060147C247D818E828F83E02402FA04
:105E2800A3E03400FB1222D98E828F83E0F8A3E02E
:105E3800F988828983A3A3E82408FCE93400FD7467
:105E4800061214958E828F83E02402F8A3E03400B2
:105E5800F9E8FAE9FBEE241DF582EF3400F583E05A
:105E6800F510A3E0F511E4F512F513750C01F50D25
:105E7800F50EF50F7810790C1213A0781079081226
:105E880012798A828B8378101213C68A828B837563
:105E98000CFF750DFF750EFF780C1214279004E1A6
:105EA800E064016003025FE47901120C438E828F83
:105EB80083E0FAA3E0FB7508FF7509FF750AFF7513
:105EC8000BFFEA240EF582EB3400F58378081214F0
:105ED80049EA2412F8EB3400F9E8FAE9FBEE241257
:105EE800F582EF3400F583780812143AE50875F066
:105EF800E2A4C508A8F075F004A428F875F0E2E556
:105F080009A428F5098A828B83E02508F0A3E035E7
:105F180009F0EE2416F582EF3400F583E0F508A3C6
:105F2800E0F50974047808121560E5082401F8E51D
:105F3800093400F98A828B83E028F0A3E039F090D5
:105F48006062E08E828F837003026058E0F8A3E0FD
:105F5800C82412F582E83400F583E02410F0A3E0A9
:105F68003401F0EE240FF582EF3400F583E060325F
:105F7800EE242BF582EF3400F583E0F875F071A478
:105F8800C8AAF075F002A42AF98E828F83E0FAA3DA
:105F9800E0CA2412F582EA3400F583E028F0A3E091
:105FA80039F08E828F83E0F8A3E0C82414F582E8E4
:105FB8003400F5837410F08E828F83E0F8A3E0C874
:105FC8002416F582E83400F583746FF0A3740AF0A0
:105FD800EEFAEFFB121A0679000265AB750C5075E4
:105FE8000D00750E00780C790812123A4003025E13
:105FF800B5EE241DF582EF3400F583E0F8A3E0F94F
:10600800E8496003025EB57808121801EEFAEFFB62
:10601800120AF37404121598E964016003025EB56C
:10602800EE240FF582EF3400F583E060128E828F44
:1060380083A3A3A3A3A3E064057002A3E06004798B
:10604800088002793EEEFAEFFB120ADB79018089BB
:10605800E0F8A3E0C82412F582E83400F583E024D0
:1060680010F8A3E034FFF97A717B021214F788085C
:106078008909EE242EF582EF3400F583E0F8A3E0D9
:10608800F9C3E50898E509995003025F6B80B0747D
:10609800EC1215F2EAFEEBFF8C828D83E0F8A38503
:1060A8008208858309603B14700302627F147003C1
:1060B8000265741470030262FB24FD700302641409
:1060C8001470030265AB14700302646B24FE700342
:1060D80002641914700302645B1470030264F7020B
:1060E800659AEE2476F510EF3400F511E0851082FC
:1060F800851183F0850882850983A38582088583B5
:1061080009EE2477F50EEF3400F50F7902AC08ADEF
:1061180009AA0EFB120B058A088B09EE2479F50CE7
:10612800EF3400F50D7902AC08AD09AA0CFB120B8F
:10613800058A088B097902AC08AD09EE247BFAEFD1
:106148003400FB120B058A088B09EE247DF50AEF53
:106158003400F50B7902AC08AD09AA0AFB120B054D
:106168008A088B09851082851183E0C333F0850E78
:1061780082850F83E0F8A3E0F9E8C333F8E933F93F
:10618800850E82850F83E8F0A3E9F0850C82850DE2
:1061980083E0F8A3E0F9E8C333F8E933F9850C8222
:1061A800850D83E8F0A3E9F0850A82850B83E0F585
:1061B8000CA3E0F50D7404780C12156F850A82851E
:1061C8000B83E50CF0A3E50DF0EE2474F50AEF342B
:1061D80000F50B7902AC08AD09AA0AFB120B05857C
:1061E8000A82850B83C082C0838E828F83A3A3A378
:1061F800A3A3E0F8A3E0F9D083D082E0C398F8A382
:10620800E099F9C3E894FFE9947F40030262D5EE70
:10621800247DF582EF3400F583E0F508A3E0F50965
:10622800E4F50AF50BEE247BF582EF3400F583E004
:106238002401F50CA3E03400F50DE4F50EF50FEE9E
:106248002479F582EF3400F583E0F8A3E0F9E8C398
:1062580033F8E933F988108911E4F512F513780C4D
:1062680079101212797808790C12123A4004793BA5
:10627800805DEE24738062EE2480F50AEF3400F529
:106288000B7402C0E07905AC08AD097ADC7B041216
:106298000B05EAFCEBFDD0E0F9AA0AAB0B120B05E3
:1062A800850A82850B83C082C0838E828F83A3A3D5
:1062B800A3A3A3E0F8A3E0F9D083D082E0C398F8C1
:1062C800A3E099F9C3E894FFE9947F40097928EE9F
:1062D800FAEFFB026595EE247FF582EF3400F58333
:1062E8007401F0EE241DF582EF3400F583E4F0A389
:1062F800026467EE24E1F582EF3400F583E070393B
:10630800EEF8EFF97AB57B038A828B83A3E0C0E0CD
:10631800E824E2F582E93400F583D0E0F08A828B44
:1063280083A3AA82AB8388828983A3A882A983EAEC
:1063380064BD7003EB640370CFEE24E2F582EF34A2
:1063480000F583E0A2E0EE401124DDF582EF340091
:10635800F583741AF0790D02656E2462F582EF34C4
:1063680000F583E4F0EE2467F582EF3400F583E46A
:10637800F0EE24E0F582EF3400F5837401F079083B
:10638800AC08AD09EE249BFAEF3400FB120B058A2A
:10639800088B097902AC08AD09EE24A3FAEF3400A2
:1063A800FB120B058A088B09EE2493F50AEF3400DB
:1063B800F50B7908AC08AD09AA0AFB120B058A0887
:1063C8008B097908AA0AAB0B120B0BEE2487F50A86
:1063D800EF3400F50B7904AC08AD09AA0AFB120BDF
:1063E800057904AA0AAB0B120B0BEE248BFAEF34D7
:1063F80000FB120B1DEE2483FAEF3400FB120B2373
:106408009003A4E04480F0790402656EEE24DE80F7
:1064180045EE2462F582EF3400F583E4F0EE24675C
:10642800F582EF3400F583E4F0EE24D2F582EF3400
:1064380000F583E4F0EE24DCF582EF3400F5837494
:1064480001F0EE24D3F582EF3400F583E4F0790B04
:106458000265A8EE24DFF582EF3400F5837401F0BD
:106468000265ABEEF8EFF97AB57B038A828B83A3DA
:10647800E0C0E0E824E2F582E93400F583D0E0F0FA
:106488008A828B83A3AA82AB8388828983A3A8820A
:10649800A983EA64BD7003EB640370CFEEF8EFF9EB
:1064A8007AB57B038A828B83A3E0FC850882850901
:1064B80083E05CC0E0E824E2F582E93400F583D0AB
:1064C800E0F0850882850983A38582088583098A87
:1064D800828B83A3AA82AB8388828983A3A882A99B
:1064E80083EA64BD7003EB640370B979098077EEC1
:1064F80024EAF582EF3400F583E064017003026555
:106508009A850882850983E0C0E0EE24EDF582EFE4
:106518003400F583D0E0F0850882850983A385825D
:10652800088583097402C0E0F9AC08AD09EE24EED1
:10653800FAEF3400FB120B05EAFCEBFDD0E0F9EEB4
:1065480024F0FAEF3400FB120B05EE24EAF582EF93
:106558003400F5837401F0EE24ECF582EF3400F595
:1065680083E0703F790CEEFAEFFB8034EE24F4F808
:10657800EF3400F9E088828983F0EE24F3F582EFA6
:106588003400F5837401F088828983E0F9120ADB0C
:106598008011EE24F5F582EF3400F583E8F07907F1
:1065A800120AAB7F0C0216C474F61215F2EAFEEB5F
:1065B800FF0267F6EEFAEFFB120A9F026A42EE2428
:1065C80069F582EF3400F583E06401703E9003AC16
:1065D800E070030268D2EEFAEFFB120AB1EE24A3D0
:1065E800F508EF3400F5097808121805EE249BFC2D
:1065F800EF3400FD8E828F83A3A3A3A3E0FA7B0070
:1066080012087174021215980267F6EEFAEFFB127F
:106618000A75026A42EE2469F582EF3400F583E0D8
:10662800640170559003ACE06031EE2482F582EF8E
:106638003400F5837401F0EE24D4F582EF3400F5CC
:1066480083E4F0A3F0A3F0A3F0EE24D8F582EF34AE
:1066580000F583E4F0A3F0A3F0A3F0EE24DEF582C6
:10666800EF3400F583E0640160030268D27906EE36
:10667800FAEFFB120AB70267F6EE24D2F582EF347E
:1066880000F583E06401702AEEFAEFFB120A7BE959
:1066980064016003026A5FEE24DEF582EF3400F5E0
:1066A80083E4F0EE2469F582EF3400F58374010287
:1066B8006A4DEE24D3F582EF3400F583E0700302CF
:1066C8006A5FEE24B2F508EF3400F509780812186D
:1066D80005EE248BFCEF3400FDEE24C2FAEF340003
:1066E800FB120B297402121598EE24D2F582EF34AE
:1066F80000F58374010267BEEE2469F582EF340069
:10670800F583E0640160030267C19003ACE07003A5
:106718000268D2EE2420F582EF3400F583E0F8A376
:10672800E0F9EE241DF582EF3400F583E8F0A3E9E3
:10673800F0EEFAEFFB120AB1EE2462F582EF3400B4
:10674800F5837401F0EE2467F582EF3400F5837465
:1067580001F0EE24DCF582EF3400F583E06401708B
:106768001379008E828F83A3A3A3A3E0FA7B001280
:10677800087D80137C0179008E828F83A3A3A3A355
:10678800E0FA7B00120877EE24DCF582EF3400F59E
:1067980083E4F0EE24E0F582EF3400F583E4F0EED4
:1067A80024DFF582EF3400F583E4F0EE24DEF58291
:1067B800EF3400F583E4F08035EEFAEFFB120A813E
:1067C800026A42EE2469F582EF3400F583E0640141
:1067D8006003026861EE24DFF582EF3400F583E0A0
:1067E800640160030268D2EEFAEFFB120AB1EE24EC
:1067F8006EF582EF3400F583E07003026A5FEE24E1
:106808006AF582EF3400F583E024FE602F24FE70E1
:10681800030265C614700302661D14700302670044
:10682800147003026A5024FE700302690424FE6097
:106838009214700302695114604C80B2EE2469F519
:1068480082EF3400F583E0640160030265BC9003C5
:10685800ABE060767916026A23EEFAEFFB120A873C
:10686800E964016003026A5FEE24DFF582EF340019
:10687800F583E4F0EE2482F582EF3400F583E4F04A
:10688800EE24690266F4EE2469F582EF3400F5839C
:10689800E06401705D9003ACE06026EE2482F5822E
:1068A800EF3400F583E4F0EE2462F582EF3400F56E
:1068B800837401F0EE2467F582EF3400F5837401E8
:1068C800F09003ABE060030267EFEE2471F8EF3459
:1068D80000F988828983E024FFF0A3E034FFF08880
:1068E800828983E0F8A3E0F9E8496003026A5F025D
:1068F8006A21EEFAEFFB120A8D026A42EE2469F56C
:1069080082EF3400F583E0640170349003ACE060FA
:10691800B9EE24E1F582EF3400F5837401F0EE243A
:1069280020F582EF3400F583E0F8A3E0F9EE241DAA
:10693800F582EF3400F583E8F0A3E9F00267EFEEA3
:10694800FAEFFB120A93026A42EE2469F582EF34E9
:1069580000F583E064016003026A2EEE24EAF58202
:10696800EF3400F583E064017051EE24EBF582EF1B
:106978003400F583E0640160030267EFEE24F0F56C
:1069880082EF3400F58312181CEE24EEF582EF3402
:1069980000F58312181CEE24EDF582EF3400F58320
:1069A800E0FC8E828F83A3A3A3A3E0FA7B00790087
:1069B80012086B74041215980267EFEE2471F8EF51
:1069C8003400F988828983E024FFF0A3E034FFF0E3
:1069D80088828983E0F8A3E0F9E849707AEE24F028
:1069E800F582EF3400F58312181CEE24EEF582EFE1
:1069F8003400F58312181CEE24EDF582EF3400F50F
:106A080083E0FC8E828F83A3A3A3A3E0FA7B0079A3
:106A18002212086B74041215987922EEFAEFFB1211
:106A28000ADB79018033EE24ECF582EF3400F5833C
:106A38007401F0EEFAEFFB120A99EE2469F582EF81
:106A48003400F583E9F0800FEEFAEFFB120AA5E9AE
:106A5800640170030267EF79007F020216C474F0C4
:106A68001215F274FA121582890BECFEEDFF750A05
:106A7800008A088B0978081218490004108E6CA93E
:106A88006AC76AE16AF96A176B2F6B526B6A6B7E89
:106A98006BA86B256C366C4D6C686C8E6C8E6CBEFE
:106AA8006B7401650B6003026C898E828F83E0F83A
:106AB800C394034003026C89E8900B79026C6574F7
:106AC80002650B6003026C898E828F831273CB90F0
:106AD8000B7AE8F0A3E9026C657401650B600302A8
:106AE8006C89126CB64003026C89E890077D026CD1
:106AF800657401650B6003026C898E828F83E0F8F0
:106B0800C394054003026C89E890077E026C6574A3
:106B180001650B6003026C89126CB64003026C8934
:106B2800E890077F026C657410650B6003026C893E
:106B380075081075090078081218057A807B071205
:106B48000EBF7402121598026CAF7401650B6003D6
:106B5800026C89126CB64003026C89E890079002B7
:106B68006C657401650B6003026C898E828F83E00B
:106B7800900B7D026C657404650B6003026C898E52
:106B8800828F83780C12143A908165780C12125A0D
:106B98005003026C89900792780C121449026CAF6A
:106BA800E96003026C891205EFE970051210818013
:106BB8005690082580637407650B6003026C89751D
:106BC800080675090078081218058E828F83A3AC11
:106BD80082AD8374021215E0120EC5740212159864
:106BE8007C007D00AA18AB198E828F83E0F9121001
:106BF8002DE9F508C3940A4003026CAC1205EFE9CD
:106C0800700CA90812108779501211D7806E74265B
:106C18002508F582E43408F5837401804074016521
:106C28000B705E126CB65059E8900791802F740172
:106C3800650B704D8E828F83E0F8C3940A5042E84A
:106C4800900B7C80187401650B70368E828F83E000
:106C5800F874F928C3940A5028E8900B7EF080470E
:106C68007401650B701B900824E0F88E828F83E016
:106C7800900824F0E87030E06401702B12107580E1
:106C880026750A188021C3EA9427EB9400501574DE
:106C980002650B700F8E828F8312777412048DE950
:106CA800F50A8003750A02A90A7406026F758E82B6
:106CB8008F83E0F8C3940222740E1215987F0402A1
:106CC80016C474F01215F274B11215828C0C8D0D65
:106CD80090813E74201215E87406121495742012DF
:106CE80015E812102DE9FE745F1215CEE0F50AEED4
:106CF800C3940A4003026E4775F006EEA4F50874C3
:106D0800411215E87A0E74202508F91211D1E9709C
:106D180009744D1215CEE0FF80027F00900B79E0D8
:106D280064027005750E018003750E007408650A0B
:106D380070047422800274212508F50F7C1B7D00E5
:106D4800790074261215E0120ED7EFA2E0E433F5AD
:106D58000974261215E87A1BA90F1211D1E97025BA
:106D680074401215CEE024F9C3940A5018780E1214
:106D7800180974271215E8A909AA0CAB0D12052FDA
:106D880074011215987C147D007900740C1215E0BA
:106D9800120ED7740C1215E87A1074242508F9120B
:106DA80011D1E970307C1079FF740C1215E0120FC4
:106DB80037E97021741C1215CEAC82AD837A047445
:106DC800252508F91211D1740C1215E8A909AA0C85
:106DD800AB0D120517AC18AD197A0C74702EF91298
:106DE80011D1E97049AA18AB1912105D7E00EE7531
:106DF800F003A4F8A9F0851882851983E58228F89C
:106E0800E58312758012776E601D88828983A3A33B
:106E1800E0F5087509007808121805AA0CAB0D12E0
:106E2800076F74021215980EEEC3940440C0EFA2C7
:106E3800E1500C90077CE0F9AA0CAB0D12077574B1
:106E480004650A7027900B79E06402701F7A00903D
:106E58000790E060010A90077DE0600478048002F2
:106E68007800E84AF9AA0CAB0D1205D77900744FDF
:106E7800026F7574F01215F274F0121582EAFEEBC7
:106E8800FF8C088D09750A0AE9600C146009146002
:106E98003B14607D026F7112106FE9F50AC3940A02
:106EA8004003026F71E50845097003026F71750CA4
:106EB80006750D00780C121805EEFCEFFDAA08AB5C
:106EC80009120EBF7402121598026F71750C0075C5
:106ED8000E06750F00780E121805EEFCEFFDE50C96
:106EE80075F00EA4F8A9F0749E28FA740739FB12FD
:106EF8000ED17402121598E9700B050CE50CC394B9
:106F08000A506680CA850C0AE50AC3940A505A805A
:106F180049750C00AC18AD197A1075F006E50CA48B
:106F28002423F91211D1E9701C7C1079FFAA18AB3F
:106F380019120F37E9700EEEFCEFFDAA18AB191203
:106F480004F9E9600B050CE50CC3940A501B80C4D6
:106F5800850C0AE50AC3940A500FE508450960093B
:106F6800AA08AB09A90A121069A90A74101215987F
:106F78007F080216C474F41215F28908750915748D
:106F8800FF6A700374FF6B70277E00AC087A027B7F
:106F980000EEF912104BE960037509000EEEC39478
:106FA8000A40E8E50860527A997B1012096D804919
:106FB80012094F8A0A8B0BAE0AAF0BEE4F60377C73
:106FC800007D00EE2405FAE43FFB8E828F83A3A3A5
:106FD800A3A3E0F912102DE9C3940A500CAC087A67
:106FE800027B0012104B750900E508600CEEFAEF01
:106FF800FB1210998003750914A909026CC574F273
:107008001215F2ECFEEDFF750815740E1215CEE0A0
:10701800F50AA3E0F50B74FF6A700374FF6B702127
:10702800750900AC0AAD0BEEFAEFFBA90912105175
:10703800E960037508000509E509C3940A503E8014
:10704800E212094F8A828B83E5824583602C7C009B
:107058007D00E5822405FAE43583FBA3A3A3A3E01E
:10706800F912102DE9C3940A5013AC0AAD0BEEFACD
:10707800EFFB1210517508008003750814A9080267
:107088007548C082C083900796EAF0A3EBF090079A
:107098007CE0FC7D007A267B0012048D90077CE062
:1070A800F91206F1027B5F74F01215F274EC1215F6
:1070B80082EAFEEBFFEE240CF50CE43FF50DEE241E
:1070C80005F50EE43FF50FEE2409F50AE43FF50B4C
:1070D800EE2403F508E43FF5098E828F83A3A3E02D
:1070E80024FA700302736A24FD7003027288147014
:1070F8000302718514601024FD700302725F14701E
:10710800030272BF0273C1127E606049E0F5838892
:10711800821273CB880E890FE8450F6038850C8280
:10712800850D83E0F50C780C121809EE240BF58216
:10713800E43FF583E0F9850A82850B831277740AA8
:107148000A0AAB09850E82850F831215F0740112A5
:1071580015980273C1850A82850B8312181C900743
:10716800921214581205297402121598E970030234
:1071780073C17901850A82850B830273358E828FEC
:1071880083A385820A85830BE06003027242850E21
:1071980082850F83E0A2E040030272429008301219
:1071A8007E6360030272427C0E7D007900AA18ABF0
:1071B80019120ED7850C82850D83127B2AEA4B6043
:1071C80010750C06750D00780C121805EA2410804D
:1071D8001B127B2412094FEA4B70030273C1750C12
:1071E80006750D00780C121805EA2405FCE43BFD31
:1071F80074021215E0120EBF7402121598850E82E1
:10720800850F83E0A2E25004D2F08002C2F0A2F01F
:10721800E433F8740C1215CEE048F0EEFCEFFDAA4A
:1072280018AB19121063E970117A027B0090077C81
:10723800E0F9120F1379000273C3127E6070030223
:1072480073C11273D170030273C1850A82850B83DF
:10725800E0FC790102735E127E6070030273C11252
:1072680073C8890BE8450B70030273C18E828F8344
:10727800A3E0FC7902127B248882850B8302736564
:107288007C007D00EE2404FAE43FFB850882850932
:1072980083E0F912102DE9F8C3940A40030273C180
:1072A800EE240AFCE43FFD7A0475F006E8A42425E0
:1072B800F91211CB0273C1127B24900791E0600789
:1072C800900B7CE0F98069900B79E0700479058077
:1072D8005F12094F8A0C8B0DA80CA90DE82404F540
:1072E8000CE439F50D8E828F83A3A3A3A3A3A3A3D4
:1072F800E0A2E05041E84970030273C1850C828521
:107308000D83E0FE6030850A82850B83E05410709F
:1073180025740E1215E8E82405FAE439FBEEF91293
:10732800102DE970117903850882850983127B2A5B
:107338001205230273C1AC0EAD0F850C82850D8337
:10734800E0F9127B241210A5127E60606C1273D1D2
:1073580060677C007900127B248E828F831215F07F
:1073680080571205EFE97051900825E06401701507
:10737800121081900825E4F07C0AFDF97A267B0832
:10738800120ED7802C750A00850A0874262508FE77
:10739800E43408FF8E828F83E06401700BA90A121F
:1073A80010878E828F83E4F0050AE50AC3940A40A9
:1073B800D779501211D712107579017414026F75AC
:1073C8001273E0E0F8A3E0F9221273E0E0F8A3E01A
:1073D800F9E8FEE9FFEE4F22E0F5838882A3A322B5
:1073E80074F41215F274F2121582EAFE8C0B75F021
:1073F80006E9A42420F508AC18AD197A0EF9121183
:10740800D1E9704B7C0679FFAA18AB19120F37E93E
:10741800703D740C1215CE1273CBE8F509E50B60BC
:1074280005EE42098004EEF45209850982AA82E831
:107438006A7001E96015740C1215CEEAF0A3E4F045
:10744800AC18AD197A0EA9081211CB79018002790E
:1074580000026CC074F21215F274E6121582890AE1
:107468008A088B09ECFEEDFF740C1215E87A0E758C
:10747800F006E9A42420F91211D1E960030275414C
:107488007C0679FF740C1215E0120F37E9600302CD
:1074980075417470250AF50BAC18AD197A0CF91200
:1074A80011D1E9600302753DAA18AB1912105DE508
:1074B800084509701D7C0C7900AA18AB19120F3702
:1074C800E970727C0C7D007900AA18AB19120ED7EE
:1074D8008051AC18AD19AA08AB091210578A0C8B49
:1074E8000DA80CA90DE8497022EE4F604CAC18AD00
:1074F800197A007B00121057EAF8EBF9EA4B603969
:1075080088828983E508F0A3E509F01275BCFAEED4
:107518006A7001EF601FEEF04F700888828983E47B
:10752800F0A3F0AA18AB1912105DAC18AD197A0CBB
:10753800A90B1211CB790180027900741A121598DF
:107548007F060216C474F71215F27F00EF75F00378
:10755800A4F8A9F0EC28F8ED127580E06A7003A38E
:10756800E06B7006E8FAE9FB800B0FEFC394044068
:10757800DB7A007B000278B139F98882898322742A
:10758800F71215F27E00EE75F003A4F8A9F0EA28C8
:10759800F8EB127580E0F4FCA3E0F4FD888289839F
:1075A800ECF0A3EDF01275BCF4F00EEEC3940440B9
:1075B800D50278B1E82402F582E439F583E0227433
:1075C800F41215F274F4121582EAFEEBFF8C088DA2
:1075D80009900830127E63704FEE4F700302774DAA
:1075E800EC4509700302774D12106FE9900B7FF09C
:1075F800C3940A4033750B007C0679FFE50B75F0E0
:107608000EA4FAABF074982AFA74073BFB120F37F2
:10761800E960030276AD050BE50BC3940A40D97502
:107628000A0AE50A900B7FF0900B7FE0C3940A40AA
:107638000302774D75F006E0A4FB900830127E63D4
:107648007069EEFCEFFD7A0E74202BF91211CB7CD9
:107658000C7D0079FFAA18AB19120ED7AC18AD191A
:107668007A0C900B7FE02470F91211CB750A0E7515
:107678000B00780A121805EEFCEFFD900B7FE07501
:10768800F00EA4F8A9F0749828FA740739FB120EC2
:10769800BF7402121598900830E508F0A3E509F0C8
:1076A800790002774F850B0A02762AE0C824061271
:1076B800776860197A1B74212BF91211CB12775451
:1076C8002406F582E438F583E4F0A380D2127754D7
:1076D800240A12776860107A1B74222BF91211CBD6
:1076E800127754240A80DB127754240C12776860CE
:1076F800107A1074232BF91211CB127754240C80B2
:10770800C112775D12776860307A1074242BF912F1
:1077180011CB12775DF582E438F583E02410FCA3E1
:10772800E03400FD7A0475F006900B7FE0A4242570
:10773800F91211CB12775D8089900824E06003125A
:1077480010AB12109F7901740C026CC2900830E0E3
:10775800F8A3E0C822900830E0F8A3E0C824082283
:10776800F582E438F583127774EC4D22E0FCA3E04F
:10777800FD2274F41215F274F2121582EAFEEBFF80
:10778800E9C3940A5004EE4F700479028034AC18AF
:10779800AD197A0E75F006E9A42420F91211D1E981
:1077A800F508701C750A06750B00780A121805741E
:1077B800021215E8EEFAEFFB120EBF7402121598CA
:1077C800A908026CC074F41215F2EAFEEBFF750802
:1077D80000750A06750B00780A121805EEFCEFFD15
:1077E800E50875F00EA4F8A9F0749828FA7407391A
:1077F800FB120ED17402121598E96004A908800BD7
:107808000508E508C3940A40C8790A026CC574F7EC
:107818001215F2750800E50875F00EA4F8A9F074C1
:107828009828FE740739FFEEFCEFFD7A0E75F00616
:10783800E508A42420F91211D1E960297C067D000D
:1078480079FFEEFAEFFB120ED77C067D0079FFEE8A
:107858002CFAE43FFB120ED7EE240CF582E43FF538
:1078680083E4F0A3F00508E508C3940A40A890084B
:1078780024E060031210AB12109F802D74F71215CC
:10788800F27E007F007C0679FFEF75F00EA4FAAB5C
:10789800F074982AFA74073BFB120F37E970010E4F
:1078A8000FEFC3940A40DEEEF97F010216C474F7A5
:1078B8001215F27E00EEF91210870EEEC3940A50EC
:1078C80003E960F180E374F31215F274CB121582A8
:1078D800E9FE900B7FE06E701B7A017B0090077CBD
:1078E800E0F9120F197A027B0090077CE0F9120F79
:1078F800191210B775F006EEA4FF74202FF508745E
:10790800271215E87A0EA9081211D1E96003027945
:10791800D47C0679FF74271215E0120F37E960034B
:107928000279D47C0E7D0079FF74271215E0120EBF
:10793800D77C1B7D0079FF740C1215E0120ED77CE2
:107948000C7D0079FFAA18AB19120ED774271215EF
:10795800E87A0EA9081211CBE9F508740C1215E89B
:107968007A1B74212FF91211CBE9F509740C121541
:10797800E87A1B74222FF91211CBE9F50A740C125C
:1079880015E87A1074232FF91211CBE9F50B740C52
:107998001215E87A1074242FF91211CBE9F50C743A
:1079A8000C1215E87A0474252FF91211CBE9FFACF3
:1079B80018AD197A0C74702EF91211CBE9F8E50993
:1079C800450A450B450C4F4842088003750800A935
:1079D8000874351215987F050216C474F71215F24B
:1079E800E990077CF01210750278B174F41215F260
:1079F800EAFEEBFF54807003027A8B90077CE0F973
:107A0800120EFB8A088B09EA4509607078018A82A0
:107A18008B83E02450603D14600624E1604F80525F
:107A2800A3A3A3A3E0704E8A828B83A3A3A3A3A3DB
:107A3800A3A312181C8A828B83A3A3A3A3A31277E0
:107A4800748A828B83A3A3127B2A121039740212C0
:107A580015988021A3A3A3A3E0641E701879008A57
:107A6800828B83A3A3127B2A12103380081210453D
:107A7800E9F8E86007AA08AB09120EE9EEFAEF6424
:107A8800808065EE540260237C007D007A007B00D4
:107A9800121063E960117A017B0090077CE0F9120B
:107AA8000F13EE6402803F7A028046EEA2E0503F58
:107AB800127AFE127B2A1210B1E9602F127E6060E2
:107AC8001F1273C888088909E8450960137C007982
:107AD80001127AFE127B2A8508828509831215F025
:107AE8001210B7EE6401FAEFFB80087A0180027A7F
:107AF800007B00026CC5900830E0F8A31273E0A385
:107B0800227F020216C4C082C08390077CE0F98AF3
:107B1800828B83A3127B2A120775803B8508828596
:107B28000983E0FAA3E0FB22C082C08374FF121528
:107B38008212107BE9C39402851882851983400458
:107B480074028002740AF0AC18AD197A0179051232
:107B580006077401121598D083D08202011F74F2AF
:107B68001215F274E8121582EAFEEBFF890A8C08F6
:107B78008D097C187D007900AA18AB19120ED785DB
:107B88001882851983EEF0A3EFF090077EE0C0E03D
:107B980074021215CED0E0F090077FE0C0E07403C5
:107BA8001215CED0E0F0900B7EE0C0E074171215ED
:107BB800CED0E0F074151215CEE054FEF8A3E0F92B
:107BC800900B7DE0A2E0E433FAE84AF87415121548
:107BD800CE127D00A2E15004D2F08002C2F0E85437
:107BE800FDFAA2F0E43325E0F8EA48F87415121516
:107BF800CE127D00A2E35004D2F08002C2F0E85415
:107C0800F7FAA2F0E433F50C750D007403780C1242
:107C1800156F127CF91215CE127D00A2E45004D221
:107C2800F08002C2F0E854EFFAA2F0E433F50C74E5
:107C380004780C12156F127CF91215CE127D00A271
:107C4800E55004D2F08002C2F0E854DFFAA2F0E472
:107C580033F50C7405780C12156F127CF91215CED9
:107C6800127D00A2E25004D2F08002C2F0E854FB78
:107C7800FAA2F0E433F50C7402780C12156F127C3A
:107C8800F91215CEE8F0A3E9F090077FE0601D75C2
:107C98000C10780C1218057C807D0774061215CE1E
:107CA800AA82AB83120EBF7402121598900790E057
:107CB8006011E50A600974151215CEE04402F078E7
:107CC800018002780074141215CEE048F090077D08
:107CD800E0600478048002780074141215CEE0483D
:107CE800F0AC08AD09AA18AB1912051D7418027575
:107CF80045EA450CF8741522E8F0A3E9F0900B7DED
:107D0800E02274F71215F21207E7750800E5087506
:107D1800F00EA4F8A9F0749828FE740739FF7C06C1
:107D280079FFEEFAEFFB120F37E97009EEFAEFFB75
:107D380079001207ED0508E508C3940A40CF0278D8
:107D4800B174F61215F274FD121582EAFEEBFF907B
:107D58000832127E6370397508347509087808127C
:107D6800180575080275090078081218057508AD18
:107D780075098178081218057CFF7DFF7A017B0060
:107D88001206497406121598900832EAF0A3EBF02F
:107D9800900832127E637003027E4AE4F508F50902
:107DA800780812180574041215D888088909780803
:107DB80012180574041215D8880889097808121849
:107DC8000590083412181C7902900832127E581255
:107DD80007637408121598E9703685188285198327
:107DE800E0FA74011215CEE0F8E4C8F9EA28F508BB
:107DF800E439F509EA45096017780812180590086A
:107E080032127B01A3127E5812103974021215988F
:107E1800E4F508F509780812180590083412181CBA
:107E28007CFF7DFF900832127B2A120655740412DB
:107E38001598900832EAF0A3EBF0900832127E63AE
:107E480070047901800279007403121598027B0985
:107E5800127774EEFAEFFB22900796E0F8A3E0F9A8
:107E6800E84922C082C083900830127E6360109077
:107E78000830127B2A120EE9900830E4F0A3F09043
:107E88000B7F740AF0027B5FC082C083E9FD740730
:107E98006A7001EB601874056A7001EB6010740475
:107EA8006A7001EB600874066A7001EB703AEAF8D0
:107EB800EBF9E875F003A4F8ACF075F003E9A42C2D
:107EC800F9742F28F8740339F9E824F4F582E934B1
:107ED800FFF583EAF0A3EBF0E824F6F582E934FF36
:107EE800F583EDF0790080027902D083D082020117
:107EF8001F74F61215F2EAFEEBFF8C088D098C82CE
:107F08008D83E0F8A3E0F97407687001E9601C74D8
:107F180005687001E960147404687001E9600C7404
:107F280006687001E9600479028017790112095B1B
:107F3800E970047914800BAC08AD09EEFAEFFB1276
:107F480008D7027FA074F61215F2E9FE7508E375EA
:107F5800090878081218058C088D09780812180580
:107F6800EEFC7901027F981208CB802774F612156F
:107F7800F2E9F50878081218097508037808121844
:107F8800097508EF7509087808121805791280D75D
:107F98001208D174041215987F020216C4C082C058
:107FA8008374FC12158274021215CEEAF0A3EBF06A
:107FB800851882851983ECF0A3EDF090032DE06419
:107FC800017018851882851983AC82AD83740212FA
:107FD80015CEAA82AB8379011207B17404121598E1
:107FE800027EF27408F5D575D4377408F5D375D2C6
:077FF8003F02011F02011FFF
:10800000030473060F0479061B047F062704850604
:1080100033048B0645048B0651049106270497060A
:108020003F049D060000000063049D066F04A30644
:108030000000000000000000000000000000000040
:108040000000000000000000000000000000000030
:108050000101020102010102010203030401030103
:108060000101010103030201037F09E710A10E7161
:1080700011A708E905D306050EFB119310FD0609AB
:108080001048617264776172652052657669736920
:108090006F6E00536F667477617265205265766902
:1080A00073696F6E004D616E75666163747572659C
:1080B00072204E616D65004669726D776172652050
:1080C0005265766973696F6E00F401FA0096006478
:1080D000004B0032001E00140000000000000000F1
:1080E000000000000000000087FB349B5F80000060
:1080F000800010000000000000FE006578706572CE
:10810000696D656E74616C53657269616C204E7542
:108110006D626572004D6F64656C204E756D6265B1
:108120007200292A00000000001B7869E0AB50C3F0
:10813000F0D200005D070000D30F00000000000037
:1081400000000000F10FF70F000019061F060000E5
:108150000102030405FFFFFFFF19000000C8000033
:10816000000000100040420F006400000060EA00C0
:108170000031B1E1FFF401000001000000E803005C
:108180000002A18102BB8102A38102BD81F1FFF245
:10819000FF2A2A282A272A262A252A242A232A505F
:1081A0002A001801180028012803280129022900A3
:1081B0002A012A022A032A042A052A0A18F0FF0C97
:1081C000C082C083900577E4F090057674FFF0904C
:1081D000058FE4F090058E74FFF0900573F0900524
:1081E00072E4F0900571F0900574F0A3F002918CA8
:1081F00074E81215F274FE121582900574E0F514FD
:10820000A3E0F515E51445157006120A330288BF80
:10821000851482851583E014601814601524FE60AF
:108220001124C4700302849724C07003028497024F
:1082300088BFE0F9120B778A088B09AE08AF099066
:1082400003CFE070030283CA120ACFE9F875F00386
:10825000A4C8AAF02AF974D228F8740339F9851849
:1082600082851983E8F0A3E9F0851882851983E0F7
:10827000F8A3E0F5838882E0F516A3E0F517EE4F4A
:1082800070030283A4120C078A088B098C0A8D0BD9
:10829000750C01750D00750E00750F007808790CCE
:1082A0001213A0750CFF750DFF750EFF7808790C81
:1082B00012140175101A75110075120075130078EB
:1082C00008121801851682851783A3A31214581269
:1082D000226A74041215988A0C8B0D8C0E8D0F78FF
:1082E00010790C12123A50030283A4851682851766
:1082F00083A3A3750CE7750DFF750EFF750FFF784F
:108300000C1213B3780C1218018E828F83A3A31260
:1083100014581222117404121598E960030283A400
:10832000750C07750D00750E00750F007808790C37
:108330001213A078081218018E828F83A3A312143F
:10834000581222117404121598E970537508008EA2
:10835000828F83E0640160030288BFEE65147003BE
:10836000EF65156003120A4BE5087030120C078A9E
:10837000088B098C0A8D0B750C037808790C121385
:10838000A0750CFF750DFF750EFF7808790C12149F
:10839000018E828F83A3A378081214490286B775D1
:1083A000080180AB851882851983E02404FEA3E0D0
:1083B0003400FF8E828F83E0F9120BAD8E828F83A3
:1083C000E09003D0F079020287C0EE65147003EFED
:1083D000651570030288BC8E828F83E064016003A0
:1083E0000288BF120A4B120C078A088B098C0A8D6F
:1083F0000B750C0A750D00750E00750F0078087965
:108400000C1213A078081218018E828F83A3A31276
:1084100014581222117404121598E97077120C077F
:108420008A088B098C0A8D0B750C037808790C125D
:1084300013A0750CFF750DFF750EFF7808790C12EF
:1084400014018E828F83A3A378081214499003A28B
:10845000E06402702C8E828F83A3A37508007509D7
:1084600008750A0078081213B37808790C12140101
:10847000EE240EF582EF3400F5837808121449805B
:1084800013EE240EF582EF3400F58374FFF0A3F0B1
:10849000A3F0A3F00288B29003CFE070030287DC60
:1084A000120ACFE9F875F003A4C8AAF02AF974D229
:1084B00028F8740339F9851882851983E8F0A3E94F
:1084C000F0851882851983E0F8A3E0F5838882E0BF
:1084D000F516A3E0F5179003D0E0F875F003A4C8F3
:1084E000AAF02AF974D228F514740339F515900509
:1084F00072E0540770030286DCA3E0F9120B778A5E
:10850000088B09AE08AF09EE4F70030286DC120C2F
:10851000078A088B098C0A8D0B750C01750D007587
:108520000E00750F007808790C1213A0750CFF75FA
:108530000DFF750EFF7808790C12140175101A756D
:108540001100751200751300780812180185168243
:10855000851783A3A312145812226A740412159863
:108560008A0C8B0D8C0E8D0F7810790C12123A50EC
:10857000030286DC851682851783A3A3750CE77535
:108580000DFF750EFF750FFF780C1213B3780C12E8
:1085900018018E828F83A3A312145812221174041F
:1085A000121598E960030286DC750C07750D0075DD
:1085B0000E00750F007808790C1213A078081218B5
:1085C000018E828F83A3A3121458122211740412F5
:1085D0001598E97005750A008003750A01851482F3
:1085E000851583A3A3A3A3E0F875F08AA4C8AAF015
:1085F0002AF974A628F508740539F509AA08FB12AA
:108600000BA7AA08AB09120BA1750C80780C1218E5
:10861000057C007D60E5082406FAE5093401FB12BB
:108620000B357402121598A808A909906195E0C04D
:10863000E0E82486F582E93401F583D0E0F090612A
:1086400096E0C0E0E82487F582E93401F583D0E0C4
:10865000F0906197E0C0E0E82488F582E93401F504
:1086600083D0E0F0906198E0C0E0E82489F582E9E9
:108670003401F583D0E0F08E828F83E06401705C7A
:10868000120A4BE50A7030120C078A088B098C0A13
:108690008D0B750C037808790C1213A0750CFF75FF
:1086A0000DFF750EFF7808790C1214018E828F83EE
:1086B000A3A37808121449851682851783A3A3758E
:1086C00008F17509FF750AFF750BFF78081213B3DF
:1086D000750CFF750DFF750EFF0288878518828562
:1086E0001983E0F8A3E0F9E514687003E5156970F3
:1086F000030287BA851482851583A3A3A3E07003C0
:10870000028799851482851583A3A3A3A3E0F87536
:10871000F08AA4C8AAF02AF974A628FE740539FFC5
:10872000EEFAEFFB120BA7EEFAEFFB120BA17508A6
:108730008075090078081218057C007D60EE24061B
:10874000FAEF3401FB120B35740212159890619503
:10875000E0C0E0EE2486F582EF3401F583D0E0F04E
:10876000906196E0C0E0EE2487F582EF3401F58356
:10877000D0E0F0906197E0C0E0EE2488F582EF341D
:1087800001F583D0E0F0906198E0C0E0EE2489F537
:1087900082EF3401F583D0E0F0851882851983E0FB
:1087A0002404FEA3E03400FF8E828F83E0F9120BD5
:1087B000AD8E828F83E09003D0F079029003D0E0F9
:1087C000FA75F003A4CAA8F028FB74D22AFA74033D
:1087D0003BFB121D7AAA16AB170288BC900572E00B
:1087E000540770030288BFA3E0F9120B778A088B45
:1087F00009AE08AF098E828F83E0640160030288AE
:10880000BF120A4B120C078A088B098C0A8D0B7554
:108810000C0A750D00750E00750F007808790C12A2
:1088200013A078081218018E828F83A3A312145804
:108830001222117404121598E97077120C078A0835
:108840008B098C0A8D0B750C037808790C1213A018
:10885000750CFF750DFF750EFF7808790C12140169
:108860008E828F83A3A378081214499003A2E06438
:1088700002702C8E828F83A3A3750800750908757A
:108880000A0078081213B37808790C121401EE2448
:108890000EF582EF3400F58378081214498013EE48
:1088A000240EF582EF3400F58374FFF0A3F0A3F0FB
:1088B000A3F09005737401F0EEFAEFFB120B7174E4
:1088C000021215987F100216C474F01215F2EAFE17
:1088D000EBFFEE2402F8EF3400F988088909EE2452
:1088E00006F8EF3400F9880A890B8882F58312189C
:1088F0001C850882850983121458120BE374021236
:108900001598850A82850B8312181C8508828509B3
:1089100083121458120BD77402121598EE240EF518
:1089200082EF3400F583121458120BE98E828F8384
:10893000E06440701CEE2412F8EF3400F98882895C
:1089400083E0906064F088828983A3E09060658012
:1089500006906064E4F0A3F0900574EEF0A3EFF0ED
:10896000EE2416F582EF3400F583E0F8A3E0F583FA
:1089700088821215F0906054E4F0A3F0A3F0A3F005
:10898000A3F0A3F0A3F0A3F0A3F0A3F0A3F0A3F04F
:10899000906182E0C2E6F07591BFEE2415F582EF9A
:1089A0003400F583E064017003120C19E5E170FCFA
:1089B000EE2414F582EF3400F583E0F46003E0F573
:1089C000E1EE2415F582EF3400F5837401F0900395
:1089D000A8E064017073120C078A088B098C0A8D59
:1089E0000B78081218018E828F83A3A312145812D9
:1089F000226A74041215988A088B098C0A8D0B75EB
:108A00000C05750D00750E00750F007808790C12B5
:108A1000127974037808121368E50824F4F508E560
:108A2000093401F509900541E06003120F3DE4F5BA
:108A30000AF50B78081218017A207B009003A1E058
:108A4000F9120F8B74041215987F080216C474F083
:108A50001215F2890874FF65086003028BA6900561
:108A600072E0540770030290447800900576E06449
:108A700004703CE875F018A4F8A9F0747728F58222
:108A8000740539F583E06401702E7A0078717905F8
:108A900088828983A3A3A3A3A3E064047076888259
:108AA0008983A3A3A3A3A3A3E064017067805308F1
:108AB00090058EE0640460BB7800900576E0640168
:108AC0007067E875F018A4F8A9F0747728F5827437
:108AD0000539F583E0640170597A00787179058869
:108AE000828983A3A3A3A3A3E064016003028B880C
:108AF00088828983A3A3A3A3A3A3E06401600302E4
:108B00008B88EA75F018A4F8A9F0747628FA740531
:108B1000390290410AE82418F8E93400F9EAC394CC
:108B2000025003028A900290440890058EE064018E
:108B300060907800900576E064027061E875F01846
:108B4000A4F8A9F0747728F582740539F583E064F8
:108B50000170537A007871790588828983A3A3A371
:108B6000A3A3E06402707488828983A3A3A3A3A350
:108B7000A3E064017065EA75F018A4F8A9F07476B2
:108B800028FA740539FB80690AE82418F8E93400EA
:108B9000F9EAC394025003028ADF02904408900568
:108BA0008EE0640260967A00787179058882898304
:108BB000A3A3A3A3A3E06508703A88828983A3A333
:108BC000A3A3A3A3E06401702BEA75F018A4F8A98D
:108BD000F0747628FE740539FF802C0AE82418F812
:108BE000E93400F9EAC394025003028B597A007BFE
:108BF000000290480AE82418F8E93400F9EAC3941E
:108C00000240A97E007F007800900576E06508703C
:108C10001BE875F018A4F8A9F0747728F58274059C
:108C200039F583E06401700D7A01800B0890058EA0
:108C3000E0650860DC7A00E5081460101470030237
:108C40008DAB24FE7003028EB5029044780090052F
:108C500076E064027055E875F018A4F8A9F074770E
:108C600028F582740539F583E0640170477B00784C
:108C700071790588828983A3A3A3A3A3E06402601A
:108C800003028D1988828983A3A3A3A3A3A3E0640D
:108C9000016003028D19EB75F018A4F8A9F0747641
:108CA00028F50A740539F50B028D310890058EE020
:108CB000640260A27800900576E064046003028D8F
:108CC00072E875F018A4F8A9F0747728F582740595
:108CD00039F583E064016003028D7E7B0078717951
:108CE0000588828983A3A3A3A3A3E064046003028D
:108CF0008D8988828983A3A3A3A3A3A3E0640160D1
:108D000003028D89EB75F018A4F8A9F0747628F5A4
:108D10000A740539F50B028DA10BE82418F8E93423
:108D200000F9EBC394025003028C73750A00750BB3
:108D300000EAA2E05035850A82850B83A3A3750C57
:108D4000F6750DFF750EFF750FFF780C1213B378D3
:108D50000C1218018E828F83A3A3121458122211B1
:108D60007404121598E9700302903EAA0AAB0B0234
:108D700090480890058EE064047003028CC1EAA25A
:108D8000E05021EEFAEFFB801F0BE82418F8E934DD
:108D900000F9EBC394025003028CE1750A00750BD5
:108DA00000028F977A007B00029048780090057649
:108DB000E064047051E875F018A4F8A9F0747728FD
:108DC000F582740539F583E0640170437B007871A6
:108DD000790588828983A3A3A3A3A3E06404600325
:108DE000028E6788828983A3A3A3A3A3A3E064015F
:108DF0007075EB75F018A4F8A9F0747628F50A746C
:108E00000539F50B80790890058EE0640460A6783A
:108E100000900576E064017069E875F018A4F8A97F
:108E2000F0747728F582740539F583E06401705B8E
:108E30007B007871790588828983A3A3A3A3A3E02B
:108E40006401705288828983A3A3A3A3A3A3E064CF
:108E5000017043EB75F018A4F8A9F0747628F50AB0
:108E6000740539F50B80440BE82418F8E93400F94F
:108E7000EBC394025003028DD2750A00750B0002F9
:108E80008F970890058EE06401608EEAA2E0501E84
:108E9000EEFAEFFB801C0BE82418F8E93400F9EB3C
:108EA000C394024091750A00750B00028F977A00F7
:108EB0007B000290487800900576E064017055E8E8
:108EC00075F018A4F8A9F0747728F582740539F5BF
:108ED00083E0640170477B0078717905888289831B
:108EE000A3A3A3A3A3E064016003028F7F88828908
:108EF00083A3A3A3A3A3A3E064016003028F7FEB7A
:108F000075F018A4F8A9F0747628F50A740539F5F7
:108F10000B028F970890058EE0640160A2780090A4
:108F20000576E064026003028FD6E875F018A4F8B5
:108F3000A9F0747728F582740539F583E06401603F
:108F400003028FE27B007871790588828983A3A36D
:108F5000A3A3A3E064026003028FE988828983A34C
:108F6000A3A3A3A3A3E06401707FEB75F018A4F89A
:108F7000A9F0747628F50A740539F50B0290010BF7
:108F8000E82418F8E93400F9EBC394025003028E88
:108F9000DC750A00750B00EAA2E04003028D6B85C8
:108FA0000A82850B83A3A3750CF6750DFF750EFF62
:108FB000750FFF780C1213B3780C1218018E828F84
:108FC00083A3A31214581222117404121598E96095
:108FD00003028D6B80680890058EE06402700302C6
:108FE0008F2AEAA2E0505D80550BE82418F8E93496
:108FF00000F9EBC394025003028F4A750A00750B07
:1090000000EAA2E04003028D6B850A82850B83A3F0
:10901000A3750CF6750DFF750EFF750FFF780C121A
:1090200013B3780C1218018E828F83A3A3121458E5
:109030001222117404121598E96003028D6BEEFA86
:10904000EFFB80047A007B00028A4974F61215F265
:109050008909750800900577E0600302911CE50816
:1090600075F018A4F8A9F0747628FE740539FF8EFF
:10907000828F83A37401F08E828F83E509F0120C36
:10908000078E828F83A3A31214648E828F83A3A37F
:10909000A3A3A3A3E4F0A3F0EE240EF582EF340023
:1090A000F58374FFF0A3F0A3F0A3F0EE2414F5828F
:1090B000EF3400F5837401F0EE2415F582EF3400EF
:1090C000F5837401F0EE2416F582EF3400F583E4A5
:1090D000F0A3F0900572E04509F0900571E004F00E
:1090E0006401600C7480650960067440650970193C
:1090F000E50875F018A4F8A9F0747628F874053915
:10910000F9900574E8F0A3E9F0E50875F018A4F803
:10911000A9F0747628FA740539FB8010750801905F
:10912000058FE0700302905E7A007B0080007F0272
:109130000216C4C082C0838A828B83E0F8A3E0F960
:109140008A828B83E4F0A3F088828983A3F08882EB
:109150008983E0F4F8900572E058F0900571E0140E
:10916000F0700B900574E4F0A3F09003A2F0801C63
:10917000C082C083900571E0600A900574E0FAA394
:10918000E0FB80047A007B008002E0F9D083D0828B
:1091900002011FC082C083E9FB7800900576E06B76
:1091A0007016E875F018A4F8A9F0747728F58274A1
:1091B0000539F583E0F9800A0890058EE06B60E2DE
:1091C000790080C8C082C08390057280BDC082C013
:1091D0008390057102918A74F61215F2EAFEEBFF94
:1091E0009061D0E0C0E0EE2400F582EF3401F58319
:1091F000D0E0F09061D7E0F89061D5E0C398547F5B
:10920000C0E0EE2401F582EF3401F583D0E0F09068
:1092100061D6E0C398547FC0E0EE2402F582EF34BB
:1092200001F583D0E0F0701A9061C5E0A2E450121D
:10923000E0A2E7500DEE2402F582EF3401F58374CD
:1092400080F0120CA9EE2401F582EF3401F583E0E1
:109250007034EE2402F582EF3401F583E07027903C
:1092600061C5E0A2E4501FE0A2E7501AEE2402F527
:1092700082EF3401F5837480F0EE2401F582EF343F
:1092800001F5837480F075E1957800EE2400F58295
:10929000EF3401F583E060279061D3E0C0E08808F7
:1092A000EE2508F582EF3400F583D0E0F008EE24D7
:1092B00000F582EF3401F583E0F9E8C39940D975F0
:1092C000E19102912E74F61215F2EAFEEBFF906125
:1092D000C8E0C0E0EE2403F582EF3401F583D0E06E
:1092E000F09061CFE0F89061CDE0C398547FC0E08A
:1092F000EE2404F582EF3401F583D0E0F09061CEE6
:10930000E0C398547FC0E0EE2405F582EF3401F508
:1093100083D0E0F0701A9061C5E0A2E05012E0A2A4
:10932000E3500DEE2405F582EF3401F5837480F0EF
:10933000120CAFEE2404F582EF3401F583E07034B3
:10934000EE2405F582EF3401F583E070279061C5C6
:10935000E0A2E0501FE0A2E3501AEE2405F582EFF0
:109360003401F5837480F0EE2404F582EF3401F5C6
:10937000837480F0120CB57A00EE2403F582EF348A
:1093800001F583E0602F9061CBE0C0E08A08EE2514
:1093900008F8EF3400F9E82480F582E93400F58319
:1093A000D0E0F00AEE2403F582EF3401F583E0F813
:1093B000EAC39840D175E18102912E74F21215F240
:1093C0008908A808E875F08AA4C8AAF02AF974A642
:1093D00028F8740539F99061C6E0FDE054F0F075A5
:1093E000E1817C00E82403F582E93401F583E06043
:1093F0002B8C0AE8250AFAE93400FBEA2480F5827E
:10940000EB3400F583E09061CAF00CE82403F582A8
:10941000E93401F583E0FAECC39A40D5E82405F578
:1094200082E93401F583E060049061CEF0E8240421
:10943000F582E93401F583E060049061CDF0ED90B0
:1094400061C6F0A808E875F08AA4C8AAF02AF974E1
:10945000A628F8740539F9E0FCE0540FF075E191A5
:109460007A00E82400F582E93401F583E060238A7C
:109470000AE8250AF582E93400F583E09061D2F02C
:109480000AE82400F582E93401F583E0FBEAC39B96
:1094900040DDE82402F582E93401F583E0600490C0
:1094A00061D6F0E82401F582E93401F583E0600437
:1094B0009061D5F0EC9061C6F0850882AE82EEF83E
:1094C00075F08AA4C8AAF02AF974A628F50A7405CA
:1094D00039F50B750C80750D00780C121805E50A2E
:1094E0002406FCE50B3401FD7A007B60120B357419
:1094F00002121598A80AA90BE82486F582E934011E
:10950000F583E0906195F0E82487F582E93401F570
:1095100083E0906196F0E82488F582E93401F583D0
:10952000E0906197F0E82489F582E93401F583E061
:10953000906198F0EE75F003A4CEA8F028FF74D2E5
:109540002EF58274033FF583E0F8A3E0F58388826B
:10955000E0648070079003A27408803F900A1C7436
:10956000B3F0A3740BF0A374B3F0A3740BF0A37463
:10957000B3F0A3740BF0A374B3F0A3740BF0A37453
:109580005FF0A3740BF0A374B3F0A3740BF0A37497
:10959000B9F0A3740BF09003A27407F0900A2A7438
:1095A0005FF0A3740BF0A3745FF0A3740BF0A374CB
:1095B0005FF0A3740BF0A3745FF0A3740BF0A374BB
:1095C0005FF0A3740BF0A3745FF0A3740BF07F063D
:1095D0000216C474F61215F29002D274FEF0A304BF
:1095E000F09002D5F09002D4F07A018A0875090053
:1095F0007402780812156F74D22508F874023509C0
:10960000F9EA88828983700774FEF0A304800474E9
:10961000FFF0A3F088828983A3A3A3F088828983C3
:10962000A3A3F00AEAC3940240C17A6D7B06120636
:10963000C17ABB7B0612093D790002A1C874F212FF
:1096400015F2EAFEEBFF8E828F83129C4560521268
:109650009772129791750B00780A1218058A828BFF
:1096600083A312181C7C027D007AA57B81120481E1
:109670007404121598E9702E850882850983129763
:1096800091780A1218058A828B83A312181C7C0217
:109690007D007AA77B811204817404121598E97009
:1096A00005790202976D9009F8129C45600CC3E49D
:1096B00098FAE499FB1297825005790102976D7A26
:1096C000067B00120F4F8A0A8B0BEA450B70057957
:1096D0001302976D7A007B0080409009F812A1096F
:1096E0008A0C8B0D7403780C12156F85088285091E
:1096F00083E0250CF8A3E0350D8882F583A3A3A3AE
:10970000A3ECF0A3EDF09009F8E02401F0A3E0341D
:1097100000F0EA24010AEB3400FB12978240BB857B
:109720000A82850B83E4F0A3F0750804F509780834
:10973000121805EEFCEFFD129F12120EBF740212FA
:1097400015989002DA129C459002DA6017E0FAA3AD
:10975000E08003E8FAE9FB8A828B83129C4570F370
:109760008A828B83E50AF0A3E50BF079007F06027D
:1097700016C4EE2402F508EF3400F509850882F5D9
:1097800083228E828F83E0F8A3E0F9C3EA98EB99F5
:109790002212A12A8A828B83E0F50A22C082C0832A
:1097A000E99009F7F0D083D08202011F74F71215F7
:1097B000F2E9FE74145E60047C018007EEA2E650BC
:1097C000097C007910120967800AA2E0400479023E
:1097D000800279007F010216C474F71215F289081D
:1097E000ECFEEDFFE9A2E550097C01791012096752
:1097F000803C74885508602B74085508FC79101259
:109800000967E96027EE2418F582EF3400F583E05C
:10981000601CEE2417F582EF3400F583E0640160EC
:109820000B800BE9A2E1400479038002790080A457
:1098300074F41215F274E9121582EAFEEBFF89083E
:10984000E4F50AF50B780A121805750A02780A126F
:109850001805750AB9750B81780A1218057CFF7D09
:10986000FF7A017B0012064974061215988A828BD2
:1098700083E5824583605612A2AB851882851983E1
:10988000E8F0A3E9F074021215CE7404F014121576
:10989000CE7401F074041215CEE4F074051215CEE6
:1098A00074FFF074061215CE74FFF0E508F5097820
:1098B00009121809790074011215CEAC82AD83EE3D
:1098C000FAEFFB1206617401121598800279017497
:1098D000171215987F040216C474EA1215F28A1240
:1098E0008B138C108D119002DAE0F508A3E0F509D6
:1098F00074161215CEE0F514A3E0F51574181215C0
:10990000CEE0F50AA3E0F50B800D8508828509837A
:10991000E0F508A3E0F509E508450970030299D7C9
:109920007E007F00E5082404F50EE5093400F50FFC
:109930008008EE24010EEF3400FF8508828509833C
:1099400012A2ADC3EE98EF9950C08E0C8F0D740328
:10995000780C12156F850E82850F83E0250CF50CAF
:10996000A3E0350DF50D850C82F58312A2ABC3E89B
:109970009512E9951340BBC3E51098E5119940B2E3
:10998000E50A450B6023780A1218057814121805A9
:10999000850C82850D83E0FC7D00A312A1261204B4
:1099A000817404121598E96089741A1215CE129CFC
:1099B00045601E850E82850F83E0FAA3E0F5838A59
:1099C00082A3A3A3A312A12688828983EAF0A3EB32
:1099D000F0AA0CAB0D80047A007B007F0E0216C447
:1099E00074EE1215F2ECFEEDFF9002DAE0FCA3E05B
:1099F000800A8C828D8312A2AFE8FCE9FDEC4D70E9
:109A000003029AA18C828D8312A2AB8808890988EF
:109A100082F583A3A3A3A3E0F50CA3E0F50DC3EAAD
:109A2000950CEB950D40CB8C828D83A3A3E0F50EB6
:109A3000A3E0F50FE50C250EF8E50D350FF9C3EAA7
:109A400098EB9950AD750A00750B00800CE50A245F
:109A500001F50AE50B3400F50BC3E50A950EE50B9D
:109A6000950F508E850A10850B117403781012150E
:109A70006FE5082510F8E5093511F988828983A377
:109A8000A3A3A3E06A7003A3E06B70C1EE4F600B69
:109A90008E828F83E50CF0A3E50DF0E8FAE9FB80F8
:109AA000047A007B007F0A0216C474F01215F27467
:109AB000FE121582EAFEEBFF750800750900851895
:109AC00082851983E4F0A3F0EE2404F50CEF340052
:109AD000F50D850C82F58312A2B5A385820A8583D4
:109AE0000B74FF6A700374FF6B603D8518828519E3
:109AF0008385820885830978081218058E828F83F2
:109B0000E0F5087509007808121805850A82850BAA
:109B10008312181CEA24010AEB3400FB1206497474
:109B2000061215988A088B098E828F8312A36512FC
:109B30001805850A82850B8312181C7C027D007A29
:109B4000A57B811204817404121598E970288E8215
:109B50008F83E0F50E780E121805850A82850B8337
:109B600012181C7C027D007AA77B81120481740488
:109B7000121598E9600B850C82850D8312A1268051
:109B8000458E828F83E0F50E780E121805850A82C5
:109B9000850B8312181C7C027D007AA97B8112043C
:109BA000817404121598E9603674121215CE12A150
:109BB00026E5084509600F851882851983E06A70DB
:109BC00003A3E06B6005120667801F850882850984
:109BD00083A3A3A3A3E024FFFAA3E034FF800A85B4
:109BE0000C82850D83E0FAA3E0FB74141215CE12EB
:109BF000A2AF88828983E58245836005EAF0A3EB02
:109C0000F0AA08AB09740202A2BDC082C083900210
:109C1000DA129C45602888828983A3A3A3A3E0FC71
:109C2000A3E0F5838C82A3A3A3A3E06A7003A3E05F
:109C30006B8882898370DAA3A312A12680047A003C
:109C40007B000297A5E0F8A3E0F9E8492274F2123C
:109C500015F274FE121582EAFEEBFF8C088D09895D
:109C60000A851882851983AC82AD831206A9E9F5AD
:109C70000B706FE50A60107C017910EEFAEFFB12B1
:109C80000967E9F50B705BAC08AD09EEFAEFFB1262
:109C900003F1E9F50B704B851882851983129CEC52
:109CA00074101215CEE0F50874FF65086034EE24D8
:109CB00002F50CEF3400F50D780C121805750C1E2A
:109CC000750D00780C121805EEFCEFFD7AB57B06D9
:109CD0001206E574041215988E828F83A3A3A3E560
:109CE00008F0A90B740212159802976DE0FEA3E02C
:109CF000FF2274F61215F2EAFEEBFF12065BEA4B46
:109D0000600FEE24FFF8EF34FFF9EA28FAEB398010
:109D100003EEFAEFFB02A1C874F01215F274E3121D
:109D200015828A088B0912A0F8E0F50F741E650FE2
:109D300070541206AF8A0A8B0BEA450B7003029F20
:109D40000BEA2403F50CEB3400F50DE4F50EF50FEA
:109D5000780E1218058E828F83E0FD7C00AA08AB76
:109D600009850C82850D83E0F91206DF7402121555
:109D700098E9F50E129F121206EB850C82850D8371
:109D800074FFF0029F0B9009F7E0F4606BE50FC3DE
:109D900094195064E50FC313F50A750B007402782B
:109DA0000A12156F7400250AF87480350BF9E8243F
:109DB000FCFAE934FFFB8A0C8B0D8A82F58312A131
:109DC00026EA4B6033E824FEF582E934FFF583127E
:109DD0009C4560248C828D83A385820A85830B8CAD
:109DE000828D83E0F9700B850A82850B83E0640124
:109DF000700B7412650F60057906029F0D740412D2
:109E000015CE85820E85830F780E1218058C828DF3
:109E100083A3A3A312181C8C828D83A3A3A3A3A343
:109E200012A109850A82850B83E0FA850C82850DD3
:109E300083129F1D1215F07404121598E9F50E6037
:109E400003029F0B74041215CEAC82AD83AA08AB3B
:109E5000098E828F83E0C313F50C750D00740278B0
:109E60000C12156F74FE250CF582747F350DF58389
:109E7000129F1D1215F0E9F50E70368E828F83E069
:109E8000FD74046D7003029F0B74041215CE85825D
:109E90000A85830B780A1218057C00AA08AB099082
:109EA00009F7E0F91206DF7402121598E9F50E8041
:109EB0005A850A82850B83E070518E828F83E085FC
:109EC0001882851983F074031215CEE9F08E828F03
:109ED00083E0F8740468600D7406686008740868AC
:109EE000600374106874041215CE12A2AF740112CC
:109EF00015CEE8F0A3E9F0851882851983AC82AD10
:109F000083AA08AB091203A9750E00A90E741D02DD
:109F1000A2BDE50A2402FAE50B3400FB22E0F8A317
:109F2000E0F583888222790002011F74F01215F295
:109F300074EA1215828A0C8B0D8C828D8312A126F5
:109F4000750A0012A0F8C3E09AA3E09B4004EA4B14
:109F50007005790102A0F3851882851983E4F0E485
:109F6000F508F50978081218057808121805780818
:109F70001218058E828F8312A109120649740612E7
:109F800015988A088B09A808A909E849700302A056
:109F90005288828983A3AA82AB83E82404F508E966
:109FA0003400F509851882851983E0600302A063F7
:109FB00088828983E06402700B74011215CE7401EB
:109FC000F002A07074011215CE7402F012A10F7588
:109FD000F012A4F885F00BA90BE58228F582E58341
:109FE00039F583A3A3ECF0A3EDF0750E10750F0007
:109FF000780E12180512A10574021215CEE075F044
:10A0000012A4F8A9F0E58228F8E58339F9E82404D8
:10A01000FAE93400FB120EBF7402121598851882FB
:10A02000851983E004F0700F850882850983E0F4C8
:10A030007003A3E0F47003750A0185088285098323
:10A04000E02401FAA3E03400FBE50AA2E0400302A9
:10A050009F5F851882851983E0600302A0E6790A74
:10A0600002A0F374011215CEE064016003029FCCDC
:10A0700088828983E0640270D912A10FF50E750FF2
:10A08000007402780E12156FE582250EF582E583C5
:10A09000350FF583A3A3ECF0A3EDF0750E02750F59
:10A0A00000780E12180512A10574021215CEE0F503
:10A0B0000E7402780E12156FE582250EF8E58335D1
:10A0C0000FF9E82404FAE93400FB120EBF740212FF
:10A0D0001598851882851983E004F0C39405400320
:10A0E00002A03702A028AC82AD83AA0CAB0D1203EC
:10A0F000B57900741602A2BDEC2402FEED3400FF17
:10A100008E828F83228A828B83E0FCA3E0FD2285EE
:10A110000882850983E0FCA3E0FD85188285198308
:10A12000E0228E828F8312A12A22E0FAA3E0FB2292
:10A1300074F61215F212A1DA4004EA4B70047901A8
:10A140008039E4F508F50978081218058C828D83AA
:10A15000A3A3A3A3E0F508780812180512A1CD1255
:10A160001805EEFCEFFD12064974061215988B09CE
:10A17000EA45097004790A80027900804B74F6126E
:10A1800015F212A1DA4004EA4B700479018039E437
:10A19000F508F50978081218058C828D83A3A3A30E
:10A1A000A3E0F508780812180512A1CD121805EEE3
:10A1B000FCEFFD12064974061215988B09EA450951
:10A1C0007004790A800279007F020216C4EC24052B
:10A1D000F508ED3400F5097808228C828D83A3A35D
:10A1E000129CEC8C828D8312A12AC3EE9AEF9B22E3
:10A1F00074F61215F2EAFEEBFF8C828D837C007DF3
:10A200000012A12612064F8A828B83E58245837055
:10A21000047901800CA3A3A3E0F9EEFAEFFB120688
:10A220003780A574F01215F28A0A8B0BECFEEDFF55
:10A23000750C008002050CEE2416F582EF3400F553
:10A2400083E0F8E50CC398505EE50CC333F8E433C3
:10A25000F9EE28F508EF39F5097C007D00850882C4
:10A26000F58312A12612064F8A828B83E5824583ED
:10A27000701685088285098312A2AF8E828F83E8CB
:10A28000F0A3E9F079018021A3A3A3E0F9AA0AAB26
:10A290000B120637E9609E85088285098312A2B5F4
:10A2A000EAF0A3EBF0800279008015A3A3A3A3E05A
:10A2B000F8A3E0F92212A12A8E828F832212159828
:10A2C0007F080216C474F01215F2ECFEEDFF8E82C8
:10A2D0008F8312A2AF129772C3E098A3E099400453
:10A2E000E84970047901807AEE2405F50CEF34001A
:10A2F000F50DEE2404F50AEF3400F50B850A82F51E
:10A300008312A365121805780C1218057C027D00D3
:10A310007AA57B811204817404121598E97004797E
:10A3200010803FE4F50E780E121805850A82850B21
:10A3300083E0F50A750B00780A121805780C1218DC
:10A340000585088285098312A10912A122120649F6
:10A3500074061215988B09EA45097004790A80027F
:10A36000790002A2C0E0F50E750F00780E2274F499
:10A370001215F28A088B09ECFEEDFF7C007D0012BD
:10A38000A12212064F8A828B83E58245837004796D
:10A39000018010EEFCEFFDA3A3A3E0F9AA08AB092E
:10A3A00012063D0298D4029F2674F61215F2ECFEB6
:10A3B000EDFF1206AF8A088B09A808A909E84960D1
:10A3C0002BEE4F60098E828F83E8F0A3E9F088823C
:10A3D0008983A3A3E0F874FE6870047917800F7472
:10A3E000FF6870047900800679168002790202A164
:10A3F000C874F61215F27508009002D2E06A700374
:10A40000A3E06B70167509007402780812156F745A
:10A41000D22508FA74023509FB80137508019002F1
:10A42000D6E06A7003A3E06B60DB7A007B0002A1D8
:10A43000C874F41215F2EA4B604BEA2402F508EBFB
:10A44000129778E0F874FF68603B74FE686036EA43
:10A450002403FEEB3400FFE4F50AF50B780A12182A
:10A46000057D1E7C178A828B8312A2B5E0F9120645
:10A47000DF740212159885088285098374FEF08EB8
:10A48000828F8304F00298D474F01215F28A0A8B3A
:10A490000B890C74FE650A700474FF650B7003026F
:10A4A000A572E970301206AF8B09EA450960030214
:10A4B000A5727AFF7BFF1206AF8A088B09A808A94C
:10A4C00009E849700302A57288828983E50AF0A32E
:10A4D000E50B02A5717401650C701D1206AF8A08A8
:10A4E0008B09A808A909E849700302A57288828926
:10A4F0008374FFF0A3F080217402650C70747901FD
:10A5000012095BE9706CAA0AAB0B1206AF8A088BC2
:10A5100009A808A909E8496059E82402FEE93400BD
:10A52000FF8E828F83E0FA74FF6A6046E82403F5A9
:10A5300008E93400F50974FE6A6022E4F50EF50FAF
:10A54000780E1218057D1E7C14AA0AAB0B850882B2
:10A55000850983E0F91206DF7402121598EEFAEF0E
:10A56000FB1206EB85088285098374FFF08E828FCB
:10A5700083F002A2C074F41215F2E99003A1F01264
:10A580000C13907800E0C4540F54076403700479EE
:10A590003F8002797F750806750900780812180552
:10A5A0007C8F7D037AEA7B071210F37402121598F0
:10A5B00090038FE0F47049A3E0F47044A3E0F470DA
:10A5C0003FA3E0F4703AA3E0F47035A3E0F47030F8
:10A5D00090780EE090038FF090780FE0900390F069
:10A5E000907810E0900391F0907811E0900392F051
:10A5F000907812E0900393F0907813E0900394F039
:10A6000090039574FFF0A3F0A3F0A3F0A3F0A3F0E0
:10A6100090038FE090039BF0900390E090039CF0F8
:10A62000900391E090039DF0900392E090039EF0E0
:10A63000900393E090039FF0900394E09003A0F0C8
:10A640009003BF7406F0A3740DF0A3E4F0A374406C
:10A65000F0A37401F09004EB74FFF0A3F0A3F0A357
:10A66000F0A3F0A3F09004EAE4F09004F1F0A374F6
:10A67000A0F0A3E4F0A37403F0A37407F0A3E4F044
:10A68000A37428F0A3E4F0A304F0A3E4F090051A67
:10A69000F090053D74FFF0A3E4F090053FF09005C5
:10A6A0004104F09005427490F0A37401F0120A394D
:10A6B000120991120BD179017A447B05120B179084
:10A6C0000544E075F01484E5F004F0790C7A657BBC
:10A6D00005120B17120B2F7A009003A1E0F9120F4D
:10A6E00067907803E064427055900544E014F07080
:10A6F0004DC2AF12A6F600782AD0E0F618D0E0F6E8
:10A70000E59F540770057509FF800375097FC4C074
:10A71000E07829E6F50808E65509F509740B78088C
:10A72000121560D0E02508F8906270E0A2E740F8CA
:10A73000E8C333906272F0906270E0D2E0F0900370
:10A74000CCE4F0A3F07A80FB9003A1E0F9120F13A0
:10A7500002AC3E74F41215F2EAFEEBFFEEA2E050FA
:10A76000459003A3E0C39480E0500FC333F8E43373
:10A77000F9741C28F582740A800EF4C333F8E433AC
:10A78000F9742A28F582740A39F583E0F8A3E0F514
:10A790008388821215F07A009003A1E0F9120F6706
:10A7A000EE640102A979540260407508007808122D
:10A7B0001809E4F5097808121805780812180578C0
:10A7C000081218057508D67509047808121805903E
:10A7D00004D5E0FD7C017A007B00793C12085974B5
:10A7E00009121598EE640202A979EE54047003026E
:10A7F000A88F9003D0E0F875F003A4C8AAF02AF956
:10A8000074D228FA740339FBEA242AF582EB340067
:10A81000F583E0F5087808121809EA2432F582EB8E
:10A820003400F583E0F508A3E0F509740478081214
:10A8300015607808121805EA2420F582EB3400F53B
:10A840008312181CEA242EF582EB3400F583E0F520
:10A8500008A3E0C313F509E50813F50878081218F2
:10A86000057508D675090478081218059004D5E016
:10A87000FD7C018A828B83A3A3A3A3E0FA7B0079EA
:10A88000001208597409121598EE640402A979EEB1
:10A89000544060407508007808121809E4F50978FA
:10A8A0000812180578081218057808121805750896
:10A8B000D675090478081218059004D5E0FD7C01CE
:10A8C0007A007B00793B1208597409121598EE64DE
:10A8D0004002A979EE5480603B900542E0F8A3E085
:10A8E000F9E849602A7900120F61900542E0F50805
:10A8F000A3E0F509E4F50AF50B78081218017A00CF
:10A900007B019003A1E0F9120F8B7404121598EEED
:10A9100064808065EF5401600C7901120F61EEFADA
:10A92000EF64018056EF5402600AC2AF75C9AB757F
:10A93000C95B80FEEF5404600A12246BEEFAEF64E8
:10A940000480389003A8E064017033EE5420602E38
:10A950009003A2E024F9600314701B793F9003D0A8
:10A96000E0FA75F003A4CAA8F028FB74D22AFA749E
:10A97000033BFB120ADBEE6420FAEFFB80047A0053
:10A980007B0002AC3E74F61215F2C3EA9411EB940C
:10A990000050047A1080027A20EA2408FAE4340095
:10A9A000FB1211538A088B09A808A909E849600A13
:10A9B000E82404FAE93400FB80047A007B0002AF4B
:10A9C0007C74F61215F2EA2405FAEB3400FB12113E
:10A9D000538A088B09A808A909E849600AE82405F0
:10A9E000FAE93400FB80047A007B0002AF7CC0826D
:10A9F000C083C2AF120BF5E5E170FC75E101120AEC
:10AA00002D75E1F1120C1F120A277907120C9179AA
:10AA100001120C977902120C49120C67120C8579FD
:10AA200000120C8B7901120C8B7A557B557C557D6D
:10AA300000120C319004D5E4F0A3F0A3F0A3F0A32E
:10AA4000F0A3F0A3F09004F1F0A3F0A3F09004F5CC
:10AA50007407F09004F47403F09004FAE4F09004A6
:10AA6000F9F090051AF0120AC9120B65120AE17981
:10AA700000120C9D9004DC74FFF0A3F0A3F0A3F08F
:10AA8000A3741FF0906012E4F0A3F0906063F0757F
:10AA900021009003A2F09004E1F09004E2740CF025
:10AAA0009004E3E4F09004E404F09004E5E4F09012
:10AAB00004E604F09004E7E4F09003A4F0A3F0901F
:10AAC00003A7F09003A804F09003BE04F0900540A3
:10AAD000E4F0D2AFF902B4A6C082C08390038FE045
:10AAE0008A828B83F0900390E08A828B83A3F0901C
:10AAF0000391E08A828B83A3A3F0900392E08A8281
:10AB00008B83A3A3A3F0900393E08A828B83A3A3F8
:10AB1000A3A3F0900394E08A828B83A3A3A3A3A3AF
:10AB200002B4A3C082C0838A828B83E0900395F035
:10AB30008A828B83A3E0900396F08A828B83A3A3FF
:10AB4000E0900397F08A828B83A3A3A3E0900398FD
:10AB5000F08A828B83A3A3A3A3E0900399F08A8257
:10AB60008B83A3A3A3A3A3E090039A02B4A3C08200
:10AB7000C083120A45E97005120C67790002B4A679
:10AB800074F71215F2EAFEEBFF8908120A45E97024
:10AB90002CE508600A74016508600A7912801E7C41
:10ABA00000790080047C007901EEFAEFFB120C6D55
:10ABB000E9F8740368700479078002790002AF77BE
:10ABC00074F61215F2EA4B6016EC4D6012740A121C
:10ABD00015CEE0F508A3E0F509E50845097004790C
:10ABE00012800F7808121805120B2974021215989A
:10ABF000790002AF7C74F41215F2EAFEEBFF8908CB
:10AC00009003A2E064096014E0640A600FE0640B42
:10AC1000600AE0640C6005E0640D7004790C801E2D
:10AC2000120B898B0BEA450B700BA908EEFAEFFBB0
:10AC3000120B1780099003A4E04440F0790D7F04C3
:10AC40000216C474F61215F2EA4B6003E970047937
:10AC500012801CEAFEEBFF8908120B11E98E828F2D
:10AC600083F0A3AE82AF831508E50870EC7900028B
:10AC7000AF7CC082C083E9F8740168700B90054016
:10AC80007401F0790002B4A6E87006900540E480F3
:10AC9000F1791280F0C082C0839003A2E0640C704E
:10ACA0001290618EE0F974806970258C828D8374B6
:10ACB0007F8029C3EB940F5013EA4B700F9003D59C
:10ACC000E070047902801890043A80D87912800FDD
:10ACD0009003A6E0F8E9C3988C828D83F079000296
:10ACE000B4A674F71215F2E9FE74056E601E7413B3
:10ACF0006E601974146E601474156E600F741A6EA1
:10AD0000600A74296E6005743B6E7026C3EB940F65
:10AD10005020EA4B701C9003D5E070047902804407
:10AD200090043BE064017025A3E064027008793A66
:10AD300080327912802EEE9004C6F09003EFE4F09A
:10AD4000A3F079027AD27B03120AB78015EE900441
:10AD5000C6F09003EFE4F0A3F079027AD27B0312FD
:10AD60000AAB790002AF7774EA1215F2EC4D601469
:10AD7000E9C3941C500E74161215CEE0F8600A74E4
:10AD800001686005791202AF72C3EB940F5019EAA3
:10AD90004B70159003D5E070047902800D9004E2A9
:10ADA000E0700A790702AF72791202AF72EC24FEEA
:10ADB000FCED34FFFD8C828D83E9F0E870047402B1
:10ADC00080027401A3F0EC24FEFCED34FFFD7A3523
:10ADD0007B04120AFF9004E2E014F09003A2E06406
:10ADE000086008E06407600302AF709003D0E06081
:10ADF0000302AF7079007AD27B03121D7A9061D082
:10AE0000E0700302AF709004E6E06401600302AFFB
:10AE1000709003EFE0F8A3E0F9E849700302AF7027
:10AE2000A2AFE433F514C2AF120B898A088B09AEC6
:10AE300008AF09120C078A108B118C128D138A0827
:10AE40008B098C0A8D0B750C01750D00750E007544
:10AE50000F007808790C1213A078081218018E825E
:10AE60008F83A3A31214581222117404121598E9A7
:10AE70006401600302AF6A900400E02406F508A3B1
:10AE8000E03400F509E4F50AF50B7810790812139F
:10AE9000A078101218018E828F83A3A31214581267
:10AEA00022117404121598E96401600302AF6AEE7E
:10AEB0002408F50CEF3400F50D850C82F58312188B
:10AEC00018AA10AB11AC12AD1312226A7404121539
:10AED0009890040012181C1221C074021215988A4E
:10AEE000088B098C0A8D0B74107808121368900374
:10AEF000DBE0F8A3E0F99003D7E8F0A3E9F0E82558
:10AF000008F8E93509F9A3E8F0A3E9F0850C828592
:10AF10000D83C082C083900400E0F50CA3E0F50D22
:10AF20007808790C121279D083D08278081213B382
:10AF3000750CFF750DFF750EFF7808790C12140162
:10AF40008E828F83A3A3E508F0A3E509F0A3E50AA9
:10AF5000F0A3E4F0900407E0900406F07AD27B03BB
:10AF6000121A06EEFAEFFB120B71E514A2E092AF93
:10AF700079007F0E0216C47F010216C47F020216FA
:10AF8000C474F61215F2EAFEEBFF8908740B121571
:10AF9000CEE0F509740C1215CEE0F8A3E0F9E5084F
:10AFA000605F74016508601574036508602F7402A2
:10AFB0006508602974046508600302B05CE84970A4
:10AFC0000302B05CE509600974016509600302B021
:10AFD0005C740365086006740265087046EE2460C0
:10AFE000FAEF34FFFBC3EA9461EB943F506EEC241C
:10AFF00060FAED34FFFBC3EA9461EB943F40248098
:10B000005BEE24E0FAEF34FFFBC3EA94E1EB943FFC
:10B01000504AEC24E0FAED34FFFBC3EA94E1EB94F0
:10B020003F5039C3EC9EED9F4032740A1215CEE0BA
:10B03000FA600574016A7024740F1215CEE0FC608A
:10B040000F74016C600A74026C600574036C700C00
:10B05000740E1215CEE0FB74075B7005791202B115
:10B06000BD9004F1E064017005790C02B1BDE50802
:10B070009004F4F074075BA3F0ECA3F0EA9004EA08
:10B08000702FE4F090038FE09004EBF0900390E0D9
:10B090009004ECF0900391E09004EDF0900392E0C6
:10B0A0009004EEF0900393E09004EFF0900394800E
:10B0B0002E7401F0900395E09004EBF0900396E07D
:10B0C0009004ECF0900397E09004EDF0900398E08A
:10B0D0009004EEF0900399E09004EFF090039AE072
:10B0E0009004F0F0740165087053E5099004D5F000
:10B0F00088828983E09004D6F088828983A3E090D7
:10B1000004D7F088828983A3A3E09004D8F08882D2
:10B110008983A3A3A3E09004D9F088828983A3A3A1
:10B12000A3A3E09004DAF088828983A3A3A3A3A356
:10B13000E09004DBF09004F2E4F0A3807D740465F9
:10B1400008704DE5099004D5F088828983E0900469
:10B15000D6F088828983A3E09004D7F0888289831F
:10B16000A3A3E09004D8F088828983A3A3A3E090EE
:10B1700004D9F088828983A3A3A3A3E09004DAF022
:10B1800088828983A3A3A3A3A3E09004DBF0802398
:10B19000EC70047900801974016C700479018010DE
:10B1A00074026C70047902800774036C7005790373
:10B1B000120C739004F2EEF0A3EFF0790002AF7C72
:10B1C00074F61215F2E9FEC39420500BEE9004FAC7
:10B1D000F06023EA4B700479128023E0F5087509CA
:10B1E000007808121805EAFCEBFD7AFB7B04120ECE
:10B1F000BF74021215989004F97401F0790002AF3F
:10B200007C74F01215F2E9FE9003A2E06409700369
:10B2100002B32AE0640A700302B32AE0640B7003ED
:10B2200002B32AE0640C700302B32AE0640D7003D9
:10B2300002B32A9004F4E0601664016012E0640333
:10B24000600DE064026008E06404600302B39F9054
:10B2500004EAE060076401600302B39F9004F4E035
:10B2600064036005E0640270109004F2C3E094A0EF
:10B27000A3E09400500302B39FEE700302B33814AE
:10B28000600302B39F9004F1E06401700302B32AEB
:10B290009004F4E0600964016005E06404700B123E
:10B2A0000B95E954FD600302B32A7901120B7D90DE
:10B2B00004E8EAF0A3EBF09004F17401F09003A22B
:10B2C000E0706E120C078A088B098C0A8D0B750CC6
:10B2D00003750D00750E00750F007808790C1213B8
:10B2E000A0750CFF750DFF750EFF7808790C121410
:10B2F000019004E8E0F8A3E0F5838882A3A378082E
:10B300001214499004E8E0F8A3E0C82406F582E8A6
:10B310003400F583E4F0A3F0120A4BE960107AE8F8
:10B320007B04120B839004F1E4F079218005120B69
:10B330006B79007F080216C49004F1E060ECA2AFC4
:10B34000E433FFC2AF7AE87B04120B839004F1E48C
:10B35000F0120B9BE97041120BF5906182E0C2E69E
:10B36000F0E5E170FC75E1017591BF75E1F19003C5
:10B37000A8E0640170187A207B009003A1E0F91224
:10B380000F977A207B009003A1E0F9120F197A0041
:10B390009003A1E0F9120F67EFA2E092AF809279DB
:10B3A00012809074F61215F2E9FEC39420500BEE51
:10B3B00090051AF06023EA4B700479128023E0F5BF
:10B3C000087509007808121805EAFCEBFD7A1B7B6A
:10B3D00005120EBF74021215989004F97401F079E9
:10B3E0000002AF7CC082C0839003A2E064076004C7
:10B3F000790C805CEC4D605BC3EB940F5055EA4BCD
:10B4000070519003D5E07004790280447A008C82F8
:10B410008D83E0C0E0EAF8C3E498F895E0F9749F02
:10B4200028F582740439F583A3A3A3A3D0E0F00A1E
:10B430008C828D83A3AC82AD83EAC3941040CF90FD
:10B4400004A57401F079057AD27B03120AAB790066
:10B4500002B4A6791280F9C082C0839003A2E0648E
:10B46000076004790C8039C3EB940F5020EA4B70CD
:10B470001C9003D5E07004790280259004AEE0644E
:10B4800001700E9004C67406F07902800A79128069
:10B490000FA37406F0790D7AD27B03120AAB790000
:10B4A00002B4A6F07900D083D08202011FC082C00E
:10B4B00083E9F8900541E07004790C800EE8600D96
:10B4C0001470109003A77401F0790080D99003A73D
:10B4D000E480F5791280F474F21215F28908EAFE1C
:10B4E000EBFF8C09750A1274FE6E700374FF6F70A7
:10B4F000189002A212BF28607212B570606D7AFEB9
:10B500007BFFA9081215F0805A74FF6E700374FF58
:10B510006F70359002A212BF28601312B570600ED2
:10B520007AFF7BFFA9081215F0E9F50A600CAA0959
:10B53000A908120559E9F50A7031E5089002A4F04E
:10B54000E5099002A5F0802312094F8A828B83E5DA
:10B550008245836016E06508700EA909EEFAEFFBDC
:10B560001207ABE9F50A8003750A03A90A02B702BC
:10B57000E0F5838882E0F8A3E0F988828983E58298
:10B5800045832274F21215F2890AECFEEDFF900257
:10B5900081E064026005E0640170047912805CEE71
:10B5A0004F70047902805412094F8A088B09EA45CA
:10B5B00009700479148044E50A600B8A828B83A3A6
:10B5C000A3A3E0D2E1F0750C10750D00780C1218F1
:10B5D00005EEFCEFFDEA240DFAEB3400FB120EBF82
:10B5E000740212159812BC10121458E508241DF5A7
:10B5F00082E50912C3AC121464790002B70274F236
:10B600001215F28A088B09ECFEEDFF900281E064CE
:10B6100002600EE064016009E064087009EE4F60AA
:10B6200005791202B702EA45097005790202B702EC
:10B630009002A012BF286005791102B7028A828B9E
:10B640008312BD1612094F8A0A8B0BEA450B70054F
:10B65000791402B7027A1F7B00120F4F9002A012DA
:10B66000C3C29002A012BF287005791302B7027CF2
:10B670001F7D007900120ED712BD1012B707A3125A
:10B68000C3C2750C16750D00780C121805E5082458
:10B6900002FCE5093400FD9002A0E02403FAA3E0D7
:10B6A0003400FB120EBF740212159812B707740211
:10B6B000F0900281E0A2E35004D2F08002C2F09048
:10B6C00002A0E02403F50CA3E03400F50D780C1281
:10B6D000180512B7139002ACE0FAA2F0E433F912A5
:10B6E0000D3F7402121598E9F508EE4F600BEEFC61
:10B6F000EFFDAA0AAB0B120D7BE50860031205658E
:10B70000A9087F060216C49002A0E0F8A3E0F58322
:10B71000888222850882850983E0FCA3E0FD2274EB
:10B72000F41215F274FF121582EAFEEBFF8908127B
:10B73000094F8B0BEA450B7004791480148518822D
:10B74000851983E508F0AC82AD83EEFAEFFB120DAC
:10B750006374011215987F040216C474F01215F276
:10B7600074F01215828A0C8B0D8C0E8D0F742012C2
:10B7700015CEE0FEA3E0FFEEFAEFFB12094F8B09B6
:10B78000EA4509700479128071908165780C121273
:10B790005A5004790280637C107D007900851882FC
:10B7A000851983AA82AB83120ED7851882851983E7
:10B7B000E50CF0850D09E509F50874011215CEE5D3
:10B7C00008F0850C08850E0A850F0B741078081296
:10B7D000136874021215CEE508F07418780C121371
:10B7E0006874031215CEE50CF0EEFCEFFD851882AF
:10B7F000851983AA82AB83120D4574101215987FA8
:10B80000080216C474F01215F28A0A8B0B890E8C8A
:10B810000C8D0D74101215CEE0F50F900281E064CE
:10B82000026005E064017005791202B8D4EC450DA0
:10B830007005790202B8D412094F8A088B09AE0844
:10B84000AF09EE4F7005791402B8D4EE2421F50843
:10B85000EF3400F50985088212B8E16003120F5534
:10B860007C1B7D00AA0CAB0D120ECB8508828509CE
:10B870008312C3C212B713EC4D7004791380559034
:10B880000281E0A2E35037E50F6033EC2412F508A3
:10B89000ED3400F5097808121805EC2410F582ED56
:10B8A00012C3AC12181CEC241AF582ED12BA4AF934
:10B8B000AA0AAB0B120D817404121598800279004C
:10B8C000EE2403F582EF12BA4AD2E2F0E50E6004EC
:10B8D000E0D2E1F002B7FF12C3A0241BF582E834E6
:10B8E00000F583E0FAA3E0FBEA4B2274EA1215F2BA
:10B8F0008A0E8B0FEA450F700302BA4590029E1222
:10B90000BF28600512B70D800390093BE0F50C904D
:10B9100002AD12BF28600F12B70DA3A312B5756058
:10B920000579001215F0E50E2407F50AE50F34003D
:10B93000F50BE50E2408F508E50F3400F509AA0813
:10B94000FB850A82850B83E0F91204BDE9FB850AB9
:10B9500082850B83F0E50E2403FEE50F3400FFE53E
:10B960000E2404F512E50F3400F513E50E240EF550
:10B9700010E50F3400F511E50E2414F582E50F12E1
:10B98000BA4AF5147515007814121805E50E24123C
:10B99000F582E50F12C3AC12181CE50E2410F582D7
:10B9A000E50F12C3AC12181C851082851183121882
:10B9B0001C85128285138312181CAC08AD09AA0CD1
:10B9C0008E828F83E0F9120547740A1215988E82D1
:10B9D0008F83E0703185108285118312181C7808DE
:10B9E000121805850A82850B83E0FD7C0185128291
:10B9F00085138312BD16A90C1209437404121598FD
:10BA0000E98E828F83F090029E12BF286037120564
:10BA10006B9002A4E0602E9002A5E0FA9002A4E0F0
:10BA2000F9120559E9601E8E828F83E0FB85128230
:10BA300085138312B7199002A4E0FAEBF912054DB1
:10BA40009002A4E4F07F0E0216C412C1AAE0227490
:10BA5000F71215F2EAF8EBF988828983A3A3A3A36E
:10BA6000A3A3A3A3A3A312181C88828983A3A3A3BF
:10BA7000A3A3A3A3A312181C88828983A3A3A3A3AF
:10BA8000A3A312B71988828983A3A3A3A312BD1607
:10BA900088828983A3A3A3E0F912055374041215C5
:10BAA000987F010216C474F21215F2EAFEEBFF75DC
:10BAB0000A00EE2403F8EF3400F988088909888227
:10BAC000F58312BD1612094F8A828B83E582458366
:10BAD0006009E0F50A12BD101209499002A4E06065
:10BAE00019650A70159002A5E0FA9002A4E0F91217
:10BAF0000559E960249002A4E4F0E50A601B8E82F7
:10BB00008F83A3A3A3A3A3E0FB12B713AA0A8E8279
:10BB10008F83A3A3E0F912054D9002A012BF286005
:10BB20000312056502B70274E81215F2890B8A0E3A
:10BB30008B0A8C0C8D0D741A1215CEE0F516A3E04D
:10BB4000F517741C1215CEE0F514A3E0F515741E5C
:10BB50001215CEE0F510A3E0F51174201215CEE019
:10BB6000F5087A137B00120EE38A128B13AE12AF24
:10BB700013EE4F700302BC0B8E828F8374D012C001
:10BB80000D8E828F83A3A3740512BEC5EE2404FA22
:10BB9000EF3400FBE50C450D6019751206751300B6
:10BBA0007812121805AC0CAD0D120EBF74021215EE
:10BBB0009880097C067D007900120ED77418121542
:10BBC000CEE0F8A3E0F98E828F83A3A3A3A3A3A35F
:10BBD000A3A3A3A3E8F0A3E912C19FE516F0A3E590
:10BBE00017F0EE240E12C3A9E514F0A3E515F01228
:10BBF000BC10E510F0A3E511F0EE241212C3A9E584
:10BC000008F0EEFAEFFBA90E120EEF7F100216C439
:10BC1000EE241012C1A72274F21215F289098A08C3
:10BC2000ECFEEDFF8B0A7A067B00120EE3EA4B6016
:10BC3000278A828B8374D0F0A3E509F08A828B83F4
:10BC4000A3A3740612BC5BEEF0A3EF12BC5BA3A32C
:10BC5000E50AF0A908120EEF02B702F08A828B8380
:10BC6000A3A3A32274EC1215F289108A088B098C05
:10BC70000A8D0B74141215CE12BEE974161215CE6D
:10BC8000E0F50EA3E0F50F7A0C7B00120EE38A12AA
:10BC90008B13AE12AF13EE4F604DAA08AB09120919
:10BCA0004F8A828B83E5824583700390093BE0F9DC
:10BCB0008E828F8374D0F0A3E51012C0C87407126F
:10BCC000BECCE508F012C0D0A3E50B12C0DAE50C3B
:10BCD000F0A3E50D12C0DAA3A3E50EF0A3E50FF083
:10BCE000EEFAEFFB120EEF02BEC074F61215F2EA86
:10BCF000FE1209558A828B83E5824583600BEEF93B
:10BD0000A312BD161207AB800279127F020216C47D
:10BD1000850882850983E0FAA3E0FB2274EC121502
:10BD2000F289118A0A8B0B8C1012094F8A0E8B0F25
:10BD3000EA450F700302BEC09002A012BF28700334
:10BD400002BEC07A0E7B00E0C8241912BF22600236
:10BD50007A2912BF1D6008EA2414FAE43400FB7447
:10BD6000141215CE12BEE9E50C450D6008EA241B3D
:10BD7000FAEB3400FB12C3B612BF226008EA2416A5
:10BD8000FAEB3400FB120EE38A088B09AE08AF0908
:10BD9000EE4F700302BEC07C0E7D007900120ED7FC
:10BDA0007A267B001204938A088B09EA45097009F8
:10BDB000850E82850F83E0F5088E828F8374D0F024
:10BDC000A3E51112C0C8740A12BEC5A3E50B12BECA
:10BDD000CCA3E510F0EE240EF50AEF3400F50B903D
:10BDE00002A0E0241912BEDE12BF286018EE24065D
:10BDF00012BEF11218058C828D8312B719120EBF74
:10BE000074021215989002A0E0241D12BEDE12BF2B
:10BE100028603AEE2408F8EF3400F988828983120A
:10BE2000C00B8882898312BD16EA2414F50AEB340C
:10BE300000F50B750E14750F00780E1218058C8224
:10BE40008D8312B719120EBF7402121598E50C45B6
:10BE50000D6015EE240A12BEF1121805AC0CAD0DE2
:10BE6000120EBF74021215989002A0E0241BF8A3D2
:10BE7000E03400F9E8FAE9FB8A828B8312BF28607C
:10BE800033EE240CF8EF3400F9880C8882F5831225
:10BE9000C00B750A16750B00780A1218058A828B7A
:10BEA0008312B719850C82898312BD16120EBF74D6
:10BEB00002121598EEFAEFFBA908120EEF120565B3
:10BEC0007F0C0216C412BED1E50AF02212BED1A325
:10BED0002212BED522F08E828F83A3A3A322FCA3BD
:10BEE000E03400FD8C828D8322E0F50CA3E0F50D9B
:10BEF00022F8EF3400F988828983E50AF0A3E50B84
:10BF0000F088828983E0FAA3E0FBEA241BF50AEBC0
:10BF10003400F50B750E1B750F00780E2212C3A0AE
:10BF2000241DF582E812C1AAE0F8A3E0F9E849224D
:10BF3000C082C0839002A012BF28602FE0C82419DD
:10BF400012B8DC6003120F5512B8D76003120F55F8
:10BF500012C3B012B8DC6003120F559002A012BDDC
:10BF600016120F559002A0E4F0A3F0D083D0820205
:10BF7000011FC082C08390029E12BF2860109002F1
:10BF80009E12BD16120F5590029EE4F0A3F080DBC6
:10BF900074F01215F2890C8A0A8B0B12094F8A0869
:10BFA0008B09EA4509605E7A267B001204938A0EAB
:10BFB0008B0FAE0EAF0FEE4F700885088285098398
:10BFC000E0FE7A057B00120EE38A088B09EA450938
:10BFD00060337C057D007900120ED78508828509C3
:10BFE0008374D0F0A3E50CF0850882850983A3A3B0
:10BFF000740EF085088285098312C008AA08AB096F
:10C00000EEF9120EEF02B7FFA3A3A3E50AF0A3E532
:10C010000BF02274EC1215F289088A0E8B0F8C0932
:10C020008D0A74141215CEE0F50C74151215CEE0BD
:10C03000F50B12094F8A128B13EA4513700302C0E5
:10C04000C57A0B7B00120EE38A108B11AE10AF1174
:10C05000EE4F60717C0B7D007900120ED77A267B43
:10C06000001204938A108B11A810A911E8497008D6
:10C07000851282851383E0F88E828F8374D0F0A3BB
:10C08000E50812C0C8740F12C0C8A3E50EF0A3E5FE
:10C090000F12BECC12C0D08E828F83A3A3A3A3A302
:10C0A000A3A3E50C12C0DAE50BF074161215CEEE60
:10C0B0002409FCEF3400FD7402121495EEFAEFFB34
:10C0C000E8F9120EEF02BEC0F08E828F83A3A32286
:10C0D000A3E50912C0E0E50AF02212C0E0A3A32202
:10C0E00012BED5A3A3A32274EE1215F28A0A8B0BFB
:10C0F000890E12094F8A0C8B0DEA450D700302C19F
:10C100009A7A0D7B00120EE38A088B09AE08AF09FC
:10C11000EE4F700302C19A7A267B001204938A08BC
:10C120008B09EA45097009850C82850D83E0F508C5
:10C130008E828F8374D0F0A3E412C0C8740BF075A4
:10C1400010067511007810121805E50C2405FCE5A1
:10C150000D3400FDEE2403FAEF3400FB120EBF7421
:10C16000021215988E828F83A3A3A3A3A3A312C048
:10C1700008EE240B12C3A9E50EA2E050047401805E
:10C1800001E412C19FE50EA2E1500474018001E4B4
:10C19000F0EEFAEFFBA908120EEF7F0A0216C4F0C8
:10C1A000EE240C12C1A722F582EF3400F58322742D
:10C1B000E81215F289108A0F8C088D098B0EAA08D7
:10C1C000AB0912094F8A0A8B0B74181215CE12BED6
:10C1D000E9741A1215CEE0F514A3E0F515741C12DB
:10C1E00015CEE0F516A3E0F517741E1215CEE0FE8D
:10C1F000A3E0FFEA450B700302C2D2E51060030220
:10C20000C2D2EA2403F582EB12BA4AD2E4F0E50E78
:10C21000A2E2E05004D2E18002C2E1F0E50C450D5B
:10C220007010E5144515700AE51645177004EE4FB9
:10C23000606BE0D2E2F0EE4F603512BC1012145881
:10C24000E50A241DF582E50B12C3AC1214647512C5
:10C25000107513007812121805EEFCEFFDE50A24A4
:10C260000DFAE50B3400FB120EBF7402121598E5AF
:10C270000A2421F50AE50B3400F50BE50C450D60A9
:10C2800021E50F701D850A82850B8312B8E36003D8
:10C29000120F557C1B7D00AA0CAB0D8027E0C2E27B
:10C2A000802FE5144515602A7401650F7024850AF6
:10C2B00082850B8312B8E36003120F557C1B7D004F
:10C2C000AA14AB15120ECB850A82850B83EAF0A364
:10C2D000EBF09002A012BF28700302C39DE50C454D
:10C2E0000D6039E0C8241912BF22700F7A1B7B0041
:10C2F000120F4F12C3A0241912C3BC12C3A02419D9
:10C3000012B8DC6017750A1B750B00780A12180545
:10C31000AC0CAD0D120EBF7402121598E516451740
:10C32000603112C3B612BF22700D7A167B00120F55
:10C330004F12C3B612C3BC12B8D76017750A167570
:10C340000B00780A121805AC16AD17120EBF740256
:10C35000121598EE4F603112BF1D700D7A147B00DC
:10C36000120F4F12C3B012C3BC12C3B012B8DC60BC
:10C3700017750A14750B00780A121805EEFCEFFD0C
:10C38000120EBF74021215987814121805AC0EAA7A
:10C3900008AB09A91012055F740212159802BC0BB4
:10C3A0009002A0E0F8A3E0C822F582EF12C1AA2211
:10C3B00012C3A0241D2212C3A0241B22F582E8125E
:10C3C000C1AAEAF0A3EBF02274EE1215F2890B8AEF
:10C3D0000C8C0E8D0F750A0012C4C960057911020C
:10C3E000C4AB74121215CEE0F508A3E0F509E50818
:10C3F0004509603C7A217B001204938A108B11A8B6
:10C4000010A911E5082415FEE5093400FF8E828F7E
:10C4100083E0C398E49940187A227B001204938A3F
:10C42000108E828F83E0FAC3E5109AEB94005004DB
:10C43000790280777A637B00120F4F900733EAF01E
:10C44000A3EBF012C4C970047913805F7C637D0094
:10C450007900120ED712C4B7E4F090073312CA7BEA
:10C46000E50BF012C4B7A3E50CF090073312CBCB69
:10C47000E50EF0A3E50FF012CF53E508F0A3E509B0
:10C48000F012D0E9241812C4B0E4F0A3F012CF598E
:10C49000E4F0E50B6006120D87E9F50A12C4B774E3
:10C4A00001F0E50A6003120DBDA90A7F0A0216C455
:10C4B000F582E812CF6A2212C4BB2290073312C45D
:10C4C000C22212CA7FA322E9FE90073312C91CE8D8
:10C4D000492274F61215F27E0012C4C96019E0C830
:10C4E000241AF582E812C8CF740268600F740368DA
:10C4F000600A7404686005791202C59D12C5AE6CAD
:10C500007003A3E06D6005790202C59D7508108E69
:10C51000097808121805EAFCEB12C5A0120EBF74C8
:10C52000021215987910900733E0242BFAA3E03417
:10C5300000FB120D0F900733E0241BF508A3E03435
:10C5400000F509780812180512CCAA12C5A0120D20
:10C55000757402121598900733E0240112CF48E059
:10C56000FA900733E0FBA3E0F5838B82E0600D7463
:10C57000036A7027888289837402801974046A7040
:10C5800009888289837402F0801174036A700C88B0
:10C590008289837405F0120D8DE9FEEEF902D01048
:10C5A000FD900733E02407FAA3E03400FB22900754
:10C5B00033E0F8A312D22DE022C082C08390073569
:10C5C00002C92274F71215F212C4C7601312C5B45F
:10C5D0006A7003A3E06B700874016E7003120DBDE6
:10C5E0007F010216C4C082C0837917120DC302C92D
:10C5F0002774F41215F274ED121582EAF8EBF9853E
:10C600001882851983E4F088828983A3A3A3A3A356
:10C61000A312CB6D8A828B83E0F50AE82402F8E945
:10C620003400F9E8FEE9FFE50A14603314603014C1
:10C63000604B14607214607D14700302C6C31470E2
:10C640000302C6D114700302C6DF14700302C6EDE4
:10C6500014700302C6FB14700302C70902C71874E2
:10C66000011215CEAC82AD83120E23E9F874126864
:10C670007019851882851983740602C72074011207
:10C6800015CEAC82AD83120E2FE9F8E8600302C725
:10C6900068750B0712CB6912094FEA4B600302C79A
:10C6A0002375080802C75F74011215CEAC82AD83F2
:10C6B000120E3B80D474011215CEAC82AD83120EE3
:10C6C0004780C674011215CEAC82AD83120E538022
:10C6D000B874011215CEAC82AD83120E5F80AA74BD
:10C6E000011215CEAC82AD83120E71809C740112C2
:10C6F00015CEAC82AD83120E77808E74011215CEEA
:10C70000AC82AD83120E83808074011215CEAC8290
:10C71000AD83120E8F02C68985188285198374072E
:10C72000F0804E900281E0A2E3500590073780032D
:10C7300090073512C4CC602412CC25F8A3E0F98907
:10C7400009E84509601674011215CEAC82AD83A9C3
:10C750000A88828509831215F0E9F50B850B088597
:10C760001882851983E508F0851882851983E060B1
:10C770000CAC82AD8312CB69120D638003120CEBFB
:10C7800074131215987F040216C474F61215F2EC95
:10C79000FEEDFF75084175090E780812180579023B
:10C7A000120E957402121598E9F5088E828F83E0B7
:10C7B000F9120DC3A90802D01074F41215F2EAFEA2
:10C7C000EBFF890812C4C9700302C8A512C5B46E74
:10C7D0007003A3E06F600302C8A5900733E0240153
:10C7E00008A3E03400F9E8FAE9FB8A828B83E0F8D9
:10C7F000740668600302C89212CA73607C900734A2
:10C8000012D22712C91C900733E0FCA3E0CC2418F5
:10C81000F582EC12D15CFCA3E0FDE82413F582E97B
:10C8200012C8CFA2E050168C828D83A3A3A3A3A32A
:10C83000E0A2E050088A828B8374078034E85402B7
:10C8400060168C828D83A3A3A3A3A3E05402600887
:10C850008A828B8374098019E8540460178C828D56
:10C8600083A3A3A3A3A3E0540460098A828B8374E7
:10C870000BF08015900737800390073512C4CC6009
:10C880000812C90B60031215F012C904703C79003C
:10C89000800E741168700EE5086003750832A908EF
:10C8A000120DC38025E5087018EEFAEFFB12094F50
:10C8B0008A828B83E58245836007A3A3A3E0D2E449
:10C8C000F0EEFAEFFBA908120571790102C7851293
:10C8D000CF6AE0F822C082C08312C4C9602412CC9F
:10C8E000257005900735800390073712C4CC600887
:10C8F00012C90B60031215F012C9047005790012F9
:10C900000DC3802312C4BBE064122212CB65A3A323
:10C9100012C91C88828983E582458322E0F8A3E05E
:10C92000F922EAF0A3EBF0D083D08202011F74E871
:10C930001215F274E9121582851882851983EAF0BE
:10C94000A3EBF08C168D17742F1215CEE0F514A3FF
:10C95000E0F51512C4C97005791202CA6912CC2A11
:10C9600012094F8A088B09AE08AF09EE4F7005799E
:10C970001402CA6974021215CEAA82AB83120DCFBB
:10C98000EE2405F512EF3400F513EE2404F510EF54
:10C990003400F51112CA73603274021215CE85820A
:10C9A0000C85830D12CA88FEA3E0FF1204E1E9F5AD
:10C9B0000E79001204E78A0A8B0B85108285118399
:10C9C000E0F50F851208851309803012CA88F50C2E
:10C9D000A3E0F50D74021215CEAE82AF831204E10E
:10C9E000E9F50F79001204E78A088B098510828522
:10C9F0001183E0F50E85120A85130B74101215CE03
:10CA0000AC82AD83EEFAEFFB120E1774091215CE4D
:10CA1000AC82AD83AA0CAB0D120E1178141218055E
:10CA20007808121805E50FF5087808121809780A31
:10CA300012180574101215CE8582088583097808AE
:10CA400012180574191215CE858208858309780895
:10CA5000121805A90EAC16AD17740B1215CE12CB19
:10CA60006D120CFD740B12159874171215987F1027
:10CA70000216C490073312CA7BE02212CA7F22E05A
:10CA8000F8A3E0F583888222900734E0C8241812C6
:10CA9000CF67E02274F61215F274F7121582EAFEDF
:10CAA000EBFF8C088D0990073512C4CC700302CBC4
:10CAB0006012CB6512C4CC700302CB608C828D8374
:10CAC000E0C0E074021215CED0E0F08C828D83A31A
:10CAD000E0C0E074031215CED0E0F08C828D83A309
:10CAE000A3E0F974041215CEAA82AB83120D1B8544
:10CAF0000882850983A3A3A3E0C0E074061215CEC3
:10CB0000D0E0F0850882850983A3A3A3A3C082C0D7
:10CB10008374071215CEAC82AD83D083D0827402A9
:10CB200012149574021215CEAC82AD837901EEFA1F
:10CB3000EFFB90073512CA76F8A312CB651215F0F9
:10CB4000E9851882851983F0601674011215CEE903
:10CB5000F0AC82AD838E828F83A312CB6D120D63F6
:10CB6000740902D00D12CA82228E828F83E0FAA34A
:10CB7000E0FB2274F21215F28908740E1215CEE051
:10CB8000F50AA3E0F50B74101215CEE0F50CA3E046
:10CB9000F50D90073712C4CC602A90073712CBCB23
:10CBA000A3E0FEA3E0FFEE4F601A780C12180578A0
:10CBB0000A121805A9088E828F831215F0740412C8
:10CBC0001598800279027F060216C412CC362274B0
:10CBD000F61215F274F912158212C4C9603D851857
:10CBE00082851983AA82AB83120DCF12CC2A12CC74
:10CBF00022600875081175090E80067508177509F9
:10CC00000E780812180574021215CEAC82AD837925
:10CC100007120E95740212159880027901740702AA
:10CC2000D00D90073412CB65E02212CC33E0FAA38A
:10CC3000E0FB2290073312C4C2A3A32274F612159C
:10CC4000F274F01215827508107509007808121830
:10CC500005900733E0241BFCA3E03400FD740212AE
:10CC600015CEAA82AB83120EBF74021215987508F6
:10CC70002975090E02CFF074F61215F274F0121530
:10CC800082750810750900780812180512CCAAFDE3
:10CC900074021215CEAA82AB83120EBF7402121553
:10CCA0009875083575090E02CFF0900733E0242BF4
:10CCB000FCA3E034002274F01215F28A088B097587
:10CCC0000A007A077B00120F4F900733E0241812F6
:10CCD000CF48EAF0A3EBF088828983E0FA4B700337
:10CCE00002CF1A12CF53E0FEA3E0FF750C07750DBB
:10CCF00000780C121805AC08AD09120EBF740212B0
:10CD0000159812CA73600302CE8EEE2413FCEF3422
:10CD100000FD12CA882405F50CA3E03400F50D8C43
:10CD2000828D8312C91C850C82850D83E0A2E0925E
:10CD3000F0E8A2E020F001B35007A2E0E433FA806B
:10CD4000027A00E854FE4AF88C828D8312CF36C3F3
:10CD500013A2E092F0E8C313A2E020F001B3501256
:10CD6000E854026004D2F08002C2F0A2F0E433FA88
:10CD700080027A00E854FDF8EAC333FAE433FBE8B2
:10CD80004AF8E94B12CF42543FA2E092F0E8131365
:10CD9000543FA2E020F001B35013E854046004D2E1
:10CDA000F08002C2F0A2F0E433F50E8003750E00AD
:10CDB000750F00E854FBFAE9FB7402780E12156F48
:10CDC000EA450EF8EB450F12CF4213541FA2E09232
:10CDD000F0E8131313541FA2E020F001B35013E83E
:10CDE00054086004D2F08002C2F0A2F0E433F50EE1
:10CDF0008003750E00750F00E854F7FAE9FB740321
:10CE0000780E12156F12CF24540FA2E092F0E8C4EE
:10CE1000540FA2E020F001B35013E854106004D284
:10CE2000F08002C2F0A2F0E433F50E8003750E002C
:10CE3000750F00E854EFFAE9FB7404780E12156FD1
:10CE400012CF24135407A2E092F0E8C4135407A2AF
:10CE5000E020F001B35013E854206004D2F08002C7
:10CE6000C2F0A2F0E433F50C8003750C00750D00E0
:10CE7000E854DFFAE9FB7405780C12156FEA450CEB
:10CE8000F8EB450DF98C828D83E8F0A3E9F0850875
:10CE900082850983A3E0600F8E828F83A3E0600701
:10CEA00012CF597405806B850882850983A3A3E09E
:10CEB00054047014EE2412F582EF12D15CA2E24009
:10CEC0000712CF597401804A12CA738E828F836011
:10CED0000CE0F8850882850983E0F9800AE0F9858D
:10CEE0000882850983E0F8E8C394055028E9C394D3
:10CEF0000550228808E975F005A4F8A9F0745028B7
:10CF0000F8748039F9E8250812D159C0E012CF59D8
:10CF1000D0E0F08008750A188003750A13A90A7F0B
:10CF2000080216C4EA450EF8EB450F12CF30C422B2
:10CF3000F98C828D83E8F0A3E9F0850C82850D835E
:10CF4000E02212CF30131322F8A3E03400F98882D4
:10CF500089832212CC33A3A322900733E0F8A3E005
:10CF6000C8241A12CF6722F582E83400F5832274B0
:10CF7000F61215F275084D75090E78081218057924
:10CF800011120E95740202D00D74F61215F274EEA1
:10CF9000121582EAFEEBFF741C1215CE12CB6D85C2
:10CFA0001882851983ECF0A3EDF075080875090067
:10CFB0007808121805EAFCEBFD74041215CEAA825B
:10CFC000AB83120EBF740212159875085975090EBD
:10CFD000780812180574021215CEAC82AD83790B55
:10CFE000EEFAEFFB120E9574021215987412801D62
:10CFF000780812180574021215CEAC82AD8379112F
:10D0000012CC2A120E9574021215987410121598EB
:10D010007F020216C474F61215F275086575090EC2
:10D0200002CF7A74F41215F274F9121582EAFEEB4B
:10D03000FF851882851983E9F0750A06750B00785B
:10D040000A12180574031215CEAA82AB83120EBF02
:10D050007402121598750A6B750B0E780A12180572
:10D0600074021215CEAC82AD837908EEFAEFFB1292
:10D070000E957402121598740702C78274F6121581
:10D08000F275087D75090E02CF7AC082C08312C482
:10D09000C96050E0C8241812D0F26003120F551274
:10D0A000D0E9245B12D0F26003120F5512D0E924AC
:10D0B0005D12D0F26003120F5512D0E9245F12D036
:10D0C000F26003120F5512D0E9246112D0F260030E
:10D0D000120F5590073312CB6D120F55900733E4A2
:10D0E000F0A3F0120CF102C927900733E0F8A3E097
:10D0F000C82212CF67E0FAA3E0FBEA4B2274F712D2
:10D1000015F212C4C7604FE0C8246112C4B01218EF
:10D110001C12D0E9245F12C4B012181C12D0E924EA
:10D120005D12C4B012181C12D0E9245B12C4B012F4
:10D13000181C12D0E92417F582E812D15CFB12C545
:10D14000AEFCA3E0FD12CC22FAEEF91205837408BE
:10D15000121598120DBD02C5E0F582E912CF6AE002
:10D1600022C082C083791090073312D0F5603990C5
:10D170000733E0F8A312CA8BFAA3E0FBEAFCEBFD4D
:10D18000EC4D602412CF5312D0F5601CEA2415F543
:10D1900082EB12C8CF8C828D83A3A3A3A3E0FAC332
:10D1A000985003EA8001E8F902C92774F61215F2D3
:10D1B000EAFEEBFF12C4C9606212D22712C4CC602F
:10D1C0005A8808890988828983E08E828F83F08853
:10D1D000828983A3E08E828F83A3F0E8241212D188
:10D1E00059F9EE2402FAEF3400FB120D1BE5082476
:10D1F00015F582E50912D15C8E828F83A3A3A3A3C8
:10D20000F0E5082413F582E50912C4B3EE2405FC09
:10D21000EF3400FD740212149580097C077D0079BB
:10D2200000120ED702D01012D22DA3A32212CA824E
:10D23000A3A3A3227F010216C474F41215F274FD95
:10D24000121582EAFEEBFF8C088D09EE4F6005ECAB
:10D2500045097004790280607903851882851983F5
:10D26000AA82AB83120D0F74021215CEE0543F4414
:10D2700040F0780812180574021215CEAC82AD8306
:10D28000EEFAEFFB120CF77402121598E9FE702605
:10D29000750A03750B00780A12180574021215CE70
:10D2A000AC82AD83E5082403FAE5093400FB120ED5
:10D2B000BF7402121598EEF9740302D36474F41269
:10D2C00015F274FA1215828A088B09ECFEEDFFEA5A
:10D2D00045096004EE4F7005790202D35F750A03B9
:10D2E000750B00780A121805EE2403FCEF3400FDDC
:10D2F00074021215CEAA82AB83120EBF74021215ED
:10D300009874021215CEE0543F4440F07403121595
:10D31000CE85820A85830B780A12180574021215CD
:10D32000CEAC82AD83AA08AB09120CF774021215B9
:10D3300098E9702B7508037509007808121805EE36
:10D34000FCEFFD74051215CEAA82AB83120ED174C8
:10D3500002121598E9640170047900800279017461
:10D360000602D3641215987F040216C474E81215DD
:10D37000F274E81215828A0A8B0B89178C088D09C2
:10D38000EA450B6005EC45097005790202D4BC74CE
:10D39000042517F516FA7B00120F4F8A0C8B0DAE81
:10D3A0000CAF0DEE4F700302D4B71204CF8A0C8B72
:10D3B0000D8C0E8D0F851710751100781012180541
:10D3C000AC0AAD0BEE2404FAEF3400FB120EC57468
:10D3D000021215988E828F83A3A3A3E50CF0E50DAE
:10D3E000F5158E828F83A3A3F0850C10F511850EA1
:10D3F00012850F1374107810121368E510F5148E4F
:10D40000828F83A3F0850C10850D11F512850F1303
:10D4100074187810121368E510F50A8E828F83F065
:10D4200075101078101218051204C9EAFCEBFD748F
:10D430000A1215CEAA82AB83120EC5740212159879
:10D4400085188285198385821085831178101218BA
:10D4500005A916EEFCEFFD740A1215CEAA82AB8365
:10D46000120D277402121598E9F50B704185088298
:10D47000850983E50CF0A3E51512D4C1E51412D497
:10D48000C1A3E50AF0750C08750D00780C1218059B
:10D4900074021215CEAC82AD83E5082404FAE509C6
:10D4A0003400FB120EC574021215981204D5EEFA60
:10D4B000EFFB120F558003750B13A90B741802DADA
:10D4C000C6F0850882850983A3A32274E81215F2A9
:10D4D00074DD12158274011215CEEAF0A3EB12DE90
:10D4E000B08C168D17EC4517700302D596743C125C
:10D4F00015CE12D6E4700302D59674011215CE1221
:10D50000D7C612094F8A148B15EA45157005791490
:10D5100002D6DF850882850983E0F510E4F511F570
:10D5200012F513A3E0F50CE4F50DF50EF50F7408F4
:10D53000780C1213817810790C1213A0850882855B
:10D540000983A3A3E0F50CE4F50D7410780C121315
:10D55000817810790C1213A0850882850983A3A312
:10D56000A3E0F50CE4F50E7418780C121381781012
:10D57000790C1213A0EA241DF582EB12E007780C57
:10D5800012143A7810790C12123A400F90815578A3
:10D590000C1212256005790202D6DF8518828519E2
:10D5A00083E060118A828B83A3A3A3E0A2E14005FC
:10D5B000790102D6DF7C087D00790074031215CE54
:10D5C000AA82AB83120ED7743B1215CEE0F50E740F
:10D5D00004250EF50AFA7B00120F4F8A0C8B0DAE54
:10D5E0000CAF0DEE4F7005791302D6DF750F007882
:10D5F0000E121805AC16AD17EE2404FAEF3400FB3A
:10D60000120EC57402121598750C04750D00780C75
:10D61000121805AC08AD09EEFAEFFB120EC5740244
:10D62000121598750C10780C121805E514240DFCD1
:10D63000E5153400FD74151215CEAA82AB83120EC7
:10D64000C5740212159874031215CE85820C858359
:10D650000D780C121805A90AEEFCEFFD74151215D1
:10D66000CEAA82AB83120D277402121598E9F50A2F
:10D670007064750C08750D00780C1218057405128D
:10D6800015CEAC82AD83740D1215CEAA82AB831277
:10D690000EC57402121598780C121805E5082404BA
:10D6A000FCE5093400FD740D1215CEAA82AB83127D
:10D6B0000ED17402121598E964016005750A0180A3
:10D6C00015781012180174051215CE12D7C612045F
:10D6D000DB7404121598EEFAEFFB120F55A90A74C9
:10D6E0002302DAC612DACEE50845092274F41215CF
:10D6F000F2890812D824700302D7C1E508705C12C1
:10D70000D7D2E0750A08750B00780A702E1218053A
:10D71000EAFCEBFD900731E02402FAA3E03400FBC1
:10D72000120EBF74021215981207F3E9700812D78F
:10D73000CC740102D7BC750801801B121805EAFCE5
:10D74000EBFD900731E0240AFAA3E03400FB120E4F
:10D75000BF740212159812D82460627A127B0012EC
:10D760000EE38A0A8B0BAE0AAF0BEE4F603F8E8240
:10D770008F8374C1F0A3E508F0750A10750B00786B
:10D780000A121805900731E02402FCA3E03400FDE2
:10D79000EE2402FAEF3400FB120EBF740212159849
:10D7A000EEFAEFFB12D7CCA3E0F9120EEF9007319F
:10D7B00012D7C6120F55900731E4F0A3F07901801B
:10D7C00002790002D367E0FAA3E0FB22900731E080
:10D7D000F8A3E0F58388822274F21215F27A207B96
:10D7E000001204938A088B09E4F50AF50B8B0DEA05
:10D7F000450D601678081218017A017B00900739F0
:10D80000E0F9120F8B740412159802D8D9C082C0A7
:10D81000837A017B00900739E0F9120F97D083D00B
:10D820008202011F900731E0F8A3E0F9E849227471
:10D83000F21215F274D01215828A0A8B0BECFEEDEF
:10D84000FF743E1215CE12D8A4120ED7750C1075A7
:10D850000D00780C121805AC0AAD0B74021215CE2F
:10D86000AA82AB83120EC57402121598750A03754D
:10D870000B00780A121805EEFCEFFD741F1215CE8E
:10D88000AA82AB83120EC574021215988518828580
:10D890001983AA82AB83120D21E9FE780A121805BA
:10D8A000742F801B12DACE7C307D007900851882BF
:10D8B000851983AA82AB8322780A12180574221272
:10D8C00015CEAC82AD83AA08AB09120EC574021244
:10D8D0001598EEF974301215987F060216C474E894
:10D8E0001215F274B0121582EAFEEBFF8C168D173A
:10D8F000890A74681215CE12DACE746A1215CEE057
:10D90000F50CA3E0F50D746C1215CEE0F510A3E054
:10D91000F511746E1215CEE0F50B746F1215CEE092
:10D92000F514A3E0F51574711215CEE0F50EA3E021
:10D93000F50F7C307D00790074201215CEAA82ABE1
:10D9400083120ED77512107513007812121805EE97
:10D95000FCEFFD74221215CEAA82AB83120EC574A1
:10D96000021215987C107D00790085188285198334
:10D97000AA82AB83120ED77512077812121805AC63
:10D9800008AD0974021215CEAA82AB83120EC574BB
:10D99000021215987508077509007808121805AC69
:10D9A0000CAD0D74091215CEAA82AB83120EC5748C
:10D9B00002121598E50B6009740E1215CE740180E1
:10D9C00006740E1215CEE4F0E50A6009740F121504
:10D9D000CE74018006740F1215CEE4F07C107D0029
:10D9E0007900EC1215CEAA82AB83120ED775080609
:10D9F0007808121805AC10AD1174161215CEAA8253
:10DA0000AB83120EC574021215987808121805AC73
:10DA100014AD15741C1215CEAA82AB83120EC574F8
:10DA2000021215987508107808121805AC16AD1773
:10DA300074321215CEAA82AB83120EC5740212156F
:10DA400098851882851983AC82AD8374301215CE07
:10DA5000AA82AB83120D0374201215CEAA82AB8367
:10DA6000120D21E9FE780812180574421215CEAC89
:10DA700082AD8374321215CEAA82AB83120EBF74AC
:10DA80000212159874101215CEAC82AD8374301248
:10DA900015CEAA82AB83120D0374201215CEAA8272
:10DAA000AB83120D21E9FF78081218057442121594
:10DAB000CEAC82AD83AA0EAB0F120EC57402121546
:10DAC00098EE4FF974501215987F100216C4E0F5C5
:10DAD00008A3E0F5092274F71215F279108C828DF3
:10DAE00083E0F88A828B83E068F0A3AA82AB838C00
:10DAF000828D83A3AC82AD8319E970E102D23474C4
:10DB0000F21215F274D01215828C0A8D0B743E122B
:10DB100015CEE0FEA3E0FF74401215CE12DACE75EA
:10DB20000C10750D00780C121805EAFCEBFD740260
:10DB30001215CEAA82AB83120EC574021215987507
:10DB40000C08780C121805AC0AAD0B74121215CE25
:10DB5000AA82AB83120EC57402121598750A087555
:10DB60000B00780A121805EEFCEFFD741A1215CEA0
:10DB7000AA82AB83120EC57402121598851882858D
:10DB80001983AA82AB83120D21E9FE750A1002D80F
:10DB9000B874F41215F2EAFEEBFF890B750A0080E7
:10DBA00018120EDD12DFFEEBF0050AE50AC3950B35
:10DBB000500712DFFEEAF0050AE50AC3950B40E1C3
:10DBC00002D367C082C0838A828B83E0F902D81DAA
:10DBD00074F61215F28982AE82E9A2E25004D2F004
:10DBE0008002C2F08A828B83E054FCFCA3E0FDEC4F
:10DBF0004E5403FCA2F0E433F50875090074027872
:10DC00000812156FEC4508FCE9131313541FF508AF
:10DC10007403780812156FEC45088A828B83F0A391
:10DC2000EDF07F020216C474F61215F2EA2420F514
:10DC300008EB3400F5097808121805EA2410FCEB0B
:10DC40003400FD1209AF740212159880D574E812E1
:10DC500015F274ED12158274011215CEECF0A3EDDD
:10DC600012DEB08A168B177A107B00120F4F8A12C1
:10DC70008B137A107B00120F4F8A108B11E512451F
:10DC800013700302DE8CEA4511700302DE8C7810FB
:10DC9000121805AC12AD13AA16AB17120D2D740293
:10DCA000121598E9F50A600302DE957A107B0012DE
:10DCB0000F4F8A0C8B0D7A107B00120F4F8A0E8B40
:10DCC0000FE50C450D700302DE6DEA450F7003028F
:10DCD000DE6D851882851983E0240FF8E43400F99D
:10DCE0007A107B001214EF88088909AE08AF09E0AA
:10DCF000540FFCEE4F70067E017F008007EC70042D
:10DD0000780180027800EE14C454F0FA7401121500
:10DD1000CEE02AFAA3E03400FBE8A2E0500B780E34
:10DD2000121805AC12AD1380538C0B7508008508D2
:10DD300082AC8274031215CEE5822CF8E5833400A0
:10DD4000F9ECC3950B500FEA2CF582EB12E007E0DB
:10DD500088828983800FE50B650888828983700437
:10DD600074808001E412E00C40C4780E121805ACF7
:10DD700010AD1174051215CEAA82AB83120D337447
:10DD8000021215987C107D007900AA0CAB0D120EC2
:10DD9000D7750800750900805874031215CE858266
:10DDA000148583157814121805E508C454F0F87426
:10DDB000031215CEE028FCA3E03400FDAA0CAB0D45
:10DDC000120D337402121598780C1218057405128E
:10DDD00015CEAC82AD83AA16AB171209AF7402122E
:10DDE0001598E9F50AE5082401F508E5093400F578
:10DDF00009EE24FFF8EF34FFF9C3E50898E5099927
:10DE0000A2D265D0335004E50A608EE50A706774CB
:10DE1000031215CE8582088583097808121805AC8F
:10DE20000EAD0FAA0CAB0D120D33740212159878BB
:10DE30000C12180574051215CEAC82AD83AA16AB70
:10DE4000171209AF7402121598E9F50A75080875DA
:10DE500009007808121805AC0CAD0D742D1215CE02
:10DE600012D7C6120EBF74021215988009750A13D4
:10DE7000E50C450D6007AA0CAB0D120F55E50E45DC
:10DE80000F6012AA0EAB0F120F558009750A13E529
:10DE90001245136007AA12AB13120F55E510451176
:10DEA0006007AA10AB11120F55A90A741302DAC643
:10DEB000F0E9851882851983F02274EE1215F28A32
:10DEC000088B098C0E8D0F7A107B00120F4F8A0C75
:10DED0008B0D7A107B00120F4F8A0A8B0BAE0AAFA4
:10DEE0000BE50C450D700302DF9BEE4F700302DF64
:10DEF0009B7C107D007900120ED7780C121805EE6D
:10DF0000FCEFFDAA08AB091209AF7402121598E9DB
:10DF1000F50A600302DFA47508D9750980850C82B3
:10DF2000850D83E0A2E7400DAC0EAD0FAA0CAB0D42
:10DF3000120D398020EEFCEFFDAA0CAB0D120D394D
:10DF4000780E121805AC08AD09EEFAEFFB120D338E
:10DF5000740212159874121215CEE0F510A3E0F5B4
:10DF600011850E82850F83E0A2E7400DAC10AD1144
:10DF7000AA0EAB0F120D39802BEEFCEFFDAA0EABF3
:10DF80000F120D397810121805AC08AD09EEFAEF32
:10DF9000FB120D3374021215988009750A13E50CF3
:10DFA000450D6007AA0CAB0D120F55EE4F6007EE42
:10DFB000FAEFFB120F55A90A7F0A0216C474F61273
:10DFC00015F2750800740A1215CEE0F8A3E0F98581
:10DFD0000882AE82EC2EF582ED12E007E0F509EA48
:10DFE0002EF582EB12E007E06509C0E0E82EF5822D
:10DFF000E912E007D0E012E00C40D402DC22850AEE
:10E0000008EE2508F582EF3400F58322F00508E5D7
:10E0100008C394102274F51215F275090075080FE3
:10E02000E508F83395E0F9EA28FEEB39FF8E828F98
:10E0300083E0C3334509C0E0EC28F582ED39F58370
:10E04000D0E0F08E828F83E0A2E7E433F50974FF1D
:10E050002508F508C39400A2D265D03350C27F03CF
:10E060000216C474F61215F2E9FE74FF2EF50804C8
:10E07000C313FE6039EA2508FCEB3400FDEAF8EB37
:10E08000F9EEFF88828983E0FA8C828D83E08882B2
:10E090008983F0EA8C828D83F088828983A3A882A9
:10E0A000A983EC24FFED34FF1CFD1FEF70D502E5C2
:10E0B0005CC082C08390618FE0F902E27674F7124F
:10E0C00015F274FE121582E9FE7005791202E191D3
:10E0D00053B4F390619A743FF0A3745AF09061A026
:10E0E000E4F0906184F0E5E170FC75E1027F00905E
:10E0F00061BFE070070FEFC394FA40F374FA6F60EA
:10E100003E7F009061BFE0851882851983F09061A1
:10E11000BFE0F874011215CEE8F0851882851983E6
:10E12000E0FCE8F9ECF849600A7403687003748055
:10E130006970070FEFC394FA40C974FA6F700479DD
:10E140001F804EEAF8EBF9EEFF9061BFE0F5BDE00D
:10E15000F5BDE0F5BDE0F5BDE0F5BDE0F5BDE0F5F0
:10E16000BDE0F5BDE5BC88828983F0A3A882A983C0
:10E170001FEF70D5E5E170FC75E10174011215CE59
:10E18000E0F5BC851882851983E0F5BC120A277971
:10E190000074021215987F010216C4C082C08378F1
:10E1A00065790588828983E08A828B83F0888289F9
:10E1B00083A3A882A9838A828B83A3AA82AB83E8E4
:10E1C000646D7003E9640570DA02E276C082C08390
:10E1D000786D790588828983E08A828B83F08882D2
:10E1E0008983A3A882A9838A828B83A3AA82AB8313
:10E1F000E864717003E9640570DA02E276C082C0F7
:10E2000083E5B3548F4440F5B3EB90083FF0EAA3A5
:10E21000F09008447410F0900843E054E0F053D1BB
:10E22000FD75D602E5B354F84404F5B343B301E5F4
:10E23000B3A2E350FAED90083FF0ECA3F08518820A
:10E24000851983E0F8A3E0900849F0E8A3F090086E
:10E250004C7410F090084BE054E0F053D1FD53D1D2
:10E26000FB75D60275D60453B3F843B301E5B3A2E8
:10E27000E350FA8001F0D083D08202011FC082C037
:10E28000839008417470F0A374B1F0A3E0541FF0C0
:10E29000900845741DF0A37442F0A37470F0A37449
:10E2A000B2F090084BE0541FF090084D741EF0A39C
:10E2B000741202E275C082C083EA6C7002EB6D607A
:10E2C0004390083BE0541FF090083D7420F0A37485
:10E2D00052F0ED900837F0ECA3F0EBA3F0EAA3F0D6
:10E2E000851882851983E0F8A3E0F9E890083CF0EE
:10E2F000E990083BF053D1FE75D60175D701E5D101
:10E30000A2E050FA02E276C082C083E5B3548F44A3
:10E3100050F5B3748090083FF07430A3F090084437
:10E320007410F0900843E054E0F053D1FD75D6022C
:10E33000E5B354F84406F5B343B301E5B3A2E350A3
:10E34000FA02E27674F61215F274E0121582E9FE12
:10E35000740F5E6004780180027800EEC4540F28C8
:10E36000FF851882851983E58264307004E5836433
:10E3700080604790083BE0541FF090083D7420F007
:10E38000A37452F07480900837F07430A3F08519AC
:10E3900083E583900839F0851882E58290083AF089
:10E3A00090083C7410F090083BE4F053D1FE75D611
:10E3B0000175D701E5D1A2E050FA8518828519834D
:10E3C0007401F01215CEE5826A7003E5836B604933
:10E3D00090083BE0541FF090083D7420F0A3745265
:10E3E000F0EB900837F0EAA3F074011215CEE58344
:10E3F000900839F074011215CEE58290083AF09039
:10E40000083C740DF090083BE4F053D1FE75D60142
:10E4100075D701E5D1A2E050FAE5B3548F4410F569
:10E42000B3851983E58390083FF0851882E58290D3
:10E430000840F09008447410F0900843E054E0F075
:10E4400053D1FD75D602E5B354F84406F5B343B392
:10E4500001E5B3A2E350FA742A1215CEE0F8A3E066
:10E4600090083FF0E8A3F074101215CEE5839008F1
:10E4700049F074101215CEE58290084AF090084CCD
:10E480007410F090084BE054E0F053D1FD53D1FBF1
:10E4900075D60275D60453B3F843B301E5B3A2E3CE
:10E4A00050FA740F1215CE7401F0E5B3548F443056
:10E4B000F5B3851983E58390083FF0851882E582DE
:10E4C000900840F053D1FD75D602E5B354F84406E8
:10E4D000F5B343B301E5B3A2E350FAEDF890083F7A
:10E4E000F0ECF9A3F0EFC454F0FA900844F0E8908F
:10E4F0000849F0E9A3F0EA90084CF053D1FD53D15C
:10E50000FB75D60275D604EF6011FA53B3F843B326
:10E51000011AE5B3A2E350FAEA70F08E08EC250880
:10E52000F8ED3400F974101215CEE088828983F07A
:10E5300074111215CEE088828983A3F0741212152B
:10E54000CEE088828983A3A3F074131215CEE088ED
:10E55000828983A3A3A3F074201215987F02021668
:10E56000C474F61215F274E0121582E9FE740F5E9F
:10E570006004780180027800EEC4540F28FF8518EB
:10E5800082851983E58264307004E5836480604786
:10E5900090083BE0541FF090083D7420F0A37452A3
:10E5A000F07480900837F07430A3F0851983E58308
:10E5B000900839F0851882E58290083AF090083C7E
:10E5C0007410F090083BE4F053D1FE75D60175D776
:10E5D00001E5D1A2E050FA8518828519837401F013
:10E5E0001215CEE5826A7003E5836B604990083BA3
:10E5F000E0541FF090083D7420F0A37452F0EB90AB
:10E600000837F0EAA3F074011215CEE583900839BB
:10E61000F074011215CEE58290083AF090083C742F
:10E620000DF090083BE4F053D1FE75D60175D7018B
:10E63000E5D1A2E050FAE5B3548F4410F5B3851943
:10E6400083E58390083FF0851882E582900840F0CA
:10E650009008447410F0900843E054E0F053D1FD6A
:10E6600075D602E5B354F84406F5B343B301E5B3F8
:10E67000A2E350FA742A1215CEE0F8A3E0F990084C
:10E680003FF0E8A3F074101215CEE583900849F02E
:10E6900074101215CEE58290084AF090084C741060
:10E6A000F090084BE054E0F053D1FD53D1FB75D608
:10E6B0000275D60453B3F843B301E5B3A2E350FAAD
:10E6C00074101215CEE088828983F074111215CE71
:10E6D000E088828983A3F074121215CEE0888289C3
:10E6E00083A3A3F074131215CEE088828983A3A3B9
:10E6F000A3F0740F1215CE7401F0E5B3548F4430BB
:10E70000F5B3851983E58390083FF0851882E5828B
:10E71000900840F09008447410F0900843E054E0F2
:10E72000F053D1FD75D602E5B354F84406F5B34372
:10E73000B301E5B3A2E350FAEDF890083FF0ECF92D
:10E74000A3F0EFC454F0FA900844F0E8900849F0C0
:10E75000E9A3F0EA90084CF090084BE054E0F05345
:10E76000D1FD53D1FB75D60275D604EF6016F8E5DE
:10E77000B354F84402F5B343B30118E5B3A2E35030
:10E78000FAE870EB02E55774F51215F274E0121511
:10E7900082EAFEEBFF89088C09740F550960047842
:10E7A0000180027800ECC4540F28F50A120B3B8557
:10E7B0001882851983E58264307004E58364806083
:10E7C0004790083BE0541FF090083D7420F0A3747C
:10E7D00052F07480900837F07430A3F0851983E507
:10E7E00083900839F0851882E58290083AF0900805
:10E7F0003C7420F090083BE4F053D1FE75D60175CF
:10E80000D701E5D1A2E050FA8518828519837449B1
:10E81000F074011215CEE5826E7003E5836F6049D6
:10E8200090083BE0541FF090083D7420F0A3745210
:10E83000F0EF900837F0EEA3F074011215CEE583E7
:10E84000900839F074011215CEE58290083AF090E4
:10E85000083C740DF090083BE4F053D1FE75D601EE
:10E8600075D701E5D1A2E050FA740F1215CEE50973
:10E87000F074111215CE7401F074121215CEE50861
:10E88000F0851983E58390083FF0851882E5829032
:10E890000840F09008447420F0900843E054E0F001
:10E8A00053D1FD75D60253B3F843B301E5B3A2E3E8
:10E8B00050FA53B3F843B301E5B3A2E350FA742B13
:10E8C0001215CEE0F8A3E090083FF0E8A3F0E50AC7
:10E8D000C454F0900844F0851983E583900849F00A
:10E8E000851882E58290084AF090084C7410F090E8
:10E8F000084BE054E0F053D1FD53D1FB75D60275BF
:10E90000D604E50A6025E5B3FA150AE50A6004783D
:10E910005080027800748F5A48F5B353B3F843B36C
:10E9200001E5B3A2E350FAE50A70DB742D1215CEAF
:10E93000E0F8A3E0F9851882851983E0888289834D
:10E94000F074011215CEE088828983A3F07402125C
:10E9500015CEE088828983A3A3F074031215CEE05C
:10E9600088828983A3A3A3F074201215987F0302E1
:10E9700016C474F01215F274F8121582EAFEEBFF59
:10E9800089098C08EE24B2F8EF3400F9E5B3548F0E
:10E990004440F5B3E990083FF0E8A3F090084474D0
:10E9A00010F0900843E054E0F053D1FD75D602E535
:10E9B000B354F84404F5B343B301E5B3A2E350FA0A
:10E9C0009003A2E06408705DEE24A5F8EF3400F92E
:10E9D000EE24D4F582EF3400F583121458851882A2
:10E9E000851983121464851882851983E0888289C9
:10E9F00083F074011215CEE088828983A3F074023B
:10EA00001215CEE088828983A3A3F074031215CE79
:10EA1000E088828983A3A3A3F088828983A3A3A328
:10EA2000A37480805AEE24A5F8EF3400F9EE24D4C4
:10EA3000F582EF3400F58312145885188285198306
:10EA4000121464851882851983E088828983F074A2
:10EA5000011215CEE088828983A3F074021215CECC
:10EA6000E088828983A3A3F074031215CEE0888224
:10EA70008983A3A3A3F088828983A3A3A3A3E4F03B
:10EA8000E508C3941185080A5004741080027420AC
:10EA9000C3950AF895E0F974181215CEE0F50CA3A9
:10EAA000E0F50DE50C250AFCE50D3400FDEC6430C5
:10EAB0007003ED6480603A90083BE0541FF09008CA
:10EAC0003D7420F0A37452F07480900837F07430D5
:10EAD000A3F0EDA3F0ECA3F0E890083CF0E9900877
:10EAE0003BF053D1FE75D60175D701E5D1A2E050B8
:10EAF000FAEE24A5F50AEF3400F50B74041215CED6
:10EB000085820E85830F780E121805780C12180571
:10EB1000AC08A909AA0AAB0B120B4D740412159884
:10EB2000780E121805AC0CAD0DA908AA0AAB0B1291
:10EB30000B417402121598EE24D4F582EF3400F5DF
:10EB400083750C01750D00750E00750F00780C12A1
:10EB500013C674081215987F080216C474F01215B3
:10EB6000F274F41215828A088B09890B8C0AEA2444
:10EB7000B2F8EB3400F9E5B3548F4440F5B3E990B3
:10EB8000083FF0E8A3F09008447410F0900843E0C8
:10EB900054E0F053D1FD75D602E5B354F84404F5C2
:10EBA000B343B301E5B3A2E350FA9003A2E06408D3
:10EBB000705CEA24A5F8EB3400F9EA24D8F582EB7E
:10EBC0003400F58312145885188285198312146451
:10EBD000851882851983E088828983F07401121573
:10EBE000CEE088828983A3F074021215CEE0888279
:10EBF0008983A3A3F074031215CEE088828983A3CE
:10EC0000A3A3F088828983A3A3A3A3E4805BEA245F
:10EC1000A5F8EB3400F9EA24D8F582EB3400F5834B
:10EC200012145885188285198312146485188285F8
:10EC30001983E088828983F074011215CEE08882FE
:10EC40008983A3F074021215CEE088828983A3A37E
:10EC5000F074031215CEE088828983A3A3A3F08801
:10EC6000828983A3A3A3A37480F0741C1215CEE041
:10EC7000F50CA3E0F50D850A0EE50C250EF8E50D63
:10EC80003400F988828983E0C0E074041215CED084
:10EC9000E0F088828983A3E0C0E074051215CED02D
:10ECA000E0F088828983A3A3E0C0E074061215CE49
:10ECB000D0E0F088828983A3A3A3E0C0E0740712A8
:10ECC00015CED0E0F0E50AC3941150047410800210
:10ECD0007420C3950EFE95E0FFE50C250EFAE50DB8
:10ECE0003400FBEA64307003EB6480603A90083BC8
:10ECF000E0541FF090083D7420F0A37452F074802B
:10ED0000900837F07430A3F0EBA3F0EAA3F0EE9094
:10ED1000083CF0EF90083BF053D1FE75D60175D753
:10ED200001E5D1A2E050FA74041215CE85820E8559
:10ED3000830F780E121805AC0CAD0DA90AE5082456
:10ED4000A5FAE5093400FB120B477402121598EE80
:10ED5000FAEFFB850A0EE50C250EFCE50D3400FDEF
:10ED6000EC64307003ED6480603A90083BE0541F1F
:10ED7000F090083D7420F0A37452F074809008372E
:10ED8000F07430A3F0EDA3F0ECA3F0EA90083CF0AF
:10ED9000EB90083BF053D1FE75D60175D701E5D154
:10EDA000A2E050FA74081215CE85820E85830F7882
:10EDB0000E121805780C121805AC0AA90BE50824E8
:10EDC000A5FAE5093400FB120B4D74041215987472
:10EDD000041215CEE0F874081215CEE06870307495
:10EDE000051215CEE0F874091215CEE06870207493
:10EDF000061215CEE0F8740A1215CEE06870107491
:10EE0000071215CEE0F8740B1215CEE06860047995
:10EE100000801FE50824D8F582E5093400F58375E4
:10EE20000C01750D00750E00750F00780C1213C6DD
:10EE30007901740C02EB5474F21215F2E9FE8C089D
:10EE40008D097F008E8285820A8F0B8A0C8B0D784C
:10EE50000C12184901031851F18BEEA2EEB9EE51D4
:10EE6000F1D1EE3FEF50EF89EFCBEFE8EF05F02463
:10EE7000F041F051F15EF0A0F0BCF0D1F0E0F0FA1A
:10EE8000F051F151F151F151F116F174106E60032E
:10EE900002F14D750A10780A1218057AD17B080222
:10EEA000F01974106E600302F14D750A10780A12A1
:10EEB00018057AE17B0802F01974046E600302F110
:10EEC0004D8C828D831214709008F112147C02F123
:10EED0006F74016E600302F14D900B82E0F88C823A
:10EEE0008D83E0900B82F0E86026E0600302F16F12
:10EEF0009008CFE06402600DE064066008E06404FE
:10EF0000600302F16F9008CEE0F912059502F16FEF
:10EF1000E0700302F16F9008CFE064016012E064DA
:10EF200003600DE064056008E06404600302F16FB3
:10EF30007A017B009008CEE0F9120F1302F16F7492
:10EF4000026E600302F14D12FA45900B8302F0F459
:10EF5000EEC39420400302F14D7C1F7D0079007ABE
:10EF6000867B0B120ED7780A121805AC08AD097A09
:10EF7000867B0B120EBF7402121598EE900B85F073
:10EF80007C867D0BFB7A018037EEC3942040030220
:10EF9000F14D7C1F7D0079007AFC7B08120ED7783A
:10EFA0000A121805AC08AD097AFC7B08120EBF7472
:10EFB00002121598EE9008FBF07CFC7D08FB7A00AD
:10EFC0009008CEE0F912058F02F16974016E6003BA
:10EFD00002F14D8C828D83E0F8C39405400302F169
:10EFE0004DE890091B02F11374016E600302F14DAC
:10EFF0008C828D83E0F8C39404400302F14DE890C5
:10F00000091C02F11374066E600302F14D750A06C5
:10F01000780A1218057A1D7B09120EBF74021215A8
:10F020009802F16F74016E600302F14D8C828D8342
:10F03000E0F8C39408400302F14DE890092302F17F
:10F040001374016E600302F14D8C828D83E0F8C36E
:10F050009404400302F14DE890092402F113740274
:10F060006E600302F14D12FA4590092512FA21E86B
:10F0700049700302F16F9008CFE06405600302F16C
:10F080006F90092512FA7F78081218017A027B0026
:10F090009008CEE0F9120F8B740412159802F16FEC
:10F0A00074016E600302F14D8C828D83E0F8C3948D
:10F0B00002400302F14DE890092D805712F18A6059
:10F0C0000302F14D12F17E400302F14D900BA78037
:10F0D0003E12F18A707712F17E5072900BA9802F48
:10F0E00012FA4574026E7065C3E894F4E994015015
:10F0F0005C90092EE8F0A3E9801912F18A704EEABB
:10F1000024F612F1769477E9940C5041900BABEA17
:10F11000F0A3EBF0805974016E70328C828D83E025
:10F12000640170297A087B009008CEE0F9120F9DE7
:10F13000EA4B4C4D7013790012120D7A047B00904B
:10F1400008CEE0F9120F9780267F1680227F188064
:10F150001EC3EA9427EB9400501374026E700E8C59
:10F16000828D8312F59D12048DE9FF80020F0FEF4F
:10F17000F97F060216C4F8EB34FFF9C3E822EA244B
:10F18000FA12F176947BE9940C228C828D83E0FA5A
:10F19000A3E0FB74026E2274F41215F2ECFEEDFF94
:10F1A0007508008A0A8B0B780A12184900031AF0B6
:10F1B000F2E7F1EDF1FFF111F221F233F239F23F12
:10F1C000F24EF25DF263F269F27AF27FF284F28932
:10F1D000F28EF29BF2A0F2A5F2AAF2AFF2CCF2D13B
:10F1E000F2D6F2F0F2E6F29008D002F2E9750A10D7
:10F1F000750B00780A1218057CD17D0802F2BE75E5
:10F200000A10750B00780A1218057CE17D0802F2DD
:10F21000BE9008F11214708E828F8312147C02F358
:10F220000A750A06750B00780A1218057CF57D0828
:10F2300002F2BE900B8202F2E9900B8302F2D990A7
:10F240000B8512F30E1218057C867D0B80709008DA
:10F25000FB12F30E1218057CFC7D08806190091BDF
:10F2600002F2E990091C02F2E9750A06750B0078B2
:10F270000A1218057C1D7D098044900923806A903C
:10F2800009248065900BA58050900925804B90093A
:10F290002DE08E828F83F0A3E48069900BA78039E4
:10F2A000900BA9803490092E802F900BAB802A758B
:10F2B0000A06750B00780A1218057C277D09EEFAFC
:10F2C000EFFB120EBF7402121598803E9009308039
:10F2D00008900932800390093412FA498E828F8394
:10F2E000E8F0A3E9801E9008CFE08E828F8380141F
:10F2F000C3EA9427EB9400500E1204938E828F83FE
:10F30000EAF0A3EBF08003750802A908800CE0F591
:10F310000A750B00780A221215987F040216C4742D
:10F32000F61215F29008CFE0703EEA4B60089009A3
:10F3300037EAF0A3EBF07508F175090878081218A0
:10F34000057508E175090878081218057CD17D0853
:10F350007B009008D0E0FA9008CEE0F912101B7400
:10F36000041215987900800279117F020216C4D028
:10F3700083D08202011FC082C0839008CFE0640561
:10F38000700F7C1312FA3C9008CEE0F91205118040
:10F3900002791280DA74F71215F2E99008CEF09033
:10F3A00008CFE4F0900BA574FFF0A3F01205DD90F8
:10F3B00008D07404F07C107D0079007AD17B0812AB
:10F3C0000ED77C107D0079007AE17B08120ED79071
:10F3D00008F1E4F0A3F0A3F0A3F090091BF090096A
:10F3E0001CF09009237407F0900924E4F07CD17D8F
:10F3F000087A1079021211D17CE17D087A10790324
:10F400001211D17CF17D087A0479041211D17F01A7
:10F410000216C474F41215F274F6121582EAFEEBA9
:10F42000FF548060239008CEE0F9120EFB8A088B0F
:10F4300009EA4509600A121201AA08AB09120EE98D
:10F44000EEFAEF648002F591EF544060137CF17D99
:10F45000087A0479041211CBEEFAEF644002F591B8
:10F46000EEA2E0400302F50E900B82E0700302F57D
:10F47000089008CFE06405700B85188285198374A5
:10F4800003F0803990091BE0851882851983F0907C
:10F49000091CE0C0E074011215CED0E0F07508063A
:10F4A00075090078081218057C1D7D097404121571
:10F4B000CEAA82AB83120EBF740212159890092354
:10F4C000E0C0E074081215CED0E0F0900924E0C04E
:10F4D000E074091215CED0E0F0AA18AB199008CE4E
:10F4E000E0F9120589E960209008CF7407F012FA5C
:10F4F0008A601512FA3612FA4988828983E58245B4
:10F5000083600579071215F0EE640102F58F54024D
:10F5100060359008CFE06405702812FA3C1207BDF0
:10F5200090092512FA8D601A90092512FA7712189F
:10F53000017A027B009008CEE0F9120F8B7404125E
:10F540001598EE64028048EE5404600A79001212A5
:10F550000DEE64048039EE54086039900936E014E9
:10F5600060081470271211EF8022900BAB12181C48
:10F5700090092E12181C7901900BA912F59D900B81
:10F58000A712FA3F1212137404121598EE6408FAC7
:10F59000EFFB80047A007B00740A02F317E0FCA3FF
:10F5A000E0FD2274F41215F2EA2405F8E43BF98A2E
:10F5B000828B83E0246F600B24EF606D24D2606443
:10F5C00002F684A3E0640E600302F6848A828B83D1
:10F5D000A3A3A3E064057004A3E06414600302F62F
:10F5E000848882898312FA33A3A3A3E0F99008CF19
:10F5F000E06405600302F684747F69700302F68498
:10F6000090093712FA3FEA4B607A90093712FA33C1
:10F61000A3A312FA3F8A828B83E582458360651239
:10F6200015F08060121207805B88828983E0641382
:10F6300070528A828B83A3A3A3A3A3A3E064017067
:10F6400002A3E07019900936E0640270117A087B19
:10F65000009008CEE0F9120F971211EF80267A057C
:10F660007B001204938A088B09E4F50AF50B7808ED
:10F670001218017A087B009008CEE0F9120F8B7403
:10F680000412159802F31A74EC1215F2EAFEEBFF5D
:10F690008E828F83A3A3E0F8EE2403F50CE43FF5FC
:10F6A0000DEE240AF50AE43FF50B8E828F83A385C5
:10F6B0008208858309E8602724FE700302F753144B
:10F6C000700302F7B414700302F7B414700302F865
:10F6D0001914700302F92C14700302F99E806FE074
:10F6E000704B7CD17D087A1079021211CB7CE17DC0
:10F6F000087A1079031211CB75080675090078088D
:10F70000121805AC0CAD0D7AF57B08120EBF740211
:10F710001215989008CF7401F07C867D0B900B85B4
:10F72000E0FB7A019008CEE0F912058FE9707C12B7
:10F73000FA8A601A12FA3612FA49E8FAE9FBEA4B39
:10F74000600C9008CFE0F98A828B831215F07F0C51
:10F750000216C4E0704C850C82850D83E0601D7C30
:10F76000FC7D089008FBE0FB7A009008CEE0F912DF
:10F77000058FE9850882850983F080269008CFE00F
:10F780006402601E7A017B009008CEE0F9120F9DA2
:10F79000EA4B4C4D700C7A017B009008CEE0F912D8
:10F7A0000F13850882850983E060A39008CF740752
:10F7B000F002F72FE070F474036870109008CFE047
:10F7C00064057004740680E8740280E4900B831270
:10F7D000FA8D900B82601FE0601E900B8312FA7707
:10F7E0001218017A017B009008CEE0F9120F8B7499
:10F7F000041215988002E4F09008CFE064067004CB
:10F80000740580ACE06404700C900B8212FA27122D
:10F810000F1302F72F74038097E0F8600302F919C1
:10F82000EE2404F508E43FF509750E06750F00781F
:10F830000E121805AC08AD097A277B09120EBF74A9
:10F8400002121598850A82850B8312FA49900BA53E
:10F8500012FA219008CF7405F090092512FA8D60F4
:10F8600025900925E0F510A3E0F511E4F512F51354
:10F8700078101218017A027B009008CEE0F9120F7E
:10F880008B7404121598EE240CF582E43FF5831274
:10F89000FA6BEE240EF582E43FF58312FA5FEE2454
:10F8A00010F582E43FF58312FA5390092DE06401CC
:10F8B000703B7A1F7B001204938A10EA75F0E8A46B
:10F8C000C510A8F075F003A428F875F0E8EBA4289B
:10F8D000F511E4F512F51378101218017A047B0083
:10F8E0009008CEE0F9120F8B7404121598750E046F
:10F8F000780E121809850A82850B8312F59DAA08D5
:10F90000AB09850C82850D83E0F912102774011272
:10F910001598900B82E402F7B0743168600302F727
:10F92000AB900B82E4F09008CF02F8151210457CE2
:10F93000067D0079007A277B09120ED7900930E402
:10F94000F0A3F0900932F0A3F0900934F0A3F07A1C
:10F9500004FB9008CEE0F9120F977A087B0090081C
:10F96000CEE0F9120F978E828F83A3A3A3A3A3E007
:10F9700064089008CF7004740480027403F0900B44
:10F9800082E0600A9008CEE0F9120595800612FA2E
:10F9900027120F13900BA574FFF0A302F7B07A089B
:10F9A0007B009008CEE0F9120F97850882850983C5
:10F9B000E0600302F74E8E828F83A3A3A3A3A3A3C9
:10F9C00012FA6B8E828F83A3A3A3A3A3A3A3A31274
:10F9D000FA5F850A82850B8312FA537A047B0090C2
:10F9E00008CEE0F9120F9DEA4B4C4D600302F74E32
:10F9F00090093912FA8D700302F74E9009341218EB
:10FA00001C90093212F59D90093012FA3F90093985
:10FA100012FA3312FA331215F0740212159802F723
:10FA20004EE8F0A3E9F0227401F0FA7B009008CED2
:10FA3000E0F922E0F8A3E0F583888222900BA5E0AC
:10FA4000FAA3E0FB228C828D8312FA4D22E0F8A308
:10FA5000E0F92212FA4D900934E8F0A3E9F02212FD
:10FA6000FA4D900932E8F0A3E9F02212FA4D90091C
:10FA700030E8F0A3E9F02212FA7FF50B780822E0D3
:10FA8000F508A3E0F509E4F50A2290093712FA4DCA
:10FA9000E8492274F41215F274F8121582E9FE9006
:10FAA0000BA712FA49758309758230C3E098A3E069
:10FAB00099403890093012FA4975830B7582A9C3B1
:10FAC000E098A3E099402490093212FA4990092E57
:10FAD000E0687003A3E069701290093412FA49904B
:10FAE0000BABE0687003A3E06960737A057B0012DA
:10FAF00004938A088B09900BA712FA49851882850E
:10FB0000198312FA21900BA912FA4974021215CE28
:10FB100012FA2190092E12FA4974041215CE12FA23
:10FB200021900BAB12FA4974061215CE12FA2190ED
:10FB300008CEE0F9AC18AD1912FA3C120895EE9017
:10FB40000936F0E4F50AF50B78081218017A087BFB
:10FB5000009008CEE0F9120F8B7404121598740807
:10FB600002F31774F41215F2E9FE9008CFE0640571
:10FB70006005791402FBFAEA24FAF8EB12FBFD5057
:10FB800077EC24FAF8ED12FBFD506D740C1215CED3
:10FB9000E0F50AA3E0F50BC3E50A94F4E50B940144
:10FBA0005056740E1215CEE0F508A3E0F509E508ED
:10FBB00024F6F8E50912F1789476E9940C5039901E
:10FBC0000BA7EAF0A3EBF0900BA9ECF0A3EDF090FB
:10FBD000092EE50AF0A3E50BF0900BABE508F0A3C6
:10FBE000E509F0EEF912120D7A047B009008CEE0E0
:10FBF000F9120F9779008002791802F31A12F1783E
:10FC0000947AE9940C2274F71215F274E3121582B7
:10FC1000E9900776F07C067D007A1F7B0012048D48
:10FC200074091215CE7401F074121215CEE4F0A30B
:10FC3000F074081215CE7401F074101215CE749081
:10FC4000F0A37401F0740E1215CE7420F0A37403A7
:10FC5000F0740C1215CEE4F0A3F0740A1215CE74F1
:10FC6000E8F0A37403F074091215E879017A057BB2
:10FC7000031211DD74121215E879027A067B031261
:10FC800011DD7C457D0B79127A087B031211DD7C36
:10FC9000577D0B79077A077B031211DD7408121563
:10FCA000E879017A107B031211DD74101215E879DE
:10FCB000027A117B031211DD740E1215E879027AB3
:10FCC000127B031211DD740C1215E879027A137B92
:10FCD000031211DD740A1215E879027A147B0312FB
:10FCE00011DD7C5E7D0B7A1579001206077C207D84
:10FCF000037A067B0012048D7C207D037A077B004B
:10FD000012048D7C207D037A087B0012048D7C20F8
:10FD10007D037A097B0012048D74141215CEE4F071
:10FD2000A3F0A3F0A3F074071215CE7401F07406CB
:10FD30001215CE7401F074051215CEE4F07404129D
:10FD400015CE7401F074141215E879047A087B0456
:10FD500012102174071215E879017A007B04121041
:10FD60002174061215E879017A027B0412102174BD
:10FD7000051215E879017A037B041210217404122C
:10FD800015E879017A067B0412102190815512142E
:10FD90005812060D90815512145812070F120FC7F2
:10FDA000908155121458120FD974031215CE740194
:10FDB000F0041215CE7402F0141215CE7403F085FF
:10FDC000188285198304F090815074181215E87414
:10FDD0000512149574031215E87A017900120FE5E3
:10FDE00074021215E87A017901120FE574011215F7
:10FDF000E87A017902120FE5AC18AD197A0179039E
:10FE0000120FE574181215E87A057904120FE57AD5
:10FE1000777B0B120FDF79011208057A017B0090C6
:10FE20000776E0F9120F13741D1215987F01021660
:10FE3000C474F61215F2EAFEEBFF548060169007C8
:10FE400076E0F9120EFBEA4B6003120EE9EEFAEFD0
:10FE500064808070EEA2E0502A7A737B0B1211E965
:10FE60007A787B0712103F9081751218187A027BFE
:10FE700000900776E0F9120F8B7404121598EE6467
:10FE800001803F5402601C9081751218187A027B21
:10FE900000900776E0F9120F8B7404121598EE6447
:10FEA00002801FEE5404601F90815D1218187A04BE
:10FEB0007B00900776E0F9120F8B7404121598EE10
:10FEC0006404FAEFFB80047A007B007F020216C410
:10FED00074F71215F274F2121582E9FE74016E6065
:10FEE0000302FF6674081215E87A047B031211E31B
:10FEF00074081215CEE0851882851983F0740912F2
:10FF000015CEE0C0E074011215CED0E0F0740A12F4
:10FF100015CEE0C0E074021215CED0E0F0740412E9
:10FF200015CEE4F074031215CEE4F0740D1215CE64
:10FF3000E0C0E074071215CED0E0F0740C1215CEBC
:10FF4000E0C0E074061215CED0E0F0740B1215CEAE
:10FF5000E0C0E074051215CED0E0F0AC18AD197A0F
:10FF6000087900120FCDEE900777F0740E02FE298B
:10FF700074F71215F274FF121582E9600624FE6010
:10FF8000228029AA18AB197900120FEB85188285F7
:10FF90001983E07A0179006005121111800E1211A7
:10FFA0000B8009AA18AB197902120FEB740102FE3B
:10FFB00029C082C0839008417470F0A374B1F0A38B
:10FFC000E0541FF0900845741DF0A37442F0A37430
:10FFD00070F0A374B2F090084BE0541FF090084DFD
:10FFE000741EF0A37412F08000D083D08202011F2F
:0AFFF000C082C0831210C902FFE9AD
:020000040001F9
:1000000074F01215F27901120B8FE964016003029A
:1000100080FB9004F4E064017020120BF57AE87B19
:1000200004120B839004F1E4F075E1F17A02FB9085
:1000300003A1E0F9120F130280FB120B11E9FC90EF
:1000400004E8E02402F8A3E03400F9E8FAE9FB8AC6
:10005000828B83EC75F0118485F00885080CE4F53B
:100060000DF50EF50F780C1213B39004F2E0F508BD
:10007000A3E0F509E4F50AF50B780C79081213A052
:100080007508FF7509FF750AFF780C7908121401CD
:100090008A828B83780C12144975080475090075DF
:1000A0000A00780C79081213A07508FF7509FF750E
:1000B0000AFF780C79081214019004E8E0F8A3E034
:1000C000C8240EF582E83400F583780C12144990A8
:1000D00004E8E0F8A3E0C82414F582E83400F583CE
:1000E0007413F09004E8E0F8A3E0C82416F582E861
:1000F0003400F5837469F0A3740AF0028B7B74EC0E
:100100001215F27901120B8FE96401600302878FE7
:100110009004F1E4F07AE87B04120B83120AC38A9C
:10012000088B09AE08AF098E828F83A3A3A3740145
:10013000F09003CFE004F07940120B7D8A088B0920
:10014000A808A9098E828F83E8F0A3E9F0E82406C5
:10015000FCE93400FDE82402FAE93400FB120C014A
:10016000E5D9E5D9A2E6E4339004D5F078D5790451
:10017000E5D988828983A3F088828983A3A882A98C
:1001800083E864DB7003E9640470E57806E5D91858
:10019000E870FAEE2422F8EF3400F9E849700A78A2
:1001A00004E5D918E8603080F8EEF8EFF9E82404A7
:1001B000FAE93400FBE5D9C0E0E82422F582E9340D
:1001C00000F583D0E0F088828983A3A882A983EA1E
:1001D000687002EB6970DEEE2422F582EF3400F5E0
:1001E00083121458120C5BEE2426F8EF3400F9E861
:1001F00049700A7803E5D918E8603080F8EEF8EF26
:10020000F9E82403FAE93400FBE5D9C0E0E8242644
:10021000F582E93400F583D0E0F088828983A3A8D1
:1002200082A983EA687002EB6970DEEE2426F5820B
:10023000EF3400F5837508FF7509FF750AFF750B2C
:10024000007808121414AA08AB09AC0A7D00120C3D
:1002500031E5D9C0E0EE242BF582EF3400F583D0F0
:10026000E0F0EE242CF8EF3400F9E8497006E5D907
:10027000E5D98022E5D9C0E0EE242CF582EF3400E8
:10028000F583D0E0F0E5D9C0E0EE242DF582EF341F
:1002900000F583D0E0F0EE242EF8EF3400F9E849C1
:1002A0007006E5D9E5D98022E5D9C0E0EE242EF527
:1002B00082EF3400F583D0E0F0E5D9C0E0EE242FE2
:1002C000F582EF3400F583D0E0F0EE242BF582EFD9
:1002D0003400F583E0C333F0EE242CF8EF3400F95A
:1002E00088828983E0FAA3E0FBEAC333FAEB33FBAD
:1002F00088828983EAF0A3EBF0EE242EF8EF340035
:10030000F988828983E0FAA3E0FBEAC333FAEB338E
:10031000FB88828983EAF0A3EBF0EE2420F8EF3427
:1003200000F9E8497006E5D9E5D98022E5D9C0E0B1
:10033000EE2420F582EF3400F583D0E0F0E5D9C05B
:10034000E0EE2421F582EF3400F583D0E0F0EE24D6
:1003500032F8EF3400F9E8497006E5D9E5D9802292
:10036000E5D9C0E0EE2432F582EF3400F583D0E029
:10037000F0E5D9C0E0EE2433F582EF3400F583D008
:10038000E0F0E8FAE9FB8A828B83E0F50AA3E0F566
:100390000B7404780A12156F850A08850B098A8286
:1003A0008B83E508F0A3E509F0E4F50AF50BEE24EC
:1003B00020F582EF3400F583E02401F50CA3E0344E
:1003C00000F50DE4F50EF50FEE242EF582EF340066
:1003D000F583E0F8A3E0F9E8C333F8E933F98810CE
:1003E0008911E4F512F513780C7910121279780856
:1003F000790C12123A5013EE242EF582EF3400F5E8
:1004000083E0F8A3E0F9E84970167A407B00900396
:10041000A1E0F9120F13EEFAEFFB120AD502878F53
:10042000EE242BFCEF3400FDEEFAEFFB120AE7EEB0
:10043000240BF582EF3400F5837405F0A3E4F0EEAD
:10044000FAEFFB120AEDEE245DF8EF3400F9E8490B
:10045000700A7805E5D918E8603080F8EEF8EFF911
:10046000E82405FAE93400FBE5D9C0E0E8245DF5AD
:1004700082E93400F583D0E0F088828983A3A882E2
:10048000A983EA687002EB6970DEE5D9F50CC41344
:100490005407F9EE242AF582EF3400F583E9F012CF
:1004A0002348EE2410F582EF3400F583EAF0A3EB45
:1004B000F0E50C541FC0E0EE2437F582EF3400F570
:1004C00083D0E0F0EE245DFCEF3400FDEEFAEFFBAC
:1004D000120ABD120CBB120C557904120C61790181
:1004E000120C979060607480F075E1F1900A1C74B2
:1004F000B3F0A3740BF0A374B3F0A3740BF0A37464
:10050000B3F0A3740BF0A374B3F0A3740BF0A37453
:100510005FF0A3740BF0A374B3F0A3740BF0A37497
:10052000B9F0A3740BF0900A2A745FF0A3740BF077
:10053000A3745FF0A3740BF0A3745FF0A3740BF0CB
:10054000A3745FF0A3740BF0A3745FF0A3740BF0BB
:10055000A3745FF0A3740BF07A047B009003A1E016
:10056000F9120F13EE242CF8EF3400F988828983F6
:10057000E0FAA3E0FB8A0C8B0DE4F50EF50F75088D
:1005800002F509780C79081213A0EA4B6013EE24E7
:100590002CF582EF3400F583E064027002A3E07072
:1005A0004EEE242EF582EF3400F583E0F508A3E04B
:1005B000F509780C79081213A07C027D00EEFAEFA1
:1005C000FB12194812245D8E828F83A3A3A3A3A3D9
:1005D000E02401F0A3E03400F08E828F83A3A3A374
:1005E000A3A3A3A3E02401F0A3E03400F0800E7CD9
:1005F000017D00EEFAEFFB12194812245D8E828F06
:1006000083E02402F8A3E03400F9E8FAE9FB8A82E7
:100610008B83780C1213C68A828B837508FF750949
:10062000FF750AFF7808121427EE2412F508EF343C
:1006300000F5097808121805EE2410F582EF340051
:10064000F58312181CEE241DF582EF3400F5831299
:10065000181CAA0CAB0DAC0EAD0F12239E74061223
:100660001598EE2418F582EF3400F583780C1214F7
:1006700049AC08AD098E828F83E02402FAA3E034EE
:1006800000FB1222D97C247D818E828F83E024029C
:10069000FAA3E03400FB1222D98E828F83E0F8A304
:1006A000E0F988828983A3A3E82408FCE93400FDEB
:1006B00074061214958E828F83E0F50AA3E0F50B81
:1006C000E50A240EF582E50B3400F58374FFF0A3F0
:1006D000F0A3F0A3F0E50A2412F8E50B3400F9E8E2
:1006E000FAE9FBEE242BF582EF3400F583E0FC857C
:1006F0000882850983780C12143A7401780C12155B
:100700006FEC250CF8E4350DF9E875F071A4C8AC70
:10071000F075F002A42CFC75F071E9A42CF98A8222
:100720008B83E8F0A3E9F0EE2416F582EF3400F5B0
:1007300083E0F508A3E0F50974047808121560E574
:10074000082401F8E5093400F98A828B83E028F057
:10075000A3E039F08A828B83E02410F0A3E0340117
:10076000F0E50A2414F582E50B3400F5837410F0EB
:100770008E828F83E0F8A3E0C82416F582E8340067
:10078000F583746FF0A3740AF09003A27407F0125B
:100790000B6B7F0C0216C474F01215F2120C37E9C1
:1007A00070089004F5E0F9120C3D75E18190780332
:1007B000E064427055900544E014F0704DC2AF12F1
:1007C00087C200782AD0E0F618D0E0F6E59F5407FB
:1007D00070057509FF800375097FC4C0E07829E6BC
:1007E000F50808E65509F509740B7808121560D06C
:1007F000E02508F8906270E0A2E740F8E8C3339083
:100800006272F0906270E0D2E0F07901120B8FE931
:10081000640160030289B590053BE0F8A3E0F9E8C4
:1008200049601090053BE0FAA3E0FB90053AE0F93F
:10083000120F139004F9E0640160030288FB75E174
:1008400091A3E02407F5D99004EAE0C4333354C0FF
:10085000F5D978E8790488828983A3A3A3E0F5D940
:1008600088828983A3A882A983E864EE7003E9647F
:100870000470E39004FAE0601F78E87904FAE82451
:1008800013F582E93400F583E0F5D988828983A3E2
:10089000A882A9831AEA70E690051AE02407F5D920
:1008A0009004EAE0C4333354C04404F5D978E879BD
:1008B0000488828983A3A3A3E0F5D988828983A3CE
:1008C000A882A983E864EE7003E9640470E39005EC
:1008D0001AE0601F78E87904FAE82433F582E934F5
:1008E00000F583E0F5D988828983A3A882A9831AB9
:1008F000EA70E675E1959004F9E4F0120B11E9FC59
:100900009004E8E02402F8A3E03400F9E8FAE9FBF7
:100910008A828B83EC75F0118485F00885080CE4DD
:10092000F50DF50EF50F780C1213B39004F2E0F507
:1009300008A3E0F509E4F50AF50B780C7908121321
:10094000A07508FF7509FF750AFF780C7908121465
:10095000018A828B83780C1214499004E8E0F8A392
:10096000E0C82406F582E83400F583E4F0A3F090B3
:1009700004E8E0F8A3E0C8240EF582E83400F5832B
:1009800074FFF0A3F0A3F0A3F09004E8E0F8A3E074
:10099000C82414F582E83400F5837412F09004E85A
:1009A000E0F8A3E0C82416F582E83400F583746902
:1009B000F0A3740AF0028B7B74F01215F275E181DA
:1009C000120C37E970089004F5E0F9120C3D79013A
:1009D000120B8FE964016003028B7B90053BE0F80A
:1009E000A3E0F9E849601090053BE0FAA3E0FB9032
:1009F000053AE0F9120F139004F9E0640160030274
:100A00008AC175E191A3E02407F5D99004EAE0C416
:100A1000333354C04406F5D978E879048882898351
:100A2000A3A3A3E0F5D988828983A3A882A983E838
:100A300064EE7003E9640470E39004FAE0601F78E8
:100A4000E87904FAE82413F582E93400F583E0F547
:100A5000D988828983A3A882A9831AEA70E69005BF
:100A60001AE02407F5D99004EAE0C4333354C044B3
:100A700004F5D978E8790488828983A3A3A3E0F5F3
:100A8000D988828983A3A882A983E864EE7003E9E8
:100A9000640470E390051AE0601F78E87904FAE8CE
:100AA0002433F582E93400F583E0F5D9888289831F
:100AB000A3A882A9831AEA70E675E1959004F9E487
:100AC000F0120B11E9FC9004E8E02402F8A3E034F2
:100AD00000F9E8FAE9FB8A828B83EC75F0118485D2
:100AE000F00885080CE4F50DF50EF50F780C1213DF
:100AF000B39004F2E0F508A3E0F509E4F50AF50B7C
:100B0000780C79081213A07508FF7509FF750AFFA4
:100B1000780C79081214018A828B83780C1214499C
:100B20009004E8E0F8A3E0C82406F582E83400F574
:100B300083E4F0A3F09004E8E0F8A3E0C8240EF505
:100B400082E83400F58374FFF0A3F0A3F0A3F090E3
:100B500004E8E0F8A3E0C82414F582E83400F58343
:100B60007415F09004E8E0F8A3E0C82416F582E8D4
:100B70003400F5837469F0A3740AF0120B6B7F08DC
:100B80000216C474F01215F275E181120C37E97087
:100B9000089004F5E0F9120C3D7901120B8FE9641D
:100BA000016003028CE890053BE0F8A3E0F9E84916
:100BB000601090053BE0FAA3E0FB90053AE0F912E3
:100BC0000F139004F9E06401706475E191A3E024CF
:100BD00007F5D99004EAE0C4333354C04402F5D990
:100BE00078E8790488828983A3A3A3E0F5D9888271
:100BF0008983A3A882A983E864EE7003E964047082
:100C0000E39004FAE0601F78E87904FAE82413F529
:100C100082E93400F583E0F5D988828983A3A8822C
:100C2000A9831AEA70E675E1959004F9E4F0120BD5
:100C300011E9FC9004E8E02402F8A3E03400F9E8AC
:100C4000FAE9FB8A828B83EC75F0118485F00885C4
:100C5000080CE4F50DF50EF50F780C1213B39004A3
:100C6000F2E0F508A3E0F509E4F50AF50B780C7954
:100C7000081213A07508FF7509FF750AFF780C7933
:100C8000081214018A828B83780C1214499004E8AC
:100C9000E0F8A3E0C82406F582E83400F583E4F028
:100CA000A3F09004E8E0F8A3E0C8240EF582E8344D
:100CB00000F58374FFF0A3F0A3F0A3F09004E8E044
:100CC000F8A3E0C82414F582E83400F5837414F026
:100CD0009004E8E0F8A3E0C82416F582E83400F5B3
:100CE000837469F0A3740AF0028B7BC082C08353C3
:100CF000BFEF7901120B8FE96401700C7AE87B0475
:100D0000120B839004F1E4F075E1F1120B6BD083C8
:100D1000D08202011FC082C08390032574FFF0A31C
:100D2000F0A3F0A3F0A3F0A3749FF0A3E4F0A374E6
:100D300020F090032414F0D083D08202011F7F02A0
:100D40000216C474EE1215F2890AEAFEEBFF8C0853
:100D50008D0990073DE06003028E5BE9333354FC5C
:100D600004F50B7407250BFA7B00120EE38A0C8B3B
:100D70000DAC0CAD0DEC4D7003028E5B8C828D833F
:100D80007401F0A374FFF0EC2402F8ED3400F9884C
:100D90000C890DEC2404F8ED3400F9850C82850DE6
:100DA00083E8F0A3E9128E7C7404128E7CA3741382
:100DB000128E8BE50B128E8BA3E50AF0750B0002E9
:100DC0008E45850B8285820E750F00E50EC333FAC2
:100DD000E433FBEE2AF8EF3BF988108911740278AE
:100DE0000E12156FA80EA90F851082851183E0F5EC
:100DF0000EC00E128E65D0E0F0851082851183A39F
:100E0000E0F50EC00E128E60D0E0F0E5082AFAE59B
:100E1000093BFB8A828B83E0F50EC00E128E60A325
:100E2000D0E012921AA3E0C0E0850C82850D83E029
:100E300028FAA3E0398A82F583A3A3A3A3A3A3A3DB
:100E4000D0E0F0050BE50BC3950A5003028DC2EC10
:100E5000FAEDFB90073AE0F9120EEF7F0A0216C492
:100E6000128E65A322850C82850D83E028F50EA3E2
:100E7000E039850E82F583A3A3A3A322128E8022DC
:100E8000F0850C82850D8312925F22128E80A3A3BF
:100E90002274EE1215F28A088B09890B8C0E8D0FC5
:100EA00090073CE0700990073EE07003028F5D9070
:100EB000031FE06003028F5D898285820C750D003F
:100EC000E92407FAE43400FB120EE38A108B11AE1A
:100ED00010AF11EE4F7003028F6E74186508700426
:100EE00074206509600C7417650870047420650926
:100EF000701090073EE0600AF50A8E828F8374922C
:100F0000800C90073CE0F50A8E828F837491F0A3E9
:100F1000740E12904A8E828F83A3A3F08E828F83E9
:100F200012967AEE2405F8EF3400F9E8FAE9FBEEC0
:100F30002407F8EF129234F0780C121805AC0EADBD
:100F40000F8A828B83E0FAA3E0FB120EBF740212B9
:100F50001598EEFAEFFBA90A120EEF8011780E1227
:100F60001805AC0B790E12084D7402121598028EFA
:100F70005B74F61215F2E9FE8C088D0978081218D8
:100F800005EEFC79FF12084D7402121598028D3E91
:100F900074F51215F2890AEAFEEBFF90073CE06057
:100FA0003C90031FE070367A067B00120EE3EA4B9A
:100FB000603A8A828B837491F0A3740F129574E562
:100FC0000A12904A8A828B83A3A3A3129650EEF052
:100FD000A3EFF090073CE0F9120EEF800FEEFCEF6C
:100FE000FD8908AA087B00790F1208477F030216C3
:100FF000C4129944FCA3E0F5838C82740412900916
:10100000FCA3E0F5838C82A3221299602274F7126C
:1010100015F274FC121582EA8518828519831290E4
:101020004AC0E074011215CED0E0F074021215CE61
:10103000ECF074031215CEED1299DC7A0412085309
:1010400074041215987F010216C4F0900323E02265
:1010500074F21215F289098A0A8B0B8C0874072521
:1010600008FA74FF65096004780380027802E82AB0
:10107000FA7B00120EE38A0C8B0DAE0CAF0DEE4F17
:1010800070030291728E828F837401F0A374FFF05B
:10109000EE2402FAEF3400FBEE2404F8EF1292245F
:1010A000E50912921AE02402F8A3E03400F9890D50
:1010B000A90B740E1215CE12947574FF6509603277
:1010C000740325088882850D8312904AC0E012912E
:1010D00077D0E012919FE50A12919FA3E9F085086D
:1010E0000A750B00780A1218058A828B83E02406A1
:1010F0008066740225088882850D83F08C828D833A
:10110000E0C0E0129177D0E0F08C828D83A3E0C044
:10111000E012918BD0E0F08C828D83A3A3E0C0E03D
:1011200012918BA3D0E012919A2406129190129101
:101130009A129748E9F085080AE50A24FDF50AE4C1
:1011400034FFF50B780A121805EC2403FCED34008B
:10115000FD8A828B83E02408FAA3E03400FB120EA0
:10116000BF7402121598EEFAEFFB90073AE0F912FD
:101170000EEF7F060216C412917B228A828B83E0D7
:10118000F8A3E0F5838882A3A3A32212917BA32274
:10119000F582E83400F583E50A22129240C8221253
:1011A000924DA3A3A32274F21215F2890A8A0BECC2
:1011B000FEEDFF7407250BFA7B00120EE38A088B05
:1011C00009EA450960511294C2EB34000A0AFBE5B2
:1011D000082404F8E509129224E50A12921A1292E0
:1011E0005BA3A3E50BF06023F50C750D00780C12E2
:1011F0001805EEFCEFFD8A828B83E02403FAA3E05E
:101200003400FB120EBF7402121598AA08AB0990A5
:10121000073AE0F9120EEF02917212921E22F08A42
:10122000828B8322129234129240F5838882740456
:1012300012924D223400F98A828B83E8F0A3E922CE
:1012400012924422F08A828B831294E922129244F1
:10125000F5838882A3227F100216C412925F2212A5
:1012600094E9F58388822274E81215F28917EAFE60
:10127000EBFF8C168D1374181215CE1294E9F974C5
:10128000181215CEE8F0A3E9F0741A1215CEE0F5A5
:101290000CA3E0F50D741C1215CEE0F508A3E0F5E3
:1012A00009741E1215CE12964874201215CEE0F560
:1012B0001290073CE070030293727A157B00120EC5
:1012C000E38A0E8B0FEA450F70030294721294AEFC
:1012D0007401F0EA2408FAEB3400FBE50E2403F570
:1012E00082E50F12974DE517701EE4F0751006F5B4
:1012F000117810121805741A1215CE129475120E68
:10130000BF7402121598800C7431F07C067D007950
:1013100000120ED7850E82850F83A3A3A3A3EEF040
:10132000A3EF129484E516129484A3E513F0E50E5E
:10133000240EF582E50F12974D129659E50E2410F2
:10134000F582E50F12974D12967DE50E2412F58277
:10135000E50F129193F0A3E50BF0E50E2414F5824E
:10136000E50F12974DE512F0AA0EAB0F90073C0265
:10137000946D90032CE0A2E5400302947290032444
:10138000E0A2E040030294727A1A7B00120EE38A14
:10139000108B11EA451170030294721294C2F50E7B
:1013A000EB3400F50F12947B850E82850F83E8F0F5
:1013B000A3E91294927404129492A3743E12949A24
:1013C000741312949AA374011294A8E5171294A8A6
:1013D000A3EE1294D5240612974AEF1294D51297D1
:1013E00048E5161294D5240812974AE513F07514AF
:1013F000067515007814121805741A1215CE129479
:1014000075850E82850F83E02409FAA3E03400FB82
:10141000120EBF740212159812973D240F12974AAC
:10142000E50CF0E50DF50C12973D241012974AE5F6
:101430000C1294D5241112956AF0E509F50812975B
:101440003D241212956A1294D52413129190F0E55E
:101450000BF50A12973D24141291901294D524157D
:1014600012974AE512F0AA10AB1190073AE0F91270
:101470000EEF029256E0FCA3E0FD22EA2404F8EB12
:101480003400F922F0850E82850F83A3A3A3A3A3C2
:10149000A3221294DAF58388822212949E22129457
:1014A000DEF5838882A3A32212949EA3A3228A82BC
:1014B0008B8374911294B822F0A3743E12921EA3EF
:1014C000A3221294C6228A828B837401F0A374FF34
:1014D000F0EA2402221294DAC8221294DE22F08565
:1014E0000E82850F831294E922E0F8A3E02274F4BF
:1014F0001215F2EAFEEBFF890890073CE060277ABC
:10150000067B00120EE3EA4B605D8A828B83749146
:10151000F0A37405129574E412921A129661E5080C
:10152000F090073C803C900325E0A2E450397A0B10
:101530007B00120EE3EA4B602E128FF174051295B8
:10154000787404129578A3E4129589EE129589A314
:10155000EFF088828983129743240612956AF090EF
:10156000073AE0F9120EEF02992FF582E83400F500
:1015700083E508221294BC2212957C22129960FC09
:10158000A3E0F5838C82A3A32212957CA3A32274EB
:10159000F01215F28A088B09ECFEEDFF741012159B
:1015A000CE12964874121215CEE0F50CA3E0F50D9C
:1015B00090073CE06045900324E0A2E240030296DD
:1015C000437A0C7B00120EE3EA4B60771294AE7400
:1015D00003129574A3E4F01296758A828B83A3A3F9
:1015E000A3129661A3A3A3E50AF0A3E50B129650FC
:1015F000A3A3A312965690073C804390032CE0A22D
:10160000E55040900324E0A2E250387A117B0012AA
:101610000EE3EA4B602D129934743EF0A3740AF085
:10162000A37403F0A3E4F012967CA3EEF0A3EFF012
:10163000A3E50AF0A3E50BF012965890073AE0F9FB
:10164000120EEF7F080216C4E0F50AA3E0F50B22A4
:101650001294BCA3A322A3A3A3E50CF0A3E50DF071
:101660002212966522A3A3A3EEF0A3EF12921EA36B
:10167000A3A3A3A3228A828B83A3A3A3A3E508F039
:10168000A3E509F02274F41215F28908EAFEEBFFD3
:101690008C09900326E0A2E3400302973A7A0F7B7D
:1016A00000120EE3EA4B700302973A1294C2F50A55
:1016B000EB3400F50B12947B850A82850B83E8F0EE
:1016C000A3E91297527404129752A3740C12975AFA
:1016D000740812975AA3E508129768EE129768A348
:1016E000EF12976E240612974AE509F0740C121552
:1016F000CE129475850A82850B8312974312974800
:10170000EC12976E240812974AEDF0740E1215CE63
:101710001294E9F9850A82850B83E0FCA3E0CC24CE
:1017200009F582EC12974DE812976E240A12974A37
:10173000E9F090073AE0F9120EEF02992F850E8238
:10174000850F831294E9C8222407F582E83400F556
:101750008322129773F58388822212975E22129752
:1017600077F5838882A3A32212975EA3A322129700
:1017700073C82212977722F0850A82850B83129410
:10178000E92274EC1215F28A0C8B0D8C0E8D0F74FD
:10179000141215CE129648850A82F583A38582100D
:1017A00085831190073EE0607A7A0F7B00120EE38A
:1017B0008A088B09AE08AF09EE4F70030298D78EE6
:1017C000828F837492F0A3743EF08E828F83A3A3E2
:1017D0007405F08E828F831296567508087509007D
:1017E0007808121805AC0EAD0FEE2405FAEF3400A0
:1017F000FB120EBF7402121598850A82850B83E0D6
:10180000FA851082851183E0F9EAF8EE240DF5825D
:10181000EF12974DE8F0A3E9F0EEFAEFFB90073EE8
:101820000298D290032CE0A2E55008900324E0A295
:10183000E440061209F70298D77A147B00120EE3EF
:101840008A088B09EA450970030298D71294C2F8F6
:10185000EB3400F9EA2404FAEB3400FB8882898334
:10186000EAF0A3EB129009FEA3E0FF8E828F83744F
:1018700004F0A3743EF0A3740DF0A37405F0129667
:1018800058A3AE82AF83750C08750D00780C121842
:1018900005AC0EAD0FEEFAEFFB120EBF740212157F
:1018A00098EE2408FEEF3400FF850A82850B83E062
:1018B0008E828F83F085100A85110BA30EAF83856E
:1018C0000A82850B83E08E828F83F0AA08AB099091
:1018D000073AE0F9120EEF7F0C0216C474F41215E9
:1018E000F2EAFEEBFF89088C0990073EE060167A69
:1018F000077B00120EE3EA4B60351299C4E509F04C
:1019000090073E8025900325E0A2E750227A0B7BCA
:1019100000120EE3EA4B60171299347408F0A374B6
:10192000041299B912967F90073AE0F9120EEF7FF0
:10193000040216C4129944F8A3E0F98882898374DA
:1019400004F0A3221294C6F8EB3400F9EA2404FC54
:10195000EB3400FD88828983ECF0A3ED12996022BC
:10196000F088828983E02274F41215F2EAFEEBFF1C
:10197000890890073EE060167A077B00120EE3EAC2
:101980004B60331299C47401F090073E802390039A
:101990002AE0A2E750207A0A7B00120EE3EA4B60AD
:1019A000151299347430F0A374031299B9F09007AA
:1019B0003AE0F9120EEF02992FF0A3E508F0A3EE3A
:1019C000F0A3EF228A828B8374921294B874081267
:1019D000921E129665E50812966CA322F085188275
:1019E000851983AC82AD8322C082C083900281E0DE
:1019F000A2E250067A367B0A80047A007B00120D40
:101A00004B7900D083D08202011F74F21215F27458
:101A1000E01215828A088B09ECFEEDFF7C107D0038
:101A20007900851882851983AA82AB83120ED77438
:101A30002E1215CEE0F50AA3E0F50B900733129FA6
:101A40003D7003029B13129F2965087004A3E06593
:101A5000096003029B13900734129F226003029BCC
:101A600013129F2EF8740668704B74101215CE85F1
:101A7000820C85830D780C121805900733E0244BF7
:101A8000F50CA3E03400F50D780C121805129C1724
:101A9000120D097404121598E97078120DC9E9F550
:101AA0000A750B00780A12180574121215CEAC8252
:101AB000AD83029B87900733E0F9A3E0C9245BF56F
:101AC00082E912A4F5604C12A1B912A4AF74116896
:101AD0006003029BABE0650A7004A3E0650B702E07
:101AE000750C08750D00780C121805129BFD120E6E
:101AF000D17402121598E964017013120DC9E9F549
:101B00000A750B00780A121805129C0A807979323E
:101B1000120DC3AA08AB0912094F8A0C8B0DA80C31
:101B2000A90DE8497003029BEAE82421F50CE93489
:101B300000F50D850C8212A4F77003029BEA12A136
:101B4000B9129F02650A7004A3E0650B6003029B53
:101B5000EA750A08750B00780A121805129BFD1227
:101B60000ED17402121598E96401707E850C82858D
:101B70000D83E0FCA3E0FDEC241AF582ED129F0238
:101B8000F50A780A12180574021215CEAA82AB83E0
:101B9000120EBF7402121598AA08AB098518828527
:101BA0001983AC82AD831207F98046E0650A7004A0
:101BB000A3E0650B6003029B13750C08750D00789C
:101BC0000C121805129BFD120ED17402121598E921
:101BD00064016003029B13129C0AEC241AF582ED47
:101BE000129F02F50A750B008098AA08AB0912072C
:101BF000FF790174201215987F060216C4EA241298
:101C0000FCEB3400FDEEFAEFFB2212A054245B1231
:101C1000A1CFFCA3E0FD22900733E0242BFCA3E03E
:101C20003400FD900733E02407FAA3E03400FB22E0
:101C300074F21215F2890DECFEEDFF750C008A822C
:101C40008B83A385820A85830B8E828F83A38582F3
:101C500008858309900733129F3D705F7401650DFD
